:020000040800F2
:10000000900C0020DD010008E1010008E301000878
:10001000E5010008E7010008E90100080000000010
:10002000000000000000000000000000EB010008DC
:10003000ED01000800000000EF010008F1010008D8
:10004000F3010008F3010008F3010008F3010008C0
:10005000F3010008F3010008F301000893170008FA
:10006000F3010008F3010008F3010008F3010008A0
:10007000F3010008F3010008F3010008F301000890
:10008000F3010008F3010008F3010008F301000880
:10009000F3010008F3010008F3010008451300080C
:1000A000F3010008972C0008F3010008F301000891
:1000B000F3010008F3010008F3010008F301000850
:1000C000F3010008F3010008F3010008F301000840
:1000D000F3010008570800087F280008F301000812
:1000E00029160008F3010008F301000800F002F8E7
:1000F00000F05FF80AA090E8000C82448344AAF163
:100100000107DA4501D100F054F8AFF2090EBAE860
:100110000F0013F0010F18BFFB1A43F0010318473B
:1001200038A1000058A100000A444FF0000C10F85C
:10013000013B13F0070408BF10F8014B1D1108BF65
:1001400010F8015B641E05D010F8016B641E01F805
:10015000016BF9D113F0080F1EBF10F8014BAD1C55
:100160000C1B09D16D1E58BF01F801CBFAD505E073
:1001700014F8016B01F8016B6D1EF9D59142D6D3CD
:10018000704700000023002400250026103A28BFF5
:1001900078C1FBD8520728BF30C148BF0B607047F9
:1001A000642906F0A786002070471FB51FBD10B553
:1001B00010BD07F05FF81146FFF7F7FF00F02AF8CF
:1001C00007F07DF803B4FFF7F2FF03BC00F084FAF8
:1001D00030BF72B662B680F308887047084800479F
:1001E000FEE7FEE7FEE7FEE7FEE7FEE7FEE7FEE7E7
:1001F000FEE7FEE703480449044A054B7047000048
:10020000ED00000890060020900C002090080020CF
:100210009008002008B5092000F005FA482000F0F9
:10022000A5F8022000F0EAF9012000F0E7F94FF408
:100230001651482000F05FFA02F000FC472140F21E
:10024000CF7001F06DFD00F043FB01F043FE3E482E
:1002500001F046FE00F0F4FD01F04EF801F046F921
:1002600000F09BFF03F01CFA01F0DCFB4FF461414E
:10027000242001F05AFB06F0B2FB06F0C4FB472134
:1002800040F6B73000F0AEFD7B203049088059E0E1
:100290002F48006808F080F904460C20032322460A
:1002A0000A210090002000F00CFF2A48006808F0A6
:1002B00073F904460C20032322460A2100901E20D5
:1002C00000F0FFFE0C2002230090234802780A2150
:1002D0002D2000F0F6FE0C20022300901F4802782B
:1002E0000A213C2000F0EDFE0C20012300901C4868
:1002F00002781921002000F0E4FE0C200123009078
:100300001848027819210F2000F0DBFE0C2003238F
:1003100000900E4802881921412000F0D2FE0C20E6
:10032000032300901048028819212D2000F0C9FEF7
:1003300000F0E7FD08480078012803D102F07BFDBA
:1003400002F023FEA4E700000000484268000020FD
:10035000580100208C0000202C000020A400002068
:100360007E0000207F000020160000204FF0E021DA
:10037000096921F004014FF0E0221161C21700EB7E
:100380005272C2F3C702234B1A701946097801EB67
:100390004102C2EBC1114FF6FF7202EAC1011E4ACF
:1003A0001180704701461B4A12784A434FF0E02300
:1003B0005A6100229A6101221A6100BF4FF0E022C7
:1003C000106900F001021AB100F48032002AF5D061
:1003D00000224FF0E0231A619A61704701460E4AED
:1003E00012884A434FF0E0235A6100229A610122A9
:1003F0001A6100BF4FF0E022106900F001021AB14B
:1004000000F48032002AF5D000224FF0E0231A6178
:100410009A617047080000200A000020A34A0A40A1
:100420000243A34B1A6070470146072323EA0102E7
:1004300012029F4B1B1D18684FF6FF0318409D4B7F
:10044000184310439A4B1B1D186070472DE9F0416B
:100450000746884614461D462846FFF7E5FFC5F1C6
:10046000040007FA00F60F20284100EA08000643BE
:1004700006F00F06E21704EBD2625211920002F16D
:10048000E022D2F800212146E31704EBD3635B118D
:10049000A4EB431C012303FA0CF31A432046E31791
:1004A00004EBD3635B119B0003F1E023C3F800214D
:1004B0008148005D40EA06107F490855BDE8F0819B
:1004C00070B504460B46CE1701EB9676C6F387004F
:1004D000CE1701EB9676B610A1EB8606B606350E62
:1004E000764B9B6943F00103744EB3614FEAB63318
:1004F00053F820300F26AE40B343714E46F82030FB
:10050000334653F8203004FA05F61E436C4B43F88B
:1005100020606C4B1B6801268E403343694E33606C
:1005200002F0010343B1674B0C331B6801268E4078
:100530003343644E0C36336002F0020343B1614B27
:1005400008331E6801238B401E435E4B08331E6038
:1005500070BD00B5002059490861C8601420486189
:1005600000208861C8610846006840F0010008600A
:1005700008464068544908405049486008460068A9
:10058000524908404D4908600846006820F4802020
:1005900008600846406820F4FE004860002088603B
:1005A00000214FF00060FFF739FF00BD10B5404853
:1005B0000830006840F004003D49083108603F48B9
:1005C000C06940F080503D49C8614148406840F4EE
:1005D00080703F4948600846006840F004000860A9
:1005E0000846006840F002000860FFF7F1FD10BD0A
:1005F0003048001D2E49091D086070470146490614
:100600002E4A926942F001022C4B9A612C4A083A18
:10061000526822F0E0622A4B083B5A601A46526840
:100620000A435A60704730B504460025FFF791FF32
:100630002248006840F480302049086000BF1F480D
:100640000068400C0028FAD04FF480601B494860D5
:10065000A01EC4B20846406840EA8440486008468C
:10066000406840F4803048601A48006840F032002A
:10067000184908601148006840F080700F49086010
:1006800000BF0E480068400E0028FAD00B484068B2
:1006900040F002000949486005E008484068C0F39E
:1006A000870505F00305022DF7D130BD80FFFF1F40
:1006B00008ED00E00000FA0500E400E00010024050
:1006C00008000140000401400000FFF8FFFFF6FEB3
:1006D0000070004000200240014600BF704700BF8C
:1006E0006F4A128802F04002002AF9D0C2B26C4B65
:1006F0001B1D1A8070472DE9F05F05460E4630013C
:1007000007F09EFF8146674905FB01F007F098FF5F
:100710008246494607F04AFE0746384607F058FF2A
:1007200084B2204607F08CFF8346394608F0CDF8A6
:1007300082464FF0834107F0CBFF814607F048FF28
:1007400080464FF6FF7000EA041404EB080084B200
:100750005548806940F00400534988610846806923
:1007600040F4804088615148006820F47F604F4920
:1007700008600846006840F40B6008604A48C0689A
:1007800040F480404849C8600846C06820F4804072
:10079000C860434808300480001D008842F20C0104
:1007A00008433F490C3108800846008840F48070B7
:1007B00008800846008840F0200008800223252297
:1007C00000210846FFF742FEBDE8F09F08B5384813
:1007D000007801283ED1002035490870354800785E
:1007E00000F00F00642148433249497801F00F01BD
:1007F00001EB810100EB41002E49897801F00F01E6
:1008000008442D4908800C200323009008460288E4
:1008100019212D2000F055FC27480088642190FB09
:10082000F1F026490860244800880A2190FBF1F085
:1008300090FBF1F201FB1200214908601E4800887C
:100840000A2190FBF1F201FB12001E490860012011
:100850001D49087008BD10B51148008800F020003F
:10086000D8B10F48001D0088C4B212481749097852
:100870004454C0780D2802D101200D490870134856
:100880000078401C1149087008460078042801D1FE
:1008900000200870FFF79AFF00BF002010BD000085
:1008A0000038014040420F0000100240040801409F
:1008B0001400002010000020160000201C00002062
:1008C0002000002024000020190000201800002033
:1008D000F948806940F00400F7498861F7480068EA
:1008E0004FF20F018843F54908600846006843F25B
:1008F00003010843F1490860704710B5EF480068EC
:1009000020F00F00ED4908600846006840F0030041
:1009100008600120EA490860EA48D0F8200108B9D7
:10092000002010BD0120E6490C310860FFF73AFDB8
:100930000020E449C1F8A001E1488038006808B10E
:100940000020EEE70120FFF72DFD0020DC490C31EF
:1009500008600120E5E710B5D848006820F00F00D6
:10096000D64908600846006840F00300086000208F
:10097000D3490C310860D349C1F8A0010120FFF729
:1009800011FD0120CE490C310860CE49C1F8A0010B
:10099000FFF708FD10BD10B50024C848006820F01E
:1009A0000F00C64908600846006840F0080008606B
:1009B0000120C3490860FFF7F5FC0120C149C1F8D7
:1009C000AC01FFF7EFFC0AE0601CC4B2322C03DD7F
:1009D000FFF7C1FF002010BD0120FFF7E3FCB8487E
:1009E000803800680028EFD1B5490C31086001203B
:1009F000F1E710B50020B2490C310860AF4800683B
:100A000020F00F00AD4908600846006840F0030080
:100A100008600020AB49C1F8A0010120FFF7C2FC2B
:100A20000120A7490C310860FFF7BCFC0020A54954
:100A3000C1F8AC0110BD10B50020A1490C3108600F
:100A40009E48006820F00F009C4908600846006836
:100A500040F00300086001209A49C1F8A001FFF7A7
:100A6000A1FC012096490C310860FFF79BFC002097
:100A70009449C1F8AC0110BD70B504468F480068B8
:100A800020F00F008D4908600846006840F0030020
:100A9000086000208A490C310860002516E0E00952
:100AA000874908606006040E0120FFF77BFC0120E7
:100AB0008449C1F8AC01FFF775FC002080490C3176
:100AC00008600120FFF76EFC681CC5B2082DE6DB4C
:100AD00070BD2DE9F04105460E4617469846FFF7D2
:100AE0000CFF10B90120BDE8F0816906080EFFF780
:100AF000C3FFFFF750FF18B9FFF72DFF0120F2E702
:100B00003046FFF7B9FFFFF746FF00240BE018F867
:100B10000400FFF7B1FFFFF73EFF18B9FFF71BFF17
:100B20000020E0E7641CBC42F1DBFFF714FF00206B
:100B3000D9E770B5054600246048006820F00F0032
:100B40005E4908600846006840F00800086000261A
:100B500017E000205A490C3108600220FFF722FC00
:100B600001205849C1F8AC016006040E5448803891
:100B7000006808B1601CC4B20220FFF713FC701CAF
:100B8000C6B2082EE5DB15B1FFF733FF01E0FFF732
:100B900052FF204670BD2DE9F04106460F4614462F
:100BA0001D46FFF7AAFE10B90120BDE8F0817106CD
:100BB000080EFFF761FFFFF7EEFE18B9FFF7CBFE57
:100BC0000120F2E73846FFF757FFFFF7E4FEFFF793
:100BD00094FE012101EB4601C8B2FFF74DFFFFF77C
:100BE000DAFE0DE0012C04D10020FFF7A2FF2870EF
:100BF00003E00120FFF79DFF28706D1C601EC4B24A
:100C0000002CEFD1FFF7A7FE0020CEE770B5054618
:100C10000E460024FFF771FE2846FFF72DFF641CE7
:100C2000FFF7B9FE3046FFF727FF641CFFF7B3FE5E
:100C3000FFF763FE691CC8B2FFF71EFF641CFFF7D5
:100C4000AAFE0020FFF775FF0446FFF784FE20464A
:100C500070BD2DE9F0410746884615461E46002422
:100C6000FFF74BFE3846FFF707FFFFF794FE4046BD
:100C7000FFF702FFFFF78FFEFFF73FFE791CC8B2B8
:100C8000FFF7FAFEFFF787FE00BF0DE0681EA042E7
:100C900004D00120FFF74DFF305503E00020FFF79F
:100CA00048FF3055601CC4B2AC42EFDBFFF753FE87
:100CB0002046BDE8F0810000001002400408014019
:100CC000A0012142000021422DE9F04180460D465D
:100CD00016461F460024FFF710FE4046FFF7CCFEE5
:100CE000FFF759FE2846FFF7C7FEFFF754FE00BF87
:100CF00006E0385DFFF7C0FEFFF74DFE601CC4B292
:100D0000B442F6DBFFF727FE0120BDE8F08170B5A5
:100D100005460E46144631462846FFF777FF2070F9
:100D2000012070BD37B504460D4602AB01222946AD
:100D30002046FFF7C9FF3EBD2DE9F8430746884628
:100D400014461D46089E6A4641463846FFF7DFFFB7
:100D500028B3601CFF2101FA00F0C4F10801294406
:100D6000491EFF220A41104300F0FF09C5F10800A7
:100D700006FA00F0C6B2C4F1070006419DF8000073
:100D800000EA090000909DF80000304300909DF8B3
:100D9000002041463846FFF7C5FFBDE8F883002034
:100DA000FBE7F8B506460F4614461D466A46394627
:100DB0003046FFF7ACFF2DB10120A0409DF8001098
:100DC000084305E00120A0409DF8001021EA000042
:100DD000C0B200909DF8002039463046FFF7A2FFD0
:100DE000F8BD000070B505460C461348806940F414
:100DF00000601149886111480580001F04800F4878
:100E00002038008840F001000C492039088008464D
:100E1000008840F04000088008482C38008840F0E6
:100E2000010006492C3908800223192201210846B5
:100E3000FFF70CFB70BD0000001002402C2C01409D
:100E40001748806940F0040015498861154800681A
:100E500020F47F20134908600846006840F44C30B5
:100E6000086010480C30006840F010000D490C314B
:100E70000860704718B900210B4A11600FE00B4958
:100E80000968491C094A1160814208D1064909686C
:100E9000C943074AC2F890110021044A1160704703
:100EA000001002400008014090012142280000206B
:100EB0000000214210B50A461AB10123FE4C2360FE
:100EC00002E00023FC4C2360002114E00023FB4CD3
:100ED000236000F080031BB10123241F236003E083
:100EE0000023F64C241F23600123F44C23604306A7
:100EF000180E4B1CD9B20829E8DB0123EE4C236005
:100F000010BD30B500241CE004F1B001C8B20021CE
:100F1000FFF7D0FF00210846FFF7CCFF002110208B
:100F2000FFF7C8FF002508E0E54901EBC501085DB2
:100F30000121FFF7BFFF681CC5B2802DF4DB601CE8
:100F4000C4B2082CE0DB30BD00B500218D20FFF7D6
:100F5000B1FF00211420FFF7ADFF0021AF20FFF704
:100F6000A9FF00BD00B500218D20FFF7A3FF0021E0
:100F70001020FFF79FFF0021AE20FFF79BFF00BD71
:100F800030B500240CE0002506E00020CC4901EB40
:100F9000C5010855681CC5B2802DF6DB601CC4B2C3
:100FA000082CF0DBFFF7ADFF30BDF0B5144600268E
:100FB0007F2801DC3F2900DDF0BD0B46CF1701EB98
:100FC0005777FF10C7F10707FAB2CF1701EB577732
:100FD000FF10A1EBC707FDB2C5F107070123BB4016
:100FE000DEB24CB1B64B03EBC0039B5C3343B44F52
:100FF00007EBC007BB5408E0B14B03EBC0039B5C9D
:10100000B343AF4F07EBC007BB5400BFD4E72DE994
:10101000F04F80460C4615461E46A346A5F120001B
:10102000C5B200273EE00C2E07D105EB4500A549CF
:1010300001EB800010F8079004E0A34800EB0510D6
:1010400010F807904FF0000A26E009F0800028B160
:1010500021464046099AFFF7A8FF09E0099808B918
:10106000012000E00020024621464046FFF79DFF98
:101070004FEA49604FEA1069601CC4B2A4EB0B0050
:10108000B04205D15C4608F1010000F0FF0806E01F
:101090000AF1010000F0FF0ABAF1080FD5DB00BF2A
:1010A000781CC7B2B742BEDBBDE8F08F10B5024670
:1010B000012000E050430B1EA1F10104E1B2F9D17F
:1010C00010BD2DE9FF4F81B0074691461E460E9D8B
:1010D0004FF0000A002439E0301B401EC1B20A2044
:1010E000FFF7E4FFB9FBF0F00A21B0FBF1F201FBDE
:1010F0001208BAF1000F16D1701EA04213DDB8F12C
:10110000000F0ED10120AB4605EBDB71491001FB4E
:1011100004710090C8B22B4620220299FFF777FF96
:1011200012E04FF0010A0120AB4605EBDB714910DC
:1011300001FB04710090C8B208F13001CAB22B461D
:101140000299FFF764FF00BF601CC4B2B442C3DB66
:1011500005B0BDE8F08F78B505460E46144618E098
:101160007A2D03DD002506F11000C6B23A2E04DD0B
:10117000002005460646FFF703FF01200090227875
:101180000C2331462846FFF742FF05F10800C5B29F
:10119000641C20780028E3D178BD10B54B488069E5
:1011A00040F00800494988614948006849490840B9
:1011B00047490860084600684749084344490860B1
:1011C0004248806940F00400404988614348006813
:1011D00020F07040414908600846006840F0005027
:1011E000086000203549083908606420FFF7F6F8E8
:1011F00001203B49C1F88C010021AE20FFF75AFEC7
:101200000021D520FFF756FE00215020FFF752FEA7
:101210000021A820FFF74EFE00213F20FFF74AFEE5
:101220000021D320FFF746FE00210846FFF742FECB
:1012300000214020FFF73EFE00218D20FFF73AFEFF
:1012400000211420FFF736FE00212020FFF732FE98
:1012500000210220FFF72EFE0021A120FFF72AFE29
:101260000021C020FFF726FE0021DA20FFF722FE32
:1012700000211220FFF71EFE00218120FFF71AFE39
:101280000021EF20FFF716FE0021D920FFF712FE04
:101290000021F120FFF70EFE0021DB20FFF70AFE00
:1012A00000213020FFF706FE0021A420FFF702FEF8
:1012B0000021A62016E00000BC01214294812142B9
:1012C0007C010020BA8A00082E8F0008001002401E
:1012D000000C0140FF0F00FF002022000408014025
:1012E00000802142FFF7E6FD0021AF20FFF7E2FD7D
:1012F000FFF746FE10BD000010B56E48806940F053
:1013000004006C4988616C48006820F470006A49E8
:1013100008600846006840F40000086066480C3029
:10132000006840F4004064490C3108600122052146
:101330000020FFF7C5F80223172201211846FFF706
:1013400085F810BD10B50A20FFF748F85B48006823
:1013500088B95A487C300068C0435949C1F89001A7
:1013600058480078401C5749087008460078032800
:1013700001D10020087020205349086010BD0146AB
:101380004E48006828B951480088401C4F4A1080D8
:1013900002E000204D4A10804848006828B94C48B7
:1013A000007810B901204A4A10704A480078B0B954
:1013B00047480078012807D147480078401C464A32
:1013C00010700120434A107043480078022806D16B
:1013D0000020414A1070414A10800220704737486F
:1013E0000068012804D10020394A1070394A107071
:1013F0003948007801281CD138480088401C374AF9
:1014000010801046008888420ADD304800888842F3
:1014100006DA0020304A1070304A10800120DDE7E3
:101420002A480088884204DD00202B4A10702B4A8D
:1014300010800020D2E710B52948007868B11F4815
:10144000006850B90A20FEF7C9FF1C48006850B96F
:10145000002023490870012010BD184800680128A9
:1014600001D11F4908700020F6E71E48008840B9E6
:101470001248006828B91C480088401C1A49088096
:1014800002E000201849088017480088C82807DDB6
:10149000012014490880002013490880012070476A
:1014A00010480088012802D100200E490880002041
:1014B000F5E700000010024000080140140121423D
:1014C000000021422C0000201404014032000020C2
:1014D0002D0000202E0000202F00002030000020D2
:1014E00034000020380000203600002010B5F148FC
:1014F000806940F00800EF4988610846806940F043
:1015000004008861EC48006820F0F000EA490860B7
:101510000846006840F080000860E7480C3000682A
:1015200040F00200E4490C310860E448006880B2F1
:10153000E249086008460068E1490843DF4908605D
:10154000DE480C30006840F47040DC490C31086023
:10155000022201210020FEF7B3FF03220C2101200B
:10156000FEF7AEFF03220D210120FEF7A9FF0322A3
:101570000E210120FEF7A4FF03220F210120FEF718
:101580009FFF0223072200210846FEF75FFF022388
:10159000282200210846FEF759FF10BD10B5C548A6
:1015A000806940F00400C3498861C348001D006899
:1015B00020F47020C049091D08600846006840F406
:1015C00000200860BC480C30006840F48050BA49E4
:1015D0000C310860B848006820F0F000B649086097
:1015E0000846006840F080000860B3480C3000688E
:1015F00040F00200B0490C31086002220C210020AA
:10160000FEF75EFF022201210020FEF759FF0223B0
:10161000282200210846FEF719FF02230722002195
:101620000846FEF713FF10BD10B5A648006800F489
:10163000805078B1A4480078A4490978884205D13F
:10164000A3488078012801D1A24908704FF4805046
:101650009C4908609B48006800F40050D8B19A4843
:1016600000789A490978884206D1994880780228FA
:1016700002D101209749087093480078042806D1C8
:1016800093488078022802D10120934908704FF4D2
:1016900000508C4908608B48006800F480400028A6
:1016A0003BD089480078042809D18C48007830B9AB
:1016B00087488078032802D10120894908701220C8
:1016C000FEF78CFE87480068012804D18648007820
:1016D000401C854908707C480078062808D17F485E
:1016E000007828B97F480068012801D17F49087037
:1016F0007548007868B97948007850B9744880789E
:10170000022806D17A480078042802D101207949BC
:1017100008704FF480406B4908606A48006800F424
:101720000040A8B36848007804280AD16B480078C4
:10173000022806D166488078042802D101206E492B
:1017400008706148007804280CD16448007848B9D2
:101750005F488078032805D1012061490870002086
:101760005B4988705848007801280DD15B480078A3
:1017700050B957488078022806D15D48007804287F
:1017800002D101205B4908704FF400404D490860C8
:1017900010BD08B51220FEF721FE58480068012848
:1017A00010D157480068401C554908600C2002239E
:1017B00000900846002102685A20FFF782FC0120B1
:1017C0005049086002203F49086008BD2DE9F041FA
:1017D0003F48007802283CD13D484078012838D164
:1017E0004048006810B93F48001D00683D48001D92
:1017F0000068012801D13B4800683A48001D006894
:1018000088B93848006801280DD13F48006806F0C3
:1018100033FD06463D4A3E4B06F044FC044606F0C6
:101820000BF8394908602F48001D0068012810D1C5
:101830002C48006868B93448006806F01DFD06466B
:10184000324A334B06F02AF8044605F0F5FF2E49DC
:1018500008601F480078012821D11D4840780428DD
:101860001DD120480838006810B91E48001F0068C4
:101870001C48001F0068012802D11A480838006877
:101880001848001F006810B9164808380068154845
:10189000001F0068012802D11248083800680C486F
:1018A000007828B900231A461946184600F0AAFA0B
:1018B000BDE8F0810010024000080140000C01402A
:1018C00000008888140401407E0000208100002070
:1018D0005000002041000020AF0000207F000020C9
:1018E000AD00002038812142A4000020A900002082
:1018F000AC000020AB000020AE000020040121421B
:1019000044000020480000208C0000207B14AE47DB
:10191000E17A943F3E49088000BF3D49091F09888C
:1019200001F040010029F8D070472DE9F05F05462D
:101930000E46300106F084FE8146364905FB01F073
:1019400006F07EFE8246494606F030FD07463846E0
:1019500006F03EFE84B2204606F072FE834639460B
:1019600006F0B3FF82464FF0834106F0B1FE814698
:1019700006F02EFE80464FF6FF7000EA041404EBDA
:10198000080084B22448806940F00400224988613C
:101990000846C06940F40030C8612048006820F45F
:1019A0007F401E4908600846006840F40B4008600C
:1019B0001A480C30006840F4806018490C31086007
:1019C0001548006940F48020134908610846006901
:1019D00020F48020086112480480001D008842F233
:1019E0000C0108430E49091D08800846008840F490
:1019F000807008800846008840F02000088002239C
:101A0000262201210020FEF721FDBDE8F09F000005
:101A10000438014040420F0000100240000801401D
:101A200008440040B048806940F01400AE49886125
:101A3000AE48006820F00F00AC4908600846006816
:101A400040F003000860AA48006820F07F40A849E1
:101A500008600846006840F04C500860081D0068A7
:101A600020F0FF00091D08600846006840F03300C0
:101A70000860A0484068C0F313009E4948600846CB
:101A800040689D4908439B494860704701209B4935
:101A9000086000209A49C1F8A40101209949086012
:101AA0000020091D086001209449091F08600020DA
:101AB000091F0860012093490831086000209249FD
:101AC000C1F88001704701208C49091D0860002081
:101AD0008B49C1F8A00101208A4908600020091D36
:101AE000086001208549091F08600020091F08605F
:101AF00001208649086000208549C1F8BC01704773
:101B000001207E49086000207D49C1F8A401012020
:101B10007C49091D08600020091F086001207749E1
:101B2000083908600020091D086001207549083146
:101B3000086000207449C1F88001704701206F4996
:101B4000091D086000206E49C1F8A00101206D49FF
:101B5000091D08600020091F086001206749083935
:101B600008600020091D0860012068490860002005
:101B70006749C1F8BC01704701206049091D086030
:101B800000205F49C1F8A00101205E49091D0860DD
:101B90000020091F086001205849091F0860002023
:101BA000091F086001205749083108600020564984
:101BB000C1F8800170470120504908600020504959
:101BC000C1F8A40101204F4908600020091D0860E8
:101BD00001204A49083908600020091D08600120D9
:101BE0004A49086000204A49C1F8BC01704770B5F5
:101BF00048484078012817D1FFF748FF464C246831
:101C0000464D2D686319444C2468444D2D68621B71
:101C1000414C2468414D2D6861193F4C24683F4D6B
:101C20002D68601B00F0EEF83A484078022817D182
:101C3000FFF784FF384C2468384D2D68631B364C01
:101C40002468364D2D686219334C2468334D2D6855
:101C5000611B314C2468314D2D68601900F0D2F8B9
:101C60002C484078032817D1FFF7A5FF2A4C246899
:101C70002A4D2D686319284C2468284D2D68621957
:101C8000254C2468254D2D68611B234C2468234D69
:101C90002D68601B00F0B6F81E484078042817D164
:101CA000FFF76AFF1C4C24681C4D2D68631B1A4CFF
:101CB00024681A4D2D68621B174C2468174D2D6837
:101CC0006119154C2468154D2D68601900F09AF8BB
:101CD0001048407828B900231A461946184600F0E3
:101CE00091F870BD704700000010024000080140EC
:101CF000000C01400010014000003033A08121425F
:101D000000802142B4012242000021428001214290
:101D100000002242500000204C00002094000020CF
:101D20004E4AD26942F002024C4BDA611A4692697D
:101D300042F00C029A614A4A126822F07F42484BF4
:101D40001A601A46126842F03B421A60454A12680D
:101D500022F0FF02434B1A601A46126842F0BB029F
:101D60001A60414B18801B1F19803F4A143A128891
:101D700042F060023C4B143B1A801A46128842F42F
:101D8000C0421A801A1D128842F060021B1D1A8080
:101D90001A46128842F4C0421A801A1F128842F072
:101DA00008021B1F1A801A46128842F400621A8029
:101DB0001A1D128842F008021B1D1A801A4612884A
:101DC00042F400621A801A1D128842F001021B1DA3
:101DD0001A801A46128842F010021A801A46128897
:101DE00042F480721A801A46128842F480521A8095
:101DF00080221D4B2C3B1A801A46128842F00102A9
:101E00001A80704730B5B0F5E16F01DD4FF4E16045
:101E1000002800DA0020B1F5E16F01DD4FF4E16147
:101E2000002900DA0021B2F5E16F01DD4FF4E16233
:101E3000002A00DA0022B3F5E16F01DD4FF4E1631F
:101E4000002B00DA0023084D08352A802D1D2B8039
:101E50002D1D29802D1D288030BD0000001002405E
:101E600000080140000C01402C04004070B50546FC
:101E70000C46FEF742FD8020FEF7FEFDFEF78BFDCF
:101E80002846FEF7F9FDFEF786FD2046FEF7F4FD35
:101E9000FEF781FDFEF75FFD70BD70B50446FEF7ED
:101EA0002CFD8020FEF7E8FDFEF775FD2046FEF7CD
:101EB000E3FDFEF770FDFEF720FD8120FEF7DCFD5F
:101EC000FEF769FD0020FEF734FE0546FEF743FDF0
:101ED000284670BD10B500210846FFF7C7FF10BDAA
:101EE0002DE9FC5F8346584606F0C6F98046934AC2
:101EF000934B05F097FF064605F09EFC83460024B1
:101F0000904D0022904B2046294605F083FD044663
:101F10000D46584606F0B0F9064632460B462046B6
:101F2000294605F077FD04460D460022874B2046E2
:101F3000294606F0B7F804460D460022844B204699
:101F4000294605F0ABFC064605F008FC804605F086
:101F5000E9FEC0B201900020FFF79FFF82460AF021
:101F60007F0040F01000009000200099FFF77EFFF6
:101F7000FE200199FFF77AFF51460020FFF776FF18
:101F80000220FEF72BFA4AF0A1010020FFF76EFFB6
:101F9000BDE8FC9F70B504460D461646E9B2A200A6
:101FA000921DD0B2FFF762FFA100C91DC8B2C5F3F0
:101FB0000721FFF75BFFF1B2A2000832D0B2FFF7B2
:101FC00055FFA1000931C8B2C6F30721FFF74EFF44
:101FD00070BD70B505460C46FEF78FFC8220FEF7FB
:101FE0004BFDFEF7D8FC2846FEF746FDFEF7D3FC76
:101FF0002046FEF741FDFEF7CEFCFEF7ACFC70BDBF
:1020000070B50446FEF779FC8220FEF735FDFEF739
:10201000C2FC2046FEF730FDFEF7BDFCFEF76DFC6E
:102020008320FEF729FDFEF7B6FC0020FEF781FDB8
:102030000546FEF790FC284670BD10B5FEF748FC3B
:1020400000210846FFF7C5FF10BD2DE9FC5F834660
:10205000584606F011F98046384A394B05F0E2FE41
:10206000064605F0E9FB83460024364D0022364B38
:102070002046294605F0CEFC04460D46584606F09B
:10208000FBF8064632460B462046294605F0C2FCC0
:1020900004460D4600222D4B2046294606F002F844
:1020A00004460D4600222A4B2046294605F0F6FB41
:1020B000064605F053FB804605F034FEC0B20190A1
:1020C0000020FFF79DFF82460AF07F0040F01000DD
:1020D000009000200099FFF77CFFFE200199FFF798
:1020E00078FF51460020FFF774FF0220FEF776F9D3
:1020F0004AF0A1010020FFF76CFFBDE8FC9F70B51E
:1021000004460D461646E9B2A200921DD0B2FFF772
:1021100060FFA100C91DC8B2C5F30721FFF759FF31
:10212000F1B2A2000832D0B2FFF753FFA10009318B
:10213000C8B2C6F30721FFF74CFF70BD713D0AD747
:10214000A370ED3F84D777410000B0400000F03F1E
:102150000000E03F704770472DE9F04104462046FB
:1021600006F056FA0746FE4906F0B2FA0646FD4961
:1021700006F0AEF8054606F00FFABDE8F0812DE94D
:10218000F0478246504605F0FAFD8046F64AF74B86
:1021900005F048FE06460022F54B05F07FFB04469D
:1021A00005F090FDBDE8F0872DE9FC5F82460E4604
:1021B00017461D46DDF830B0002400200190ABEB3F
:1021C000050800F054FB81463BE0EA480068A0EBBC
:1021D0000900B84213DD012E11D12819FFF7CFFFF6
:1021E0000246002100905046FFF7D4FEB8F1000FE0
:1021F00001DD641C00E0641EDE48D0F80090DD487C
:102200000068A0EB0900B8421BDD022E19D10C209A
:1022100003232246282100900020FEF752FF2819B0
:10222000FFF79AFF0246002100905046FFF7B2FEEA
:10223000B8F1000F01DD641C00E0641ECD48D0F849
:102240000090A045C1D1BDE8FC9F38B5142000F036
:102250006AFD5F20FFF780FF044622460021084602
:10226000FFF798FE0520FFF777FF0446224600217E
:102270000420FFF78FFE96201423012202210090F4
:102280000820FFF791FF502000F04DFD5A20FFF786
:1022900063FF0446224600210C20FFF77BFE5020FE
:1022A00000F041FD0320B4498870282000F03BFD78
:1022B0000020B1498870142082230122022100905D
:1022C0000820FFF771FF38BD38B5142000F02BFD52
:1022D000A020FFF741FF0446224600210846FFF7F1
:1022E00059FE0520FFF738FF04462246002104204E
:1022F000FFF750FE962014230122022100900820AF
:10230000FFF752FF502000F00EFD6420FFF724FF7E
:102310000446224600210C20FFF73CFE502000F02E
:1023200002FD032094498870282000F0FCFC002066
:1023300091498870142082230122022100900820F4
:10234000FFF732FF38BD38B53220FFF705FF0446EE
:10235000224600210846FFF71DFE0520FFF7FCFE80
:102360000446224600210420FFF714FE9620142381
:102370000122022100900820FFF716FF502000F0F4
:10238000D2FC6420FFF7E8FE0446224600210C2020
:10239000FFF700FE502000F0C6FC0320764988704D
:1023A000282000F0C0FC002073498870142082238C
:1023B0000122022100900820FFF7F6FE38BD38B553
:1023C0003720FFF7C9FE0446224600210846FFF7E2
:1023D000E1FD142000F0A7FC3C20FFF7BDFE044601
:1023E000224600210846FFF7D5FD3C20FFF7B4FE4A
:1023F0000446224600210820FFF7CCFD142000F0FF
:1024000092FC5A20FFF7A8FE0446224600210C2029
:10241000FFF7C0FD142000F086FC55202323012285
:10242000022100900420FFF7BFFE38BD38B57D20A3
:10243000FFF792FE0446224600210846FFF7AAFD58
:10244000142000F070FC7D20FFF786FE0446224633
:1024500000210846FFF79EFD3C20FFF77DFE044665
:10246000224600210820FFF795FD142000F05BFCB8
:102470005A20FFF771FE0446224600210C20FFF788
:1024800089FD142000F04FFC57202323022211461F
:1024900000900420FFF788FE38BD38B55F20FFF7B5
:1024A0005BFE0446224600210846FFF773FD142018
:1024B00000F039FC5F20FFF74FFE04462246002162
:1024C0000846FFF767FD3220FFF746FE0446224626
:1024D00000210820FFF75EFD142000F024FC5A20A4
:1024E000FFF73AFE0446224600210C20FFF752FD7A
:1024F000142000F018FC492023230122022100901F
:102500000420FFF751FE38BD38B504461CBB14202B
:10251000FFF722FE05462A4600210846FFF73AFD4E
:102520000A20FFF719FE05462A4600210420FFF77E
:1025300031FD1920FFF710FE05462A46002108202C
:10254000FFF728FD5020FFF707FE05462A46002129
:102550000C20FFF71FFD012C30D13C200EE00000C5
:1025600075E5C13F0000CC4282035ABA822D024079
:10257000008059407000002050000020FFF7ECFD63
:1025800005462A4600210846FFF704FD14203C2397
:102590000122022100900020FFF706FE0A205523A9
:1025A0000122022100900420FFF7FEFD19204123A3
:1025B0000122022100900820FFF7F6FD022C20D115
:1025C0005020FFF7C9FD05462A4600210846FFF7BF
:1025D000E1FC142050230122022100900020FFF78B
:1025E000E3FD0A2069230122022100900420FFF765
:1025F000DBFD192050230122022100900820FFF763
:10260000D3FD032C18D11420FFF7A6FD05462A465A
:1026100000210846FFF7BEFC0A20642301220221A4
:1026200000900420FFF7C0FD19204B230122022156
:1026300000900820FFF7B8FD38BD70B504466E481D
:102640000088642190FBF1F0A0422FD17D20FFF79C
:1026500083FD05462A4600210846FFF79BFC2820FB
:1026600000F061FB1E20FFF777FD05462A4600219A
:102670000820FFF78FFC282000F055FB1E20FFF7F5
:102680006BFD05462A4600210420FFF783FC282025
:1026900000F049FB5A20FFF75FFD05462A4600215E
:1026A0000C20FFF777FC282000F03DFB5248008803
:1026B0000A2190FBF1F090FBF1F201FB1200A04225
:1026C0002FD15F20FFF748FD05462A460021084626
:1026D000FFF760FC282000F026FB1E20FFF73CFDE2
:1026E00005462A4600210820FFF754FC282000F068
:1026F0001AFB1E20FFF730FD05462A460021042064
:10270000FFF748FC282000F00EFB5A20FFF724FDBD
:1027100005462A4600210C20FFF73CFC282000F04B
:1027200002FB354800880A2190FBF1F090FBF1F2A2
:1027300001FB1200A0422FD14320FFF70DFD0546FB
:102740002A4600210846FFF725FC282000F0EBFA76
:102750001E20FFF701FD05462A4600210820FFF74D
:1027600019FC282000F0DFFA1E20FFF7F5FC0546D3
:102770002A4600210420FFF70DFC282000F0D3FAA0
:102780005A20FFF7E9FC05462A4600210C20FFF7F6
:1027900001FC282000F0C7FA70BD38B5962000F083
:1027A000C2FA9620FFF7D8FC0446224600210C20EE
:1027B000FFF7F0FB962000F0B6FA1E203C23012222
:1027C000022100900420FFF7EFFC322000F0ABFA6A
:1027D0001E20FFF7C1FC0446224600210820FFF717
:1027E000D9FB38BD10B50446142000F09CFA2046F1
:1027F00000F08AF810BD000068000020014607299B
:1028000013D2DFE801F0120406080A0C0F007B2047
:102810000BE0842009E0D52007E0E72005E04FF435
:102820009C7002E040F2411000BF00BF704700B54D
:1028300090480078012819D100208E4908708E48F0
:1028400080788E4908708C48C0788D490870084699
:102850000078FFF7D3FF8B49088088480078FFF79E
:10286000CDFF8949088001208849087000BD88484B
:102870000068401C8649086008460068704710B52B
:102880008448008800F0200000283CD08148001DCA
:102890000088C4B2FFF7EBFF7F49086076487F49A4
:1028A000097844547D48007830B9734800785A2834
:1028B00002D000207949087078480078012806D1B4
:1028C0006D484078A52802D00020744908707348EC
:1028D0000078401C7149087008460078042804D12B
:1028E00000200870012063490870FFF7A0FF6A48C4
:1028F00000686B49086001206A4908706AA20A21D1
:102900005020FEF728FC10BD10B504465D48008835
:10291000642190FBF1F0A0420BD164A2372100208A
:10292000FEF719FCFFF782FD282000F0FCF9FFF705
:1029300034FF544800880A2190FBF1F090FBF1F23B
:1029400001FB1200A0420BD159A237210020FEF753
:1029500002FCFFF7A2FD282000F0E5F9FFF71DFFBC
:10296000484800880A2190FBF1F201FB1200A042C6
:102970000BD150A237210020FEF7EDFBFFF71FFD22
:10298000282000F0D0F9FFF708FF10BD10B504466D
:10299000012C01D1FFF7D7FC022C01D1FFF755FC28
:1029A000032C01D1FFF790FC10BD10B5FFF75FFFBE
:1029B0003B490968401A502807D900203949087056
:1029C0003DA20A215A20FEF7C6FB10BD3B4B1B88D7
:1029D000C3F1A000002801DB034600E043421A4691
:1029E0003748006800FB02F109B10846704700BF94
:1029F000FCE700B52B480078012817D1FFF7E6FF68
:102A0000304908602D480088A02803DD02202E49A7
:102A1000887012E029480088A02803DA01202A499A
:102A200088700AE000202849887006E04FF448705A
:102A30002449086000202449887000BD234880692B
:102A400040F00800214988612148006820F4706046
:102A50001F4908600846006840F4407008601C4840
:102A60000C3000681A490C31086070470120194980
:102A70000860704765000020610000206A000020A7
:102A80006E00002068000020660000206F0000201B
:102A9000700000200044004058000020600000202A
:102AA0005C00002054000020590000006C00000071
:102AB0006D000000720000004E0000006C0000205D
:102AC000740000204C000020500000200010024044
:102AD000000C014088812142FE480068012858D13D
:102AE000FD490870FD480078372852D10020FB4985
:102AF0000870F8490860FA48006801280DD1F948C3
:102B00004078012809D1F8480078401CF64908703F
:102B10000020F3490860F0490870F1480068012876
:102B20000DD1F0484078022809D1EF480078401EC6
:102B3000ED4908700020EA490860E7490870E84854
:102B4000006802280DD1E7484078042809D1E748F9
:102B50000078401CE54908700020E1490860DE4922
:102B60000870DF48006802280ED1DE48407803284C
:102B70000AD1DE480078401EDC4908700020D849A0
:102B80000860D549087004E00020D5490860D249A2
:102B90000870D1480078012804D1D0480078401C42
:102BA000CE49087070472DE9F05F04460D4629466E
:102BB000204605F08AFE064605F0EEFCCC4908608A
:102BC00008460068192801DD23200860C84800680D
:102BD00010F1230F03DA6FF01800C5490860C448EC
:102BE000006805F015FD8346C2480168584605F0A7
:102BF0006FFD8046BE490968BF4A1268881A05F011
:102C000007FD8346BD480168584605F061FD8146D1
:102C1000414605F05DFB0746B948006805F0F8FC41
:102C20008246394605F054FB064605F0B5FCB4492A
:102C30000860AF480068B0490860B1480068BDE866
:102C4000F09FA8488078012804D10220A549087087
:102C500001204870A3488078022802D1A149087059
:102C60004870A0488078032804D101209D4908704D
:102C7000032048709B488078042804D1012099499A
:102C80000870042048709748807818B9002095494A
:102C900008704870704710B59A48008800F001002D
:102CA00000283FD098480068401C97490860954824
:102CB000008820F001009349088003F005FF00BF61
:102CC000FFF7D5FD9048006841F27C5190FBF1F28E
:102CD00001FB120020B98D480068401C8B49086038
:102CE00089480068C82809D189480068894908606E
:102CF0000120894908700020FFF706FC864800780B
:102D000001280FD1FFF79DFF8248016880480068C5
:102D1000FFF749FF81490860FEF769FFFEF756FD9E
:102D2000FFF7DAFE10BD70B50446FFF7A0FD0546BB
:102D300000BF7B480068401BA042FADB70BD10B5A5
:102D40007848007810B90420664988707648007881
:102D5000022811DD7348007870B9012071490870AC
:102D60000320604988706420FDF738FB00205D492E
:102D700088706420FDF732FB6A480078012804D18E
:102D8000584988700220674908705748007806281B
:102D900005D16648007810B902205249887064480D
:102DA0000078012810D14F498870C820FDF716FB24
:102DB00000204C498870C820FDF710FB01205B49BA
:102DC000087002205A49087058480078012831D10B
:102DD0005848007848B94FF42F7057490860574851
:102DE0004C49086003203F49887052480078012808
:102DF00008D104203B4988706420FDF7EFFA0220D7
:102E00004C4908704B480078022813D14B4841497F
:102E1000086002203349887033480078052803DAB7
:102E20004FF496604449086001204549087003202A
:102E30003E49087010BD10B542480078002847D1BF
:102E40003848007810B90420264988703648007840
:102E500002280BDD3348007840B901203149087061
:102E60000020204988701420FFF75DFF2D4800786E
:102E7000012804D11B49887002202A4908701A4889
:102E80000078022801D1FFF7F1FD174800780328E8
:102E900003D14FF461702849086013480078042872
:102EA00008D12248007828B95020FFF73CFF0020C5
:102EB0000C49887024480078012806D11B49087005
:102EC00000202249087020490870184800783FE027
:102ED0005AE0000048000020800000207D00002013
:102EE00044000020500000207E0000207F000020D1
:102EF000B400002088000020BC00002084000020D6
:102F0000B8000020102C0140980000209C000020F8
:102F1000580100208C000020830000209400002035
:102F200070000020A5000020A4000020A6000020C2
:102F3000A7000020A90000204C000020000034431E
:102F4000A8000020AA000020190000206F00002027
:102F5000012819D1FE48006805F05AFBFD490860B8
:102F60000320FD49887040F21450FC49086001209C
:102F7000FB4908700320FB490870FB480068FFF715
:102F80005CFB0120F949087010BD10B5F8480078C5
:102F900001287DD1F248007801287DD1F5480078DC
:102FA00001280FD13220FFF7BEFE0020EA498870C9
:102FB000ED480068FFF716FC0020EE49087003207A
:102FC000ED490870EC480078032811D14FF4966061
:102FD000E24908603220FFF7A6FEE848006805F0E5
:102FE00017FBDC4908600420DB498870E24908705F
:102FF000E3480078012825D1DB480068022821D069
:10300000DD48007804281DD10320D3498870322080
:10301000FFF789FE0020D04988703220FFF783FE39
:10302000D1480068FFF7B2FC3220FFF77CFE002099
:10303000D3490870CE480078401CCD490870002064
:10304000CD490870C8480068022825D1CA480078D0
:10305000042821D1CB48007804281DD1CA48007823
:10306000022819D10020BC4988703220FFF75BFE8E
:10307000BD480068FFF78AFC3220FFF754FE0020AD
:10308000BF490870BA480078401CB949087000E090
:1030900002E00020B8490870B548007802287CD1C9
:1030A000B548007898B9B548006805F0B1FAA94963
:1030B00008600320A849887040F2E240A7490860F0
:1030C000B2480068FFF7B9FA0120AB490870A94877
:1030D0000078012813D1A848007801280FD13220A8
:1030E000FFF721FE00209C498870A8480068FFF780
:1030F00079FB00209F49087002209F4908709E4874
:10310000007802280FD14FF49660944908609B48DC
:10311000006805F07DFA8F49086004208E498870A8
:1031200003209549087096480078012819D19748DE
:103130000068022815D090480078032811D100209B
:103140008549887091480068FFF720FC00208C4971
:10315000087087480078401C85490870002086491F
:1031600008708A480068022825D18348007803281F
:1031700021D18448007804281DD183480078022892
:1031800019D10020744988703220FFF7CCFD7F48A8
:103190000068FFF7FBFB322000E00CE0FFF7C3FD07
:1031A00000207749087072480078401C7049087008
:1031B0000020714908706E48007803287ED16E485F
:1031C000007898B96D48006805F022FA61490860F6
:1031D00003206149887040F2E240604908606C4811
:1031E0000068FFF72AFA01206349087061480078F7
:1031F000012813D16048007801280FD13220FFF751
:1032000092FD00205449887061480068FFF7EAFA8F
:103210000020584908700220574908705648007825
:1032200002280FD14FF496604C490860534800685B
:1032300005F0EEF9474908600420474988700320EB
:103240004D4908704E48007801281CD1504800684C
:10325000022818D048480078032814D100203E499D
:1032600088703C20FFF75FFD49480068FFF78EFB40
:103270000020434908703E480078401C3C490870D3
:1032800000203D49087042480068022825D13A488C
:103290000078032821D13B48007804281DD13A4802
:1032A0000078022819D100202B4988703220FFF7BE
:1032B0003AFD37480068FFF769FB00E00DE0322077
:1032C000FFF731FD00202E49087029480078401C86
:1032D00027490870002028490870254800780428EC
:1032E0007ED12548007888B92448006805F090F917
:1032F0001849086003201849887040F2E2401749D5
:10330000086001201C490870FDF747FF1948007844
:1033100001280FD11948006805F07AF90D490860B5
:1033200002200D49887040F24C400C490860002092
:103330001049087013480078012807D106488078A2
:10334000022803D14FF4487004490860114823E073
:10335000A00000208C000020500000204C00002025
:10336000A8000020A60000201C000020AA000020C9
:10337000AC000020AD000020AF0000209C00002029
:10338000AE0000207E0000207F00002020000020F2
:1033900024000020AB000020007801281CD164200C
:1033A000FFF7C1FC0020CC4988700A20FFF7BBFC66
:1033B000CA48006805F02CF9C94908600320C649CD
:1033C000887040F21450C74908604FF49670FFF7B8
:1033D000AAFC0220C4490870C3480078022800E013
:1033E00003E002D10020BC49887010BDBF4A1278AA
:1033F000904205DDBE4A127812B90122B64B9A708E
:10340000BB4A1278012A0DD1B34A9278012A09D118
:10341000B84A1278914205DDB74A127812B90422EF
:10342000AD4B9A70B34A12788A4202D10022B04B57
:103430001A70B14A1278012A0CD1A74A9278042A4C
:1034400008D10022A44B9A700122AC4B1A700022C2
:10345000A94B1A70A54A1278904205DAA44A12784C
:1034600012B902229C4B9A70A14A1278012A0DD1FE
:10347000994A9278022A09D19E4A1278914205DA35
:103480009D4A127812B90322934B9A70994A127886
:103490008A4202D10022964B1A70974A1278012A6A
:1034A0000CD18D4A9278032A08D100228A4B9A7057
:1034B0000122924B1A7000228F4B1A708F4A127899
:1034C000012A20D1844A9278EAB98D4A1278874B32
:1034D0001B789A4208D18A4A5278864B1B789A42C6
:1034E00002D10122874B1A70874A12787F4B1B78D2
:1034F0009A4208D1844A52787E4B1B789A4202D174
:103500000122824B1A70704700B57E48007860B97E
:103510007B4800787E490870794840787D4908707A
:10352000774A51781078FFF761FF764800780128D4
:103530000CD1754800787649087073484078754911
:103540000870714A51781078FFF750FF6F48007883
:10355000012802D100206049887000BD2DE9F047A4
:1035600088B00546012D7DD04621D020FDF74EFBC9
:1035700080464521D020FDF749FB08EB002738465F
:1035800005F046F804464021D020FDF73FFB804679
:103590003F21D020FDF73AFB08EB0027384605F025
:1035A00037F882463C21D020FDF730FB80463B2196
:1035B000D020FDF72BFB08EB0027384605F028F854
:1035C00081464FF08E41204605F04EF905D24FF06E
:1035D0008F41204605F084F904464FF08E41504655
:1035E00005F042F905D24FF08F41504605F078F9C9
:1035F00082464FF08E41484605F036F905D24FF02D
:103600008F41484605F06CF98146504604F034FE7F
:1036100007468846484604F02FFE3A464346CDE921
:10362000000103F0DBFF00223B4BCDE9020104F077
:10363000F9FB3A4A3A4BCDE9040104F0EBF9CDE944
:10364000060104F0F9F80646204604F015FE4FF096
:103650006632344BCDE9060104F0DCF9074604F08C
:10366000EBF800E019E004462F480078022806D164
:1036700084F000473946304602F064FE09E02A48EB
:103680000078032805D184F000473946304602F01F
:1036900070FF264800682649086008B0BDE8F0873A
:1036A000244825490860002024490860244908600E
:1036B0000B49086008490870087005201049087017
:1036C00001204870032010490870002048701049FC
:1036D0000870104908707047500000209C000020BE
:1036E0008C0000204C000020AB0000207E00002059
:1036F000410000207F00002042000020B000002098
:1037000078000020B10000207A000020B2000020E4
:10371000810000208200002000806640F1D4C85360
:10372000FB2109406666304000000020F0000020C8
:1037300004000020000020428400002088000020B7
:103740005801002038B50446FB4890F82400C0B169
:1037500014B10220009001E000200090F64A1268A7
:10376000D17BF54A526810786B460122FDF7B1F91A
:1037700010B14FF0FF3038BD9DF80010EE48417495
:1037800023E0ED48807A10B94FF0FF30F3E724B121
:10379000E948407C08B10020EDE714B10120009019
:1037A00001E000200090E44A1268D17BE24A5268AE
:1037B00010786B460122FDF78CF910B14FF0FF3005
:1037C000D9E79DF80010DC4841740020D3E738B5F4
:1037D000002419E0D8480068C07AA04204D0D64836
:1037E0000068407DA04200D10CE0D34949680878C8
:1037F0006B4601222146FDF7CEF910B14FF0FF30A4
:1038000038BD00BF601CC4B2CB4840680079A042FC
:10381000E0DC0020F4E770B504460D46C6480068B9
:10382000C07AA04204D0C4480068407DA04202D1C2
:103830004FF0FF3070BDC04840680079A04202DC04
:103840004FF0FF30F6E7BC49496808782B46012263
:103850002146FDF7A0F9EDE738B50446B64890F8E3
:103860002300A04201D1002038BD14B130200090C7
:1038700001E000200090B048807C20B19DF800005D
:1038800040F002000090AC4890F8220020B19DF872
:10389000000040F080000090A74A1268117DA64AFF
:1038A000526810786B460122FDF713F910B14FF002
:1038B000FF30D9E7A04880F823400020D4E738B58E
:1038C000044604F0700010B10120009005E014B12E
:1038D0000020009001E040200090974A1268917CFF
:1038E000954A526810786B460122FDF7F2F820B134
:1038F000002191488172481E38BD9DF8000020F0DB
:1039000040018D4801730020009004F0400020B970
:103910009DF8000040F00400009004F0200020B961
:103920009DF8000040F00200009004F0100020B963
:103930009DF8000040F00100009004F0080020B95C
:103940009DF8000040F0380000907B4A1268D17C5E
:10395000794A526810786B460122FDF7BAF820B117
:10396000002175488172481EC6E724B1082C02D098
:103970000020FFF771FF704884720021017532202A
:10398000FCF72CFD0020B7E738B504466A48807C78
:10399000A04201D1002038BD002C46D0664A1268F2
:1039A0001179654A526810786B460122FDF7F3F8E9
:1039B00010B14FF0FF30EEE79DF8000020F020003E
:1039C00000905D4A126811795B4A526810786B4624
:1039D0000122FDF77EF810B14FF0FF30DBE7032046
:1039E000FCF7FCFC02200090534890F8220020B124
:1039F0009DF8000040F0800000904F4890F82300B0
:103A000020B19DF8000040F0300000904A4A126852
:103A1000117D494A526810786B460122FDF759F82A
:103A2000002851D04FF0FF30B5E7434A12681179B2
:103A3000414A526810786B460122FDF7ACF810B18C
:103A40004FF0FF30A7E73C48807A00F0010028B132
:103A50009DF8000040F02000009004E09DF8000078
:103A600020F020000090344A12681179324A5268DE
:103A700010786B460122FDF72CF810B14FF0FF30A3
:103A800089E70320FCF7AAFC2B4890F8220010B12C
:103A90008020009001E000200090274890F823004B
:103AA00020B19DF8000040F030000090224A1268DA
:103AB000117D214A526810786B460122FDF709F802
:103AC00010B14FF0FF3066E71B488474002062E7B6
:103AD00008B51948807A10B94FF0FF3008BD0020B2
:103AE0000090154A1268D17B134A526810786B46D1
:103AF0000122FCF7EEFF10B14FF0FF30EEE70E4A67
:103B0000126851790C4A526810786B460122FCF712
:103B1000E0FF10B14FF0FF30E0E7074A126811797B
:103B2000054A526810786B460122FCF7D2FF28B193
:103B30004FF0FF30D2E70000C0000020F74890F8B7
:103B40002400002850D00C200090F44A126811790B
:103B5000F24A526810786B460122FCF7BAFF10B1A6
:103B60004FF0FF30BAE7C0200090EC48807A00F0B8
:103B7000010020B19DF8000040F020000090E74ACD
:103B800012681179E54A526810786B460122FCF7F9
:103B9000A0FF10B14FF0FF30A0E7E048407C10B12B
:103BA0000220009001E000200090DC4A1268D17BE6
:103BB000DA4A526810786B460122FCF78AFF10B18E
:103BC0004FF0FF308AE700200090D44A1268517904
:103BD000D24A526810786B460122FCF77AFF00281F
:103BE00052D04FF0FF3079E704200090CB4A1268A2
:103BF0001179CA4A526810786B460122FCF769FFB6
:103C000010B14FF0FF3069E7C448807C20B9C34849
:103C1000807A00F0010010B94020009001E060209F
:103C20000090BE4A12681179BC4A526810786B46FF
:103C30000122FCF74EFF10B14FF0FF304EE7B748BE
:103C4000407C10B10120009001E000200090B34AB8
:103C50001268D17BB14A526810786B460122FCF79A
:103C600038FF10B14FF0FF3038E7AC4A1268517995
:103C7000AA4A52681078A94B10330122FCF729FF99
:103C800010B14FF0FF3029E7002027E770B5044658
:103C9000002624F00104A14890F8240008B1002077
:103CA00070BD9E48807A10B94FF0FF30F8E79B480E
:103CB000057C807A2040994908740846007CA0421F
:103CC00002D04FF0FF3600E0002614B99348007D83
:103CD00018B10120FFF736FD02E00020FFF732FDAA
:103CE0003CB1FFF7F5FE20B18C4805744FF0FF3072
:103CF000D6E73046D4E738B504468848807A10B90C
:103D00004FF0FF3038BDBC2C02DB0120009015E0E5
:103D1000622C02DB0220009010E02A2C02DB032040
:103D200000900BE0142C02DB0420009006E00A2C2B
:103D300002DB0520009001E0062000907748C07A61
:103D40009DF80010884201D10020DBE7734A126819
:103D50009178724A526810786B460122FCF7B9FEDE
:103D600010B14FF0FF30CDE79DF800106B48C172E5
:103D70000020C7E738B50446282C02DD4FF0FF309D
:103D800038BDDCB90020FFF767FD00208DF800008A
:103D900007208DF80100614A1268917C5F4A5268E1
:103DA00010786B460222FCF794FE10B14FF0FF3002
:103DB000E6E70021594801750020E1E70120FFF7FF
:103DC0004BFD20208DF80000012C06D100208DF83D
:103DD00001000520FFF78FFF17E0052C06DC01200E
:103DE0008DF801000520FFF786FF0EE0142C06DC9D
:103DF00002208DF801000A20FFF77DFF05E0032077
:103E00008DF801001420FFF776FF9DF801000721CF
:103E100001EB8010C0B28DF80100404A1268917C1D
:103E20003E4A526810786B460222FCF752FE10B1EF
:103E30004FF0FF30A4E70821384881720021017358
:103E4000012101750020FFF721FF002098E738B518
:103E500004463248807A10B94FF0FF3038BD2F4801
:103E600090F8240010B14FF0FF30F7E72B48007DA9
:103E700050B134B1282C04DCE0B2FFF77BFF002006
:103E8000ECE70020FFF776FF042C01DA042404E0BD
:103E9000B4F57A7F01DD4FF47A744FF47A7090FBB9
:103EA000F4F0401EC0B200901C4A126851781B4AC0
:103EB000526810786B460122FCF70BFE10B14FF0F0
:103EC000FF30CBE79DF80000401C4FF47A7191FB66
:103ED000F0F081B21148C1810146C9894810FFF74D
:103EE0000AFF0020BAE738B504460C48807A10B9BA
:103EF0004FF0FF3038BD022C06D0042C07D0082C20
:103F000008D0102C0FD10BE0002000900EE008200C
:103F100000900BE01020009008E00000C00000209E
:103F20001820009002E04FF0FF30E3E700BFF948AF
:103F3000407A9DF80010B0EBE10F01D10020D9E7E5
:103F4000F44A1268D179F34A526810786B4601221C
:103F5000FCF7BFFD10B14FF0FF30CBE79DF800003C
:103F6000C110EC4841720020C4E738B50446E94866
:103F7000807A10B94FF0FF3038BDFA2C09D0B4F573
:103F8000FA7F09D0B4F57A7F09D0B4F5FA6F0CD175
:103F900008E0002000900BE00820009008E01020CE
:103FA000009005E01820009002E04FF0FF30E3E7BA
:103FB00000BFD848007A9DF80010B0EBE10F01D1A6
:103FC0000020D9E7D34A12689179D24A5268107812
:103FD0006B460122FCF77DFD10B14FF0FF30CBE7BF
:103FE0009DF80000C010CB4908720020C4E71CB542
:103FF00080208DF80000C74A1268917CC54A52683B
:1040000010786B460122FCF764FD10B14FF0FF30D1
:104010001CBD6420FCF7E2F900208DF80000BD4AC9
:104020001268917CBB4A526810786B460122FCF7FB
:1040300050FD10B14FF0FF30EAE7B64A1268917DAB
:10404000B44A526810786B460622FCF7A4FD10B102
:104050004FF0FF30DCE79DF80500C007400F9DF8EA
:10406000031001F0010140EA41009DF8011001F048
:10407000010140EA010494B1012C03D10121A548BA
:10408000C17431E0022C03D10021A248C1742BE09D
:104090002146A1A002F0EEFE4FF0FF30B8E79D4AA6
:1040A0001268D1789B4A526810786B460122FCF75F
:1040B00072FD10B14FF0FF30AAE79DF8000000F04C
:1040C0000F042CB99E4802F0D5FE4FF0FF309FE759
:1040D000042C06D19BA002F0CDFE01218D48C174B5
:1040E00002E000218B48C174FF218A488172FF20C1
:1040F00088490872FF2187484172C1724FF6FF71EB
:10410000C181FF21017481740121017380F82210A3
:10411000002180F82310417501751630016041605F
:104120008160163880F8241080F82510C1844FF47F
:10413000FA60FFF71AFF10B14FF0FF3068E7022076
:10414000FFF7D1FE10B14FF0FF3061E72A20FFF7F3
:10415000D2FD10B14FF0FF305AE73220FFF777FE63
:1041600010B14FF0FF3053E70020FFF78FFD10B183
:104170004FF0FF304CE70020FFF706FC10B14FF086
:10418000FF3045E70020FFF79AFB002040E770472B
:104190007CB504460D465F48807A00F0700010B987
:1041A0004FF0FF307CBD5B4A1268117B594A526860
:1041B00010786B460622FCF7EEFC10B14FF0FF3092
:1041C000F0E79DF801009DF8001040EA012000B2E0
:1041D00020809DF803009DF8021040EA012000B203
:1041E00060809DF805009DF8041040EA012000B2AF
:1041F000A08015B12846FFF7CAFF0020D2E77CB5A2
:1042000004460D464348807A00F0080010B94FF08C
:10421000FF307CBD3F4A1268517B3E4A526810789D
:104220006B460622FCF7B7FC10B14FF0FF30F0E709
:104230009DF801009DF8001040EA012000B22080A6
:104240009DF803009DF8021040EA012000B2608052
:104250009DF805009DF8041040EA012000B2A080FE
:1042600015B12846FFF793FF0020D2E72DE9FE4F56
:1042700005460C462748807A18B94FF0FF30BDE854
:10428000FE8F244A1268917B224A5268107802AB52
:104290000222FCF780FC10B14FF0FF30EFE79DF8F1
:1042A00009009DF8081040EA012006B214B120462A
:1042B000FFF76DFF17494968C88804F0C1F915492F
:1042C00001904968B1F9080004F0A2F9834630462C
:1042D00004F09EF95946009004F002FB82460199D1
:1042E00004F064F881461F4903F0F2FF80464FF066
:1042F0008F4104F0EDF9074604F04EF928600020E4
:10430000BDE710B588B004461CB94FF0FF3008B0C7
:1043100010BD29E0C0000020556E737570706F727B
:1043200074656420736F6674776172652070726F54
:1043300064756374207265762025642E0A0000007F
:1043400008A2000848616C662073656E7369746921
:1043500076697479207061727420666F756E642E50
:104360000D0A000000000C42206830B9606820B9D6
:10437000A06810B9002008B010BDFA494968087853
:1043800006AB03221146FCF706FC10B14FF0FF30DC
:10439000F1E79DF81800082101EB201000F00F0054
:1043A000ADF800009DF8190001EB201000F00F009F
:1043B000ADF802009DF81A0001EB201000F00F008C
:1043C000ADF8040020684100BDF90000403091FBC9
:1043D000F0F000B2ADF8100060684100BDF90200D5
:1043E000403091FBF0F000B2ADF81200A06841003F
:1043F000BDF90400403091FBF0F000B2ADF81400BC
:10440000D8494968087806AB06221146FCF7C3FB79
:1044100010B14FF0FF30AEE79DF819009DF818106D
:1044200040EA012000B2ADF808009DF81B009DF89D
:104430001A1040EA012000B2ADF80A009DF81D00F4
:104440009DF81C1040EA012000B2ADF80C00BDF848
:104450001000BDF80810084400B2ADF81000BDF817
:104460001200BDF80A10084400B2ADF81200BDF801
:104470001400BDF80C10084400B2ADF81400BDF8EB
:104480001000000A8DF81800BDF81000C0B28DF8B9
:104490001900BDF81200000A8DF81A00BDF81200CC
:1044A000C0B28DF81B00BDF81400000A8DF81C0086
:1044B000BDF81400C0B28DF81D00AA4949680878FB
:1044C00006AB06221146FCF704FB10B14FF0FF309B
:1044D00051E700204FE70146A248007A30B1012899
:1044E00007D0022809D003280FD10AE0FA2008805B
:1044F0000EE04FF4FA7008800AE04FF47A700880FA
:1045000006E04FF4FA60088002E00020088000BF57
:1045100000BF0020704701469248407A30B1012820
:1045200007D0022808D003280CD108E00220087028
:104530000BE00420087008E00820087005E0102057
:10454000087002E04FF0FF30704700BF8548C07C24
:1045500018B108784006000E08700020F4E7014604
:104560008048C07A082817D2DFE800F01704070A4D
:104570000D101318BC20088013E06220088010E0A2
:104580002A2008800DE0142008800AE00A20088014
:1045900007E00520088004E000BF00BF002008807D
:1045A00000BF00BF0020704701466E4890F824000D
:1045B00010B14FF0FF3070476A48C0890880002072
:1045C000F9E7014600200880401E704701464FF081
:1045D000FF30704701466348007A30B1012807D0A8
:1045E000022808D003280CD108E05F4808600BE0DF
:1045F0005E48086008E05E48086005E05D480860C5
:1046000002E04FF0FF30704700BF0020FBE701469B
:104610005448407A30B1012808D002280AD0032833
:1046200010D10BE04FF4804008800EE041F69C7002
:1046300008800AE04FF48050088006E04FF40060E4
:10464000088002E04FF0FF30704700BF4548C07C53
:1046500010B10888401008800020F5E70146414865
:10466000007C08700020704701463E48807A10B1F7
:104670000120087001E0002008700020704738B564
:1046800004463848807A10B94FF0FF3038BD354ABB
:104690001268117C334A526810786B460222FCF78C
:1046A0007AFA10B14FF0FF30F0E79DF801009DF865
:1046B000001040EA012000B220800020E6E72DE94A
:1046C000FE4F0746884692461D46DDF830B000266C
:1046D0000024244890F8240010B1601EBDE8FE8F2D
:1046E000002028701F48807A10B94FF0FF30F5E79E
:1046F0001C48007C10B94FF0FF30EFE71948007CF0
:1047000000F0400008B1B01CC6B21648007C00F0B2
:10471000200008B1B01CC6B21248007C00F01000A6
:1047200008B1B01CC6B20F48007C00F0080008B108
:10473000B01DC6B20B4A1268917A0A4A52681078C4
:104740006B460222FCF727FA10B14FF0FF30C5E7A5
:104750009DF801009DF8001040EA0129B1450BDAEF
:104760000020BBE7C000002000000343000083429C
:104770003333034233338341FC4840684088B9EB0C
:10478000600F17DDF94A1268517CF84A52681078B8
:104790006B460122FCF7FFF910B14FF0FF309DE7A7
:1047A0009DF8000000F0100020B1FFF791F96FF0C4
:1047B000010093E75046FFF7EAFCEC4A1268D17A11
:1047C000EA4A526810786B463246FCF7E4F910B1B9
:1047D0004FF0FF3082E799FBF6F0401E8BF80000A7
:1047E00000202870B4422AD0E048007C00F0080085
:1047F00028B3601C1DF800001DF8041040EA0120D9
:1048000000B2A8F80000E01C1DF80010A01C1DF864
:10481000000041EA002000B2A8F80200601D1DF867
:104820000010201D1DF8000041EA002000B2A8F889
:104830000400287840F008002870A01D84B2B4421B
:1048400013D0CA48007C00F0400070B1601C1DF815
:1048500000001DF8041040EA012000B238802878DA
:1048600040F040002870A01C84B2B44213D0BF486E
:10487000007C00F0200070B1601C1DF800001DF8E5
:10488000041040EA012000B27880287840F020002F
:104890002870A01C84B2B44213D0B448007C00F04D
:1048A000100070B1601C1DF800001DF8041040EAF3
:1048B000012000B2B880287840F010002870A01CB9
:1048C00084B200200AE7F8B504460F461646A7480A
:1048D00090F8240010B94FF0FF30F8BDA348807A5B
:1048E00010B94FF0FF30F8E7A04A1268917A9F4A5A
:1048F000526810786B460222FCF74DF910B14FF068
:10490000FF30EAE79DF801009DF8001040EA01251C
:10491000A54203DA00203070401EDEE7934840686D
:104920004088B5EB600F17DD904A1268517C8F4AC2
:10493000526810786B460122FCF72DF910B14FF048
:10494000FF30CAE79DF8000000F0100020B1FFF72B
:10495000BFF86FF00100C0E7E2B2844B1B68D97A60
:10496000824B5B6818783B46FCF715F910B14FF0A5
:10497000FF30B2E795FBF4F0401E30700020ACE74A
:1049800001467A4880F82210002070477CB5054621
:1049900076494968087801AB04220D21FCF7FBF841
:1049A00008B107207CBD9DF80700C0F301109DF8F9
:1049B000041001F0E00140EAE1008DF800009DF8EC
:1049C0000700C0F381009DF8051001F0E00140EA06
:1049D000E1008DF801009DF8070000F003009DF84C
:1049E000061001F0E00140EAE1008DF80200002429
:1049F0001CE01DF8040018B9002045F8240013E05D
:104A00005B4845F8240006E055F82400594903F0B6
:104A10005FFE45F824001DF80400401EC0B20DF8EA
:104A200004000028F0D100BF601CC4B2032CE0DBFE
:104A30000020B7E72DE9FE4F06460F4600256846E1
:104A4000FFF7A4FF002442E056F8240057F8241092
:104A5000A0EB010ABAF1000F01DB514601E0CAF1F7
:104A60000001084603F0D4FD83464FF08F4103F068
:104A70009DFC80465DF82400002103F059FD16D00E
:104A80005DF82410404603F091FC82464FF07E51C1
:104A900003F026FF814629F0004A3748416A504614
:104AA00003F0E2FE12D20120A04005430EE032489E
:104AB000C169404603F0D8FD05D32F48016A40463E
:104AC00003F0D2FE02D20120A0400543641C032C57
:104AD000BADB2846BDE8FE8F2DE9FC5F06460F468F
:104AE000002522494968087801AB03220D21FCF713
:104AF00052F810B10720BDE8FC9F9DF8040000F0BB
:104B00001F008DF804009DF8050000F01F008DF8CF
:104B100005009DF8060000F01F008DF80600002437
:104B200062E056F8240057F82410A0EB010BBBF10B
:104B3000000F01DB594601E0CBF10001084603F00C
:104B400067FD4FF08F41009003F030FC814601A8D3
:104B5000005DC0B30849086803F072FD83465946FA
:104B6000064803F023FC80460FE00000C000002050
:104B70007B14AE3E1D5A843F4895000800B04C455A
:104B8000FE49404603F0A4FD804601A8005D401E9A
:104B9000C0B201A908550028F2D14146484603F0A9
:104BA00005FC83464FF07E5103F09AFE82462AF0C0
:104BB000004BF3488169584603F056FE13D201209A
:104BC000A04005430FE0FFE7ED480169484603F0C8
:104BD0004BFD05D3EA484169484603F045FE02D241
:104BE0000120A0400543641C032C9ADB284682E781
:104BF0002DE9F04F87B005460C46914601208DF80F
:104C0000100000208DF81100DE4A1268917CDD4A08
:104C10005268107804AB0222FBF75BFF20B14FF023
:104C2000FF3007B0BDE8F08FC820FBF7D7FB0020AE
:104C30008DF81000D34A1268D17BD24A526810789E
:104C400004AB0122FBF745FF10B14FF0FF30E8E75E
:104C5000CC4A12685179CB4A5268107804AB0122D1
:104C6000FBF737FF10B14FF0FF30DAE7C54A1268A3
:104C7000917CC44A5268107804AB0122FBF729FFEB
:104C800010B14FF0FF30CCE7BE4A1268D17DBD4A6B
:104C90005268107804AB0122FBF71BFF10B14FF0F4
:104CA000FF30BEE7B74A12681179B64A52681078E9
:104CB00004AB0122FBF70DFF10B14FF0FF30B0E75E
:104CC0000C208DF81000AF4A12681179AD4A526875
:104CD000107804AB0122FBF7FCFE10B14FF0FF305F
:104CE0009FE70F20FBF77AFBA648806A407A8DF891
:104CF0001000A44A12689178A24A5268107804AB56
:104D00000122FBF7E6FE10B14FF0FF3089E79D4826
:104D1000806A007A8DF810009A4A12685178994A90
:104D20005268107804AB0122FBF7D3FE10B14FF0AC
:104D3000FF3076E7B9F1000F07D09248806A807A99
:104D400040F0E0008DF8100004E08E48806A807A20
:104D50008DF810008B4A126891798A4A526810784F
:104D600004AB0122FBF7B5FE10B14FF0FF3058E75E
:104D7000B9F1000F07D08348806AC07A40F0E000A4
:104D80008DF8100003E07E48C07A8DF810007D4A4F
:104D90001268D1797B4A5268107804AB0122FBF784
:104DA00098FE10B14FF0FF303BE7B9F1000F02D091
:104DB000C820FBF713FB40208DF81000714A1268E1
:104DC0001179704A5268107804AB0122FBF781FE1A
:104DD00010B14FF0FF3024E778208DF81000694AB9
:104DE00012685179674A5268107804AB0122FBF7C8
:104DF00070FE10B14FF0FF3013E761498889FBF76F
:104E0000EDFA00208DF810005E4A126851795D4A73
:104E10005268107804AB0122FBF75BFE10B14FF033
:104E2000FF30FEE6574A1268917A564A5268107867
:104E300004AB0222FBF7AFFE10B14FF0FF30F0E6FB
:104E40009DF811009DF8101040EA012B0C209BFBEF
:104E5000F0F0C6B20020A86068602860A0606060C2
:104E60002060824665E0474A1268D17A454A526816
:104E7000107804AB0C22FBF78EFE10B14FF0FF3020
:104E8000CFE69DF811009DF8101040EA012000B215
:104E9000ADF808009DF813009DF8121040EA0120BB
:104EA00000B2ADF80A009DF815009DF8141040EA14
:104EB000012000B2ADF80C00BDF9081020680844CC
:104EC0002060BDF90A10606808446060BDF90C10EC
:104ED000A0680844A0609DF817009DF8161040EAED
:104EE000012000B2ADF800009DF819009DF81810DF
:104EF00040EA012000B2ADF802009DF81B009DF8C9
:104F00001A1040EA012000B2ADF80400BDF900100B
:104F1000286808442860BDF9021068680844686081
:104F2000BDF90410A8680844A8600AF1010000F067
:104F3000FF0AB24597DB1248D0F800C02868C117B5
:104F4000090441EA1041070462460023384601F093
:104F50006CFF32460023CDE9020101F066FF2860B4
:104F60000748D0F800C06868C117090441EA104139
:104F7000070462460023384606E0000054E3853FFC
:104F800048950008C000002001F04FFF3246002382
:104F9000CDE9020101F049FF6860FE48D0F800C089
:104FA000A868C117090441EA1041070462460023BA
:104FB000384601F03AFF32460023CDE9020101F004
:104FC00034FFA860F348D0F804C02168C817000473
:104FD00040EA11480F04624600233846414601F07A
:104FE00024FF32460023CDE9020101F01EFF2060BC
:104FF000E848D0F804C06068C117090441EA1041CC
:10500000070462460023384601F00FFF32460023B2
:10501000CDE9020101F009FF6060DE48D0F804C06C
:10502000A068C117090441EA104107046246002341
:10503000384601F0FAFE32460023CDE9020101F0C4
:10504000F4FEA060A068002804DDA068A0F5803010
:10505000A06003E0A06800F58030A0600020E0E5DB
:1050600038B50446CC4890F82400A04201D1002075
:1050700038BD24B3C84890F8250010B94FF0FF3070
:10508000F6E70020FEF75EFB0020FEF77DFCC2493C
:10509000C88CFEF7DCFE00200090BF494968087804
:1050A0006B4601222321FBF714FD0121BA4880F849
:1050B00024100120FEF746FBFEF70AFD13E0002056
:1050C000FEF740FBB448007C0090B349496808787B
:1050D0006B4601222321FBF7FCFC0021AE4880F83F
:1050E0002410FEF7F5FC0020C2E72DE9F04F8DB04B
:1050F00083460F4602200C90A74890F8240020B168
:105100000020FFF7ADFF012600E0002603A8FFF70F
:10511000E2F905A8FFF7FFF901A8FFF720FA02A8B6
:10512000FFF742FA9C4890F80AA004A8FFF796FA05
:10513000002407E0002239465846FFF759FD00B920
:1051400002E0641C022CF5DB00BF022C01D100251B
:1051500028E0002407E0012206A909A8FFF748FD7E
:1051600000B902E0641C022CF5DB00BF022C01D167
:10517000002517E006A93846FFF75CFC00F0FF08A1
:1051800009A95846FFF7A8FC00F0FF090025B9F16E
:10519000000F01D145F00105B8F1000F01D145F034
:1051A000020500BFFF207C490872FF217A48417246
:1051B000C1724FF6FF71C181FF218172017401211B
:1051C0000173BDF80C00FEF7D0FE9DF81400FEF749
:1051D0008AFEBDF80400FEF78EFDBDF80800FEF75C
:1051E00036FE5046FEF76BFB9DF81000FEF74EFDB5
:1051F00016B10120FFF734FF28460DB0BDE8F08F4F
:10520000F8B504460D46164616B94FF0FF30F8BD06
:105210006148807A10B94FF0FF30F8E720128DF81E
:105220000000E0B28DF801009DF8010028445A49C1
:1052300049684989884202DD4FF0FF30E7E7564A66
:105240001268117E544A526810786B460222FBF7AE
:1052500040FC10B14FF0FF30D9E7EAB24E4B1B686B
:10526000597D4D4B5B6818783346FBF732FC10B123
:105270004FF0FF30CBE70020C9E7F8B504460D46F4
:10528000164616B94FF0FF30F8BD4348807A10B982
:105290004FF0FF30F8E720128DF80000E0B28DF8F3
:1052A00001009DF8010028443B494968498988422A
:1052B00002DD4FF0FF30E7E7374A1268117E364AC9
:1052C000526810786B460222FBF703FC10B14FF0D6
:1052D000FF30D9E7EAB2304B1B68597D2E4B5B6833
:1052E00018783346FBF757FC10B14FF0FF30CBE78F
:1052F0000020C9E72DE9F04385B005460E469046EB
:105300009946254890F8250020B14FF0FF3005B0B0
:10531000BDE8F08316B94FF0FF30F8E7002423E032
:10532000281B102801DD102000E0281B87B232194D
:1053300039462046FFF764FF10B14FF0FF30E6E733
:1053400001AA39462046FFF798FF10B14FF0FF3011
:10535000DDE730193A4601A901F008FE10B16FF0FF
:105360000100D4E7E01984B2AC42D9DB4FEA28202F
:105370008DF8000008F0FF008DF80100064A126861
:10538000917E054A526810786B460222FBF7A1FB1A
:1053900038B103E048950008C00000204FF0FF300E
:1053A000B5E701218A4880F82510A0F82690002052
:1053B000ADE70146864890F8240008700020704749
:1053C00002464FF0FF30704701464FF0FF30704704
:1053D000F8B505460F461446002C70D0B5F5FF5FB2
:1053E00001DDFF2605E0202D01DA012601E0C5F3ED
:1053F000471607B90127282C02DD4FF0FF30F8BD12
:105400007348407D28BB724890F8240038B10020D2
:10541000FFF726FE01216E4880F8201003E00021EE
:105420006B4880F820106A481630FFF754F8684837
:105430001830FFF770F866481A30FFF790F86448A4
:105440001C30FFF7B1F86248817A81771F30FFF78F
:1054500005F90020FEF776F90020FEF78BFC00200E
:105460008DF800005A4A12689178594A52681078AB
:105470006B460122FBF72DFB10B14FF0FF30BEE76A
:1054800040208DF80000524A1268D17B504A526881
:1054900010786B460122FBF71CFB00B165E08DF82C
:1054A00000608DF801704A4A1268117A484A5268C1
:1054B00010786B460222FBF70CFB08B155E047E081
:1054C0000520FAF78BFF4248407A072101EBC00024
:1054D000C0B28DF800003E4A1268D1793C4A526849
:1054E00010786B460122FBF7F4FA00B13DE0202072
:1054F0008DF80000012C03D100208DF801000EE092
:10550000052C03DC01208DF8010008E0142C03DCDD
:1055100002208DF8010002E003208DF801009DF8C3
:105520000100072101EB8010C0B28DF80100284A6C
:105530001268917C264A526810786B460222FBF76B
:10554000C8FA00B111E0012121484175002056E759
:105550001F4A1632002103E0505C00B105E0491CEF
:105560000C29F9D34FF0FF3049E7FF2018490872A2
:10557000FF2117484172C1724FF6FF71C181FF21AF
:1055800081720174012101730146887FFEF797F94A
:105590000F49C88AFEF7E9FC0D49087EFEF7A3FC17
:1055A0000B49488BFEF7A7FB0949888BFEF74FFC98
:1055B0000749C87FFEF76AFB054890F8200010B144
:1055C0000120FFF74DFD002101484175002016E73D
:1055D000C000002010B5C8234FF48062F74940F6A0
:1055E000F630FFF787FE10BD10B586B00446F4A074
:1055F00000680390F3A000680290F3A00068019097
:10560000F2A00068009004F0030003A9085C8DF884
:10561000140003A8C4F3C101405C8DF8150003A871
:10562000C4F38111405C8DF8160004F0030002A958
:10563000085C8DF8100002A8C4F3C101405C8DF82D
:10564000110002A8C4F38111405C8DF8120005AA74
:10565000032140F22640FFF7D3FD18B14FF0FF3091
:1056600006B010BD04AA032140F22A40FFF7C8FD8E
:1056700010B14FF0FF30F3E70198059000980490C7
:1056800004F0040058B19DF8140040F001008DF8BA
:1056900014009DF8100040F001008DF8100004F097
:1056A000200058B19DF8150040F001008DF815005C
:1056B0009DF8110040F001008DF8110004F4807095
:1056C00058B19DF8160040F001008DF816009DF8C5
:1056D000120040F001008DF8120005AA03214FF4DA
:1056E0008860FFF78DFD10B14FF0FF30B8E704AAD6
:1056F000032140F23140FFF783FD10B14FF0FF303E
:10570000AEE7B34804810020AAE71FB50446B048BD
:10571000007A00F0030054F820000190AC48007AB1
:1057200000F0040010B1019840420190A848007AAE
:10573000C0F3C10054F820000290A548007A00F0A0
:10574000200010B1029840420290A148007AC0F3B4
:10575000811054F8200003909D48008900F4807067
:1057600010B10398404203909A49019880FB0101CF
:10577000800F40EA810001909649029880FB011059
:10578000820042EA917002909249039880FB0110D6
:10579000820042EA917003900198000E8DF800009B
:1057A0000198000C8DF801000198000A8DF80200A4
:1057B0000198C0B28DF803006A4604214FF474705A
:1057C000FFF71EFD18B14FF0FF3004B010BD029876
:1057D000000E8DF800000298000C8DF80100029870
:1057E000000A8DF802000298C0B28DF803006A46E4
:1057F00004214FF47570FFF703FD10B14FF0FF3037
:10580000E3E70398000E8DF800000398000C8DF874
:1058100001000398000A8DF802000398C0B28DF8C9
:1058200003006A4604214FF47670FFF7E9FCCCE7E9
:1058300070B588B0064601A8FEF7E9FEBDF8040081
:105840000021C90341EA5045C4036148007A00F0D1
:10585000030056F8200005905D48007A00F004002F
:1058600010B10598404205905948007AC0F3C10034
:1058700056F8200006905648007A00F0200010B13B
:105880000698404206905248007AC0F3811056F8BC
:10589000200007904E48008900F4807010B10798EE
:1058A000404207900598C117A0FB042301FB043177
:1058B00000FB0510810041EA927005900698C1171F
:1058C000A0FB042301FB043100FB0510810041EA29
:1058D000927006900798C117A0FB042301FB0431C6
:1058E00000FB0510810041EA927007900598000EB8
:1058F0008DF808000598000C8DF809000598000A3D
:105900008DF80A000598C0B28DF80B000698000EBD
:105910008DF80C000698000C8DF80D000698000A12
:105920008DF80E000698C0B28DF80F000798000E93
:105930008DF810000798000C8DF811000798000AE8
:105940008DF812000798C0B28DF8130002AA0C213E
:105950004FF42570FFF754FC08B070BD30B585B02A
:1059600004461DA207CA02AB07C3C82C03DD4FF0D3
:10597000FF3005B030BDC82090FBF4F0401E85B26A
:10598000280A8DF80000E8B28DF801006A4602216D
:1059900040F21620FFF734FC10B14FF0FF30E8E77B
:1059A00002AA0C2140F6C120FFF72AFC10B14FF0EB
:1059B000FF30DEE7064884810020DAE770950008B2
:1059C0004CCD6C000CC92C0036567600264666007D
:1059D0007C05002009E3CA02FEF2ABC4AAF1DFDFB6
:1059E000BBAFDFDF0146FC4880890880002070479C
:1059F0002DE9FC4706460F4606F0070010B1B7F543
:105A0000C86F03DD4FF0FF30BDE8FC87384602F079
:105A100017FE8146F14902F0C9FC80466846FEF750
:105A20007AFD9DF80000022806D0042816D0082828
:105A300026D0102848D135E04FF08D41404602F085
:105A400047FE814602F0C4FD84B2E549404602F0BB
:105A50003FFE814602F0BCFD85B238E04FF08C413C
:105A6000404602F035FE814602F0B2FD84B2DD49C7
:105A7000404602F02DFE814602F0AAFD85B226E0E6
:105A80004FF08B41404602F023FE814602F0A0FD1C
:105A900084B2D549404602F01BFE814602F098FDD3
:105AA00085B214E04FF08A41404602F011FE814673
:105AB00002F08EFD84B2CD49404602F009FE8146D7
:105AC00002F086FD85B202E04FF0FF309CE700BF98
:105AD00020128DF80400E0B28DF8050028128DF830
