:020000040800F2
:10000000680C0020BD010008C1010008C301000800
:10001000C5010008C7010008C90100080000000070
:10002000000000000000000000000000CB010008FC
:10003000CD01000800000000CF010008D101000838
:10004000D3010008D3010008D3010008D301000840
:10005000D3010008D3010008D3010008A516000849
:10006000D3010008D3010008D3010008D301000820
:10007000D3010008D3010008D3010008D301000810
:10008000D3010008D3010008D3010008D301000800
:10009000D3010008D3010008D30100085912000859
:1000A000D3010008C7210008D3010008D3010008CC
:1000B000D3010008D3010008D3010008D3010008D0
:1000C000D3010008D3010008D3010008D3010008C0
:1000D000D3010008D3010008CD1D0008D30100089A
:1000E000DD150008D3010008D301000800F002F874
:1000F00000F04FF80AA090E8000C82448344AAF173
:100100000107DA4501D100F044F8AFF2090EBAE870
:100110000F0013F0010F18BFFB1A43F0010318473B
:10012000A88B0000C88B00000A4410F8014B14F0A3
:100130000F0508BF10F8015B240908BF10F8014B38
:100140006D1E05D010F8013B6D1E01F8013BF9D181
:10015000641E03D0641E01F8015BFBD19142E4D31D
:10016000704700000023002400250026103A28BF15
:1001700078C1FBD8520728BF30C148BF0B60704719
:10018000642905F04F85002070471FB51FBD10B5CD
:1001900010BD05F007FF1146FFF7F7FF00F02AF842
:1001A00005F025FF03B4FFF7F2FF03BC00F0A8FA47
:1001B00030BF72B662B680F30888704708480047BF
:1001C000FEE7FEE7FEE7FEE7FEE7FEE7FEE7FEE707
:1001D000FEE7FEE703480449044A054B7047000068
:1001E000ED00000868060020680C00206808002068
:1001F0006808002008B5092000F029FA482000F01E
:10020000C9F8022000F00EFA012000F00BFA4FF4BA
:10021000E131482000F083FA472140F2CF7001F02D
:1002200001FD00F0DFFA05F072FA05F084FA00F043
:1002300091FD00F0EBFF01F033F900F038FF02F020
:10024000DCF801F085FB4FF46141242001F003FB51
:10025000472140F6B73000F04FFD80E0404800688D
:1002600006F0D2FE04460C20032322460A21009009
:10027000002000F0B0FE3B48006806F0C5FE0446D2
:100280000C20032322460A2100901E2000F0A3FE2A
:100290000C2003230090344802780A213C2000F00F
:1002A0009AFE0C200123009030480278192100208A
:1002B00000F091FE0C20012300902D4802781921B6
:1002C0000F2000F088FE0C200123009029481921FE
:1002D00002681E2000F07FFE0C20012300902648BB
:1002E00002782D21002000F076FE0C2001230090E2
:1002F000224802782D210F2000F06DFE0C200123F2
:1003000000901F4802782D211E2000F064FE0C2072
:10031000012300901B4802782D21084600F05BFE67
:100320000C2001230090184802782D213C2000F079
:1003300052FE0C2001230090144802782D215020F9
:1003400000F049FE0C2001230090114802782D2175
:100350005F2000F040FE00F05EFD01F07CF87DE7DC
:10036000240100206C000020140000205E0000200A
:100370005F000020300000207D0000207E00002073
:100380007C000020290000202A00002061000020BD
:10039000620000204FF0E021096921F004014FF0D4
:1003A000E0221161C21700EB5272C2F3C702234B65
:1003B0001A701946097801EB4102C2EBC1114FF6E0
:1003C000FF7202EAC1011E4A1180704701461B4AB2
:1003D00012784A434FF0E0235A6100229A610122C9
:1003E0001A6100BF4FF0E022106900F001021AB15B
:1003F00000F48032002AF5D000224FF0E0231A6189
:100400009A61704701460E4A12884A434FF0E02332
:100410005A6100229A6101221A6100BF4FF0E02266
:10042000106900F001021AB100F48032002AF5D000
:1004300000224FF0E0231A619A6170470800002003
:100440000A000020A34A0A400243A34B1A607047E7
:100450000146072323EA010212029F4B1B1D186865
:100460004FF6FF0318409D4B184310439A4B1B1D3A
:10047000186070472DE9F0410746884614461D462E
:100480002846FFF7E5FFC5F1040007FA00F60F2044
:10049000284100EA0800064306F00F06E21704EBC5
:1004A000D2625211920002F1E022D2F800212146DC
:1004B000E31704EBD3635B11A4EB431C012303FAA2
:1004C0000CF31A432046E31704EBD3635B119B0044
:1004D00003F1E023C3F800218148005D40EA0610E3
:1004E0007F490855BDE8F08170B504460B46CE172C
:1004F00001EB9676C6F38700CE1701EB9676B61021
:10050000A1EB8606B606350E764B9B6943F00103D8
:10051000744EB3614FEAB63353F820300F26AE4025
:10052000B343714E46F82030334653F8203004FA76
:1005300005F61E436C4B43F820606C4B1B6801268C
:100540008E403343694E336002F0010343B1674B81
:100550000C331B6801268E403343644E0C363360E7
:1005600002F0020343B1614B08331E6801238B4044
:100570001E435E4B08331E6070BD00B50020594914
:100580000861C8601420486100208861C86108467D
:10059000006840F00100086008464068544908407F
:1005A0005049486008460068524908404D49086073
:1005B0000846006820F4802008600846406820F45F
:1005C000FE0048600020886000214FF00060FFF7C7
:1005D00039FF00BD10B540480830006840F0040005
:1005E0003D49083108603F48C06940F080503D49AE
:1005F000C8614148406840F480703F4948600846FF
:10060000006840F0040008600846006840F00200FE
:100610000860FFF7CDFD10BD3048001D2E49091DB3
:1006200008607047014649062E4A926942F001026D
:100630002C4B9A612C4A083A526822F0E0622A4B0D
:10064000083B5A601A4652680A435A60704730B5F0
:1006500004460025FFF791FF2248006840F48030EF
:100660002049086000BF1F480068400C0028FAD0ED
:100670004FF480601B494860A01EC4B20846406821
:1006800040EA844048600846406840F48030486052
:100690001A48006840F032001849086011480068A4
:1006A00040F080700F49086000BF0E480068400E9F
:1006B0000028FAD00B48406840F002000949486021
:1006C00005E008484068C0F3870505F00305022DE2
:1006D000F7D130BD80FFFF1F08ED00E00000FA05F4
:1006E00000E400E000100240080001400004014066
:1006F0000000FFF8FFFFF6FE0070004000200240FF
:10070000014600BF704700BF324A128802F0400223
:10071000002AF9D0C2B22F4B1B1D1A8070472DE959
:10072000F05F05460E46300106F0C2FC81462A49BC
:1007300005FB01F006F0BCFC8246494606F06EFB64
:100740000746384606F07CFC84B2204606F0B0FC32
:100750008346394606F0F1FD82464FF0834106F0AC
:10076000EFFC814606F06CFC80464FF6FF7000EA15
:10077000041404EB080084B21848806940F00400B7
:10078000164988610846806940F4804088611448B1
:10079000006820F47F60124908600846006840F451
:1007A0000B6008600D48C06840F480400B49C86089
:1007B0000846C06820F48040C860064808300480BD
:1007C000001D008842F20C01084302490C310880E8
:1007D000BDE8F09F0038014040420F000010024089
:1007E00004080140F948806940F00400F749886135
:1007F000F74800684FF20F018843F5490860084642
:10080000006843F203010843F1490860704710B5DE
:10081000EF48006820F00F00ED49086008460068C6
:1008200040F0030008600120EA490860EA48D0F877
:10083000200108B9002010BD0120E6490C310860F4
:10084000FFF7C4FD0020E449C1F8A001E148803869
:10085000006808B10020EEE70120FFF7B7FD002097
:10086000DC490C3108600120E5E710B5D848006884
:1008700020F00F00D64908600846006840F00300E9
:1008800008600020D3490C310860D349C1F8A001A9
:100890000120FFF79BFD0120CE490C310860CE49B5
:1008A000C1F8A001FFF792FD10BD10B50024C848A3
:1008B000006820F00F00C64908600846006840F054
:1008C000080008600120C3490860FFF77FFD012090
:1008D000C149C1F8AC01FFF779FD0AE0601CC4B260
:1008E000322C03DDFFF7C1FF002010BD0120FFF710
:1008F0006DFDB848803800680028EFD1B5490C314B
:1009000008600120F1E710B50020B2490C31086001
:10091000AF48006820F00F00AD4908600846006845
:1009200040F0030008600020AB49C1F8A00101209D
:10093000FFF74CFD0120A7490C310860FFF746FD89
:100940000020A549C1F8AC0110BD10B50020A14997
:100950000C3108609E48006820F00F009C49086038
:100960000846006840F00300086001209A49C1F879
:10097000A001FFF72BFD012096490C310860FFF71D
:1009800025FD00209449C1F8AC0110BD70B50446A6
:100990008F48006820F00F008D4908600846006805
:1009A00040F00300086000208A490C3108600025EF
:1009B00016E0E009874908606006040E0120FFF791
:1009C00005FD01208449C1F8AC01FFF7FFFC0020C0
:1009D00080490C3108600120FFF7F8FC681CC5B2A3
:1009E000082DE6DB70BD2DE9F04105460E461746A1
:1009F0009846FFF70CFF10B90120BDE8F0816906A9
:100A0000080EFFF7C3FFFFF750FF18B9FFF72DFFE0
:100A10000120F2E73046FFF7B9FFFFF746FF002459
:100A20000BE018F80400FFF7B1FFFFF73EFF18B91D
:100A3000FFF71BFF0020E0E7641CBC42F1DBFFF77F
:100A400014FF0020D9E770B505460024604800680F
:100A500020F00F005E4908600846006840F008007A
:100A60000860002617E000205A490C310860022077
:100A7000FFF7ACFC01205849C1F8AC016006040E38
:100A800054488038006808B1601CC4B20220FFF7E7
:100A90009DFC701CC6B2082EE5DB15B1FFF733FFD5
:100AA00001E0FFF752FF204670BD2DE9F0410646F8
:100AB0000F4614461D46FFF7AAFE10B90120BDE8F7
:100AC000F0817106080EFFF761FFFFF7EEFE18B91F
:100AD000FFF7CBFE0120F2E73846FFF757FFFFF79D
:100AE000E4FEFFF794FE012101EB4601C8B2FFF7D7
:100AF0004DFFFFF7DAFE0DE0012C04D10020FFF7D7
:100B0000A2FF287003E00120FFF79DFF28706D1CF5
:100B1000601EC4B2002CEFD1FFF7A7FE0020CEE785
:100B200070B505460E460024FFF771FE2846FFF714
:100B30002DFF641CFFF7B9FE3046FFF727FF641C4A
:100B4000FFF7B3FEFFF763FE691CC8B2FFF71EFF95
:100B5000641CFFF7AAFE0020FFF775FF0446FFF7AD
:100B600084FE204670BD2DE9F041074688461546B3
:100B70001E460024FFF74BFE3846FFF707FFFFF73E
:100B800094FE4046FFF702FFFFF78FFEFFF73FFEA0
:100B9000791CC8B2FFF7FAFEFFF787FE00BF0DE031
:100BA000681EA04204D00120FFF74DFF305503E03E
:100BB0000020FFF748FF3055601CC4B2AC42EFDBA9
:100BC000FFF753FE2046BDE8F08100000010024010
:100BD00004080140A0012142000021422DE9F0411A
:100BE00080460D4616461F460024FFF710FE40467D
:100BF000FFF7CCFEFFF759FE2846FFF7C7FEFFF7C9
:100C000054FE00BF06E0385DFFF7C0FEFFF74DFE63
:100C1000601CC4B2B442F6DBFFF727FE0120BDE83A
:100C2000F08170B505460E46144631462846FFF75A
:100C300077FF2070012070BD37B504460D4602AB2A
:100C4000012229462046FFF7C9FF3EBD2DE9F843A2
:100C50000746884614461D46089E6A464146384661
:100C6000FFF7DFFF28B3601CFF2101FA00F0C4F199
:100C700008012944491EFF220A41104300F0FF09E0
:100C8000C5F1080006FA00F0C6B2C4F1070006413B
:100C90009DF8000000EA090000909DF80000304334
:100CA00000909DF8002041463846FFF7C5FFBDE89B
:100CB000F8830020FBE7F8B506460F4614461D46AC
:100CC0006A4639463046FFF7ACFF2DB10120A040FF
:100CD0009DF80010084305E00120A0409DF8001099
:100CE00021EA0000C0B200909DF80020394630464D
:100CF000FFF7A2FFF8BD000070B505460C4613488B
:100D0000806940F400601149886111480580001F26
:100D100004800F482038008840F001000C49203939
:100D200008800846008840F04000088008482C38B9
:100D3000008840F0010006492C390880022319225E
:100D400003210120FFF796FB70BD00000010024058
:100D50002C2C01401748806940F004001549886137
:100D60001548006820F47F20134908600846006891
:100D700040F44C30086010480C30006840F010001F
:100D80000D490C310860704718B900210B4A1160F9
:100D90000FE00B490968491C094A1160814208D1DA
:100DA00006490968C943074AC2F890110021044A5C
:100DB000116070470010024000080140900121427C
:100DC000100000200000214210B50A461AB101238C
:100DD000FE4C236002E00023FC4C2360002114E061
:100DE0000023FB4C236000F080031BB10123241F70
:100DF000236003E00023F64C241F23600123F44CFE
:100E000023604306180E4B1CD9B20829E8DB0123E6
:100E1000EE4C236010BD30B500241CE004F1B0019D
:100E2000C8B20021FFF7D0FF00210846FFF7CCFF32
:100E300000211020FFF7C8FF002508E0E54901EB7D
:100E4000C501085D0121FFF7BFFF681CC5B2802DF9
:100E5000F4DB601CC4B2082CE0DB30BD00B500211F
:100E60008D20FFF7B1FF00211420FFF7ADFF002117
:100E7000AF20FFF7A9FF00BD00B500218D20FFF7CF
:100E8000A3FF00211020FFF79FFF0021AE20FFF7F6
:100E90009BFF00BD30B500240CE0002506E00020DB
:100EA000CC4901EBC5010855681CC5B2802DF6DBA5
:100EB000601CC4B2082CF0DBFFF7ADFF30BDF0B50D
:100EC000144600267F2801DC3F2900DDF0BD0B46DB
:100ED000CF1701EB5777FF10C7F10707FAB2CF170B
:100EE00001EB5777FF10A1EBC707FDB2C5F107076C
:100EF0000123BB40DEB24CB1B64B03EBC0039B5C9D
:100F00003343B44F07EBC007BB5408E0B14B03EBCE
:100F1000C0039B5CB343AF4F07EBC007BB5400BF9C
:100F2000D4E72DE9F04F80460C4615461E46A346F1
:100F3000A5F12000C5B200273EE00C2E07D105EB3D
:100F40004500A54901EB800010F8079004E0A34894
:100F500000EB051010F807904FF0000A26E009F0AA
:100F6000800028B121464046099AFFF7A8FF09E012
:100F7000099808B9012000E00020024621464046B9
:100F8000FFF79DFF4FEA49604FEA1069601CC4B249
:100F9000A4EB0B00B04205D15C4608F1010000F063
:100FA000FF0806E00AF1010000F0FF0ABAF1080F9D
:100FB000D5DB00BF781CC7B2B742BEDBBDE8F08FFF
:100FC00010B50246012000E050430B1EA1F10104C0
:100FD000E1B2F9D110BD2DE9FF4F81B0074691462E
:100FE0001E460E9D4FF0000A002439E0301B401EC3
:100FF000C1B20A20FFF7E4FFB9FBF0F00A21B0FB11
:10100000F1F201FB1208BAF1000F16D1701EA042D6
:1010100013DDB8F1000F0ED10120AB4605EBDB71FB
:10102000491001FB04710090C8B22B46202202999E
:10103000FFF777FF12E04FF0010A0120AB4605EB06
:10104000DB71491001FB04710090C8B208F1300156
:10105000CAB22B460299FFF764FF00BF601CC4B2FE
:10106000B442C3DB05B0BDE8F08F78B505460E4647
:10107000144618E07A2D03DD002506F11000C6B2F3
:101080003A2E04DD002005460646FFF703FF012047
:10109000009022780C2331462846FFF742FF05F1E5
:1010A0000800C5B2641C20780028E3D178BD10B5D3
:1010B0004B48806940F00800494988614948006808
:1010C00049490840474908600846006847490843BD
:1010D000444908604248806940F004004049886102
:1010E0004348006820F070404149086008460068A5
:1010F00040F000500860002035490839086064203D
:10110000FFF780F901203B49C1F88C010021AE2096
:10111000FFF75AFE0021D520FFF756FE0021502090
:10112000FFF752FE0021A820FFF74EFE00213F20CE
:10113000FFF74AFE0021D320FFF746FE00210846B4
:10114000FFF742FE00214020FFF73EFE00218D20E8
:10115000FFF73AFE00211420FFF736FE0021202081
:10116000FFF732FE00210220FFF72EFE0021A12012
:10117000FFF72AFE0021C020FFF726FE0021DA201B
:10118000FFF722FE00211220FFF71EFE0021812022
:10119000FFF71AFE0021EF20FFF716FE0021D920ED
:1011A000FFF712FE0021F120FFF70EFE0021DB20E9
:1011B000FFF70AFE00213020FFF706FE0021A420E1
:1011C000FFF702FE0021A62016E00000BC0121422C
:1011D00094812142480100202A7500089E79000868
:1011E00000100240000C0140FF0F00FF0020220011
:1011F0000408014000802142FFF7E6FD0021AF20F6
:10120000FFF7E2FDFFF746FE10BD000010B56E4887
:10121000806940F004006C4988616C48006820F4E3
:1012200070006A4908600846006840F400000860E1
:1012300066480C30006840F4004064490C31086096
:10124000012205210020FFF74FF902231722012177
:101250001846FFF70FF910BD10B50A20FFF7D2F8B6
:101260005B48006888B95A487C300068C0435949D7
:10127000C1F8900158480078401C5749087008464A
:101280000078032801D1002008702020534908600D
:1012900010BD01464E48006828B951480088401CDE
:1012A0004F4A108002E000204D4A108048480068F4
:1012B00028B94C48007810B901204A4A10704A48B1
:1012C0000078B0B947480078012807D1474800782E
:1012D000401C464A10700120434A10704348007871
:1012E000022806D10020414A1070414A1080022095
:1012F000704737480068012804D10020394A10702F
:10130000394A10703948007801281CD138480088C3
:10131000401C374A10801046008888420ADD304859
:101320000088884206DA0020304A1070304A108067
:101330000120DDE72A480088884204DD00202B4A8E
:1013400010702B4A10800020D2E710B52948007891
:1013500068B11F48006850B90A20FFF753F81C48CD
:10136000006850B9002023490870012010BD1848BA
:101370000068012801D11F4908700020F6E71E48C7
:10138000008840B91248006828B91C480088401CF1
:101390001A49088002E00020184908801748008890
:1013A000C82807DD0120144908800020134908805F
:1013B0000120704710480088012802D100200E4902
:1013C00008800020F5E700000010024000080140FE
:1013D00014012142000021421400002014040140A5
:1013E0001A00002015000020160000201700002021
:1013F000180000201C000020200000201E000020FB
:101400002149088000BF2049091F098801F04001D7
:101410000029F8D0704700B50320FFF7F1FFFC204A
:10142000FFF7EEFF00220DE0184911F81200FFF758
:10143000E7FF164931F81210C1F30720FFF7E0FF6C
:10144000501CC2B2062AEFDBFC20FFF7D9FF0320B5
:10145000FFF7D6FF00BD00B50D4800780B490880A6
:101460000C48007848800C48008800B288800B48FF
:10147000C078C880094800790881084840794881C7
:10148000FFF7C9FF00BD00000438014048050020F7
:101490004C0000204D0000204E00002045000020A0
:1014A00010B5D448806940F00800D24988610846E8
:1014B000806940F004008861CF48006820F0F000A7
:1014C000CD4908600846006840F080000860CA48BE
:1014D0000C30006840F00200C7490C310860C74872
:1014E000006880B2C549086008460068C4490843DE
:1014F000C2490860C1480C30006840F47040BF49E0
:101500000C310860022201210020FEF7EDFF0322CA
:101510000C210120FEF7E8FF03220D210120FEF738
:10152000E3FF03220E210120FEF7DEFF03220F213D
:101530000120FEF7D9FF0223072200210846FEF70B
:1015400099FF0223282200210846FEF793FF10BDD1
:1015500010B5A848806940F00400A6498861A648F3
:10156000001D006820F47020A349091D086008468A
:10157000006840F4002008609F480C30006840F488
:1015800080509D490C3108609B48006820F0F000B5
:10159000994908600846006840F080000860964855
:1015A0000C30006840F0020093490C3108600222C0
:1015B0000C210020FEF798FF022201210020FEF7F7
:1015C00093FF0223282200210846FEF753FF02233F
:1015D000072200210846FEF74DFF10BD894800682C
:1015E00000F4805078B188480078884909788842AA
:1015F00005D187488078012801D1864908704FF4C9
:101600008050804908607F48006800F4005080B135
:101610007D4800787D490978884206D17C488078E9
:10162000022802D101207B4908704FF4005075490F
:1016300008607448006800F48040B0B176480078D3
:101640007649097888420CD16F4800786F4909784B
:10165000884206D16E488078042802D10120704962
:1016600008704FF48040674908606648006800F4DD
:101670000040B0B1684800786849097888420CD1C8
:101680006148007861490978884206D160488078CD
:10169000032802D10120624908704FF400405949E3
:1016A0000860704708B50A20FEF7ACFE5D48006888
:1016B000012810D15C480068401C5B4908600C2080
:1016C000022300900846002102685A20FFF783FC9D
:1016D00001205649086002204A49086008BD2DE9EA
:1016E000F0414B480078022838D15148006810B9C1
:1016F0004F48001D00684E48001D0068012801D1B8
:101700004B4800684A48001D006888B9484800688E
:1017100001280DD14748006805F0E6FA0646464A1A
:10172000464B05F0F7F9044604F0B0FE4149086065
:101730003F48001D0068012810D13D48006868B985
:101740003C48006805F0D0FA06463B4A3B4B04F0A3
:10175000CFFE044604F09AFE364908602C48007813
:1017600001283CD132480838006810B93048001FC1
:1017700000682F48001F0068012802D12C48083853
:1017800000682B48001F006890B929480838006895
:1017900001280DD12748006805F0A6FA0646264A1A
:1017A000264B05F0B7F9044604F070FE21490860A5
:1017B0001F48001F0068012811D11D480838006823
:1017C00068B91C48006805F08FFA06461A4A1B4B98
:1017D00004F08EFE044604F059FE164908600C48D9
:1017E000007828B900231A461946184600F08CFAEA
:1017F000BDE8F0810010024000080140000C0140EB
:1018000000008888140401405E0000206100002070
:1018100034000020290000205F000020620000202A
:101820002A000020040121422C000020300000206A
:10183000388121426C0000207B14AE47E17A943F4E
:101840003E49088000BF3D49091F098801F0400159
:101850000029F8D070472DE9F05F05460E463001AB
:1018600005F026FC8146364905FB01F005F020FC19
:101870008246494605F0D2FA0746384605F0E0FBB5
:1018800084B2204605F014FC8346394605F055FD28
:1018900082464FF0834105F053FC814605F0D0FBB2
:1018A00080464FF6FF7000EA041404EB080084B28F
:1018B0002448806940F00400224988610846C069D4
:1018C00040F40030C8612048006820F47F401E4981
:1018D00008600846006840F40B4008601A480C3065
:1018E000006840F4806018490C31086015480069B0
:1018F00040F48020134908610846006920F48020E4
:10190000086112480480001D008842F20C0108435F
:101910000E49091D08800846008840F48070088040
:101920000846008840F0200008800223262201217A
:101930000020FEF79FFDBDE8F09F00000438014045
:1019400040420F00001002400008014008440040DF
:10195000A748806940F01400A5498861A54800683F
:1019600020F00F00A34908600846006840F003001B
:101970000860A148006820F07F409F490860084641
:10198000006840F04C500860081D006820F0FF001F
:10199000091D08600846006840F033000860974859
:1019A0004068C0F313009549486008464068944970
:1019B000084392494860704701209249086000201E
:1019C0009149C1F8A4010120904908600020091D37
:1019D000086001208B49091F08600020091F08606A
:1019E00001208A490831086000208949C1F8800136
:1019F000704701208349091D086000208249C1F811
:101A0000A0010120814908600020091D0860012013
:101A10007C49091F08600020091F086001207D49DA
:101A2000086000207C49C1F8BC017047012075495D
:101A3000086000207449C1F8A40101207349091D00
:101A400008600020091F086001206E4908390860FD
:101A50000020091D086001206C4908310860002041
:101A60006B49C1F88001704701206649091D086073
:101A700000206549C1F8A00101206449091D0860E2
:101A80000020091F086001205E4908390860002015
:101A9000091D086001205F49086000205E49C1F807
:101AA000BC01704701205749091D086000205649B4
:101AB000C1F8A00101205549091D08600020091F37
:101AC000086001204F49091F08600020091F0860B5
:101AD00001204E490831086000204D49C1F88001BD
:101AE000704701204749086000204749C1F8A40118
:101AF0000120464908600020091D08600120414975
:101B0000083908600020091D08600120414908606B
:101B100000204149C1F8BC01704710B53F484078EA
:101B2000012813D1FFF748FF3D4C246804F54873A2
:101B30003B4C2468C4F54872394C246804F548715C
:101B4000374C2468C4F5487000F0DEF8334840781C
:101B5000022813D1FFF788FF314C2468C4F548737D
:101B60002F4C246804F548722D4C2468C4F5487144
:101B70002B4C246804F5487000F0C6F827484078DC
:101B8000032813D1FFF7ADFF254C246804F54873F3
:101B9000234C246804F54872214C2468C4F548712C
:101BA0001F4C2468C4F5487000F0AEF81B4840781C
:101BB000042813D1FFF776FF194C2468C4F5487345
:101BC000174C2468C4F54872154C246804F5487114
:101BD000134C246804F5487000F096F80F484078DC
:101BE00028B900231A461946184600F08DF810BD92
:101BF0000010024000080140000C014000100140AC
:101C000000003033A081214200802142B4012242F1
:101C100000002142800121420000224234000020C5
:101C2000740000203E4AD26942F002023C4BDA6165
:101C30001A46926942F00C029A613A4A126822F0FE
:101C40007F42384B1A601A46126842F03B421A60D3
:101C5000354A126822F0FF02334B1A601A461268A6
:101C600042F0BB021A60314B18801B1F19802F4AAB
:101C7000143A128842F060022C4B143B1A801A4628
:101C8000128842F4C0421A801A1D128842F0600283
:101C90001B1D1A801A46128842F4C0421A801A1F6D
:101CA000128842F008021B1F1A801A46128842F45A
:101CB00000621A801A1D128842F008021B1D1A8049
:101CC0001A46128842F400621A801A1D128842F0E5
:101CD00001021B1D1A801A46128842F010021A8057
:101CE0001A46128842F480721A801A46128842F408
:101CF00080521A8080220D4B2C3B1A801A46128883
:101D000042F001021A80704730B5084D08352A802C
:101D10002D1D2B802D1D29802D1D288030BD0000FC
:101D20000010024000080140000C01402C0400405B
:101D30000146072913D2DFE801F0120406080A0C55
:101D40000F007B200BE0842009E0D52007E0E7208E
:101D500005E04FF49C7002E040F2411000BF00BF6C
:101D6000704708B53F480078012826D100203D493A
:101D700008703D4840783C49897840EA01203B4959
:101D800008803948C0783A49087008460078FFF75B
:101D9000CFFF384908800C20032300903348028885
:101DA00019212D20FFF717F90C200323009031484B
:101DB000028819214620FFF70EF908BD2E48006859
:101DC000401C2D49086008460068704710B52B4834
:101DD000008800F02000002831D02848001D00882D
:101DE000C4B2FFF7EBFF264908601F482549097870
:101DF00044542448007830B91B4800785A2802D04F
:101E00000020204908701F480078401C1D490870B8
:101E100008460078042804D10020087001201149E8
:101E20000870FFF79EFF16480068174908600120F8
:101E30001649087016A20A215020FFF716F910BDA6
:101E400010B5FFF7BBFF10490968401A502807D9A1
:101E500000200E4908700FA20A215020FFF705F953
:101E600010BD000049000020450000204E00002069
:101E70004C0000204A000020540000200044004094
:101E80003C000020440000204000002038000020DA
:101E9000590000004E000000FE4A1278904205DD15
:101EA000FD4A127812B90122FC4B9A70FA4A127854
:101EB000012A0DD1F94A9278012A09D1F84A1278FB
:101EC000914205DDF74A127812B90422F34B9A7059
:101ED000F34A12788A4202D10022EF4B1A70F14A7B
:101EE0001278012A0CD1ED4A9278042A08D10022F6
:101EF000EA4B9A700122EC4B1A700022E94B1A70DF
:101F0000E44A1278904205DAE34A127812B90222C2
:101F1000E24B9A70E04A1278012A0DD1DF4A92789A
:101F2000022A09D1DE4A1278914205DADD4A127896
:101F300012B90322D94B9A70D94A12788A4202D137
:101F40000022D54B1A70D74A1278012A0CD1D34AF5
:101F50009278032A08D10022D04B9A700122D24BEA
:101F60001A700022CF4B1A70CF4A1278012A20D162
:101F7000CA4A9278EAB9CD4A1278C64B1B789A427F
:101F800008D1CA4A5278C64B1B789A4202D1012224
:101F9000C74B1A70C74A1278BE4B1B789A4208D1B9
:101FA000C44A5278BE4B1B789A4202D10122C24BDE
:101FB0001A70704700B5BE48007860B9BB48007819
:101FC000BE490870B9484078BD490870B74A517891
:101FD0001078FFF761FFB648007801280CD1B548AA
:101FE0000078B6490870B3484078B5490870B14ADE
:101FF00051781078FFF750FFAF480078012802D1E0
:102000000020A649887000BDAE480068012858D15C
:10201000AD490870AD480078642852D10020AB4922
:102020000870A8490860AA48006801280DD19B489B
:102030004078012809D197480078401C95490870DC
:102040000020A3490860A0490870A1480068012841
:102050000DD192484078022809D18E480078401E60
:102060008C49087000209A49086097490870984880
:10207000006802280DD189484078042809D1884891
:102080000078401C864908700020914908608E49FC
:1020900008708F48006802280ED1804840780328D5
:1020A0000AD17F480078401E7D4908700020884989
:1020B00008608549087004E000208549086082496D
:1020C000087081480078012804D180480078401CBD
:1020D0007E49087070472DE9F05F04460D46294699
:1020E000204605F02AF9064604F08EFF794908607B
:1020F00008460068142801DD14200860754800684F
:1021000010F1140F03DA6FF0130072490860714880
:10211000006804F0B5FF83466F480168584605F033
:102120000FF880466B4909686C4A1268881A04F0F7
:10213000A7FF83466A480168584605F001F88146C2
:10214000414604F0FDFD07466648006804F098FF2C
:102150008246394604F0F4FD064604F055FF614915
:1021600008605C4800685D4908605E480068BDE83A
:10217000F09F4A488078012804D10220474908701E
:102180000120487045488078022802D143490870F0
:10219000487042488078032804D101203F490870E4
:1021A000032048703D488078042804D101203B4931
:1021B0000870042048703948807818B900203749E1
:1021C00008704870704710B54748008800F001005B
:1021D000002838D045480068401C444908604248FF
:1021E000008820F00100404908804048006805212F
:1021F00090FBF1F201FB120008B9FFF7DFFD03F0DD
:10220000FBFA3A480068B0F5167F06D138480068F6
:10221000384908600120384908703748007801289B
:1022200011D1FFF7A6FF3348016831480068FFF776
:1022300052FF32490860FFF752FAFFF7E5FEFFF759
:10224000B9FEFFF7FDFD10BD2DE9F04788B005464A
:10225000012D7CD04621D020FEF762FC804645212E
:10226000D020FEF75DFC08EB0027384604F008FF9D
:1022700004464021D020FEF753FC80463F21D02069
:10228000FEF74EFC08EB0027384604F0F9FE8246C4
:102290003C2135E05E0000202900002034000020B1
:1022A0005F0000202A0000207C0000205800002051
:1022B0007D0000205A0000207E00002061000020E8
:1022C0006200002030000020600000205D0000203F
:1022D0002C000020800000206800002088000020E2
:1022E0006400002084000020102C014078000020B1
:1022F000240100206C0000206300002074000020F6
:10230000D020FEF70DFC80463B21D020FEF708FCD4
:1023100008EB0027384604F0B3FE81464FF08E41AB
:10232000204604F0D9FF05D24FF08F41204605F03A
:102330000FF804464FF08E41504604F0CDFF05D211
:102340004FF08F41504605F003F8824600E051E01F
:102350004FF08E41484604F0BFFF05D24FF08F4149
:10236000484604F0F5FF8146504604F0BDFC0746A0
:102370008846484604F0B8FC3A464346CDE9000199
:1023800003F0C4FF00222B4BCDE9020104F0B8FAA0
:10239000294A2A4BCDE9040104F05AF9CDE9060196
:1023A00004F074F80646204604F09EFC4FF06632B6
:1023B000234BCDE9060104F04BF9074604F066F81B
:1023C000044620480078022806D184F000473946A8
:1023D000304602F04FFE09E01A480078032805D184
:1023E00084F000473946304602F05BFF164800682B
:1023F0001649086008B0BDE8F0874FF084401449E2
:1024000008600020134908601349086013490860F8
:10241000134908700870052012490870012048709F
:1024200003201149087000204870104908701049B5
:102430000870704700806640F1D4C853FB21094002
:102440006666304000000020BC0000200400002030
:102450006400002068000020240100206C0000209F
:1024600034000020580000205A00002061000020A5
:102470006200002038B50446FB4890F82400C0B143
:1024800014B10220009001E000200090F64A12688A
:10249000D17BF54A526810786B460122FEF7A3FA09
:1024A00010B14FF0FF3038BD9DF80010EE48417478
:1024B00023E0ED48807A10B94FF0FF30F3E724B104
:1024C000E948407C08B10020EDE714B101200090FC
:1024D00001E000200090E44A1268D17BE24A526891
:1024E00010786B460122FEF77EFA10B14FF0FF30F4
:1024F000D9E79DF80010DC4841740020D3E738B5D7
:10250000002419E0D8480068C07AA04204D0D64818
:102510000068407DA04200D10CE0D34949680878AA
:102520006B4601222146FEF7C0FA10B14FF0FF3092
:1025300038BD00BF601CC4B2CB4840680079A042DF
:10254000E0DC0020F4E770B504460D46C64800689C
:10255000C07AA04204D0C4480068407DA04202D1A5
:102560004FF0FF3070BDC04840680079A04202DCE7
:102570004FF0FF30F6E7BC49496808782B46012246
:102580002146FEF792FAEDE738B50446B64890F8D2
:102590002300A04201D1002038BD14B130200090AA
:1025A00001E000200090B048807C20B19DF8000040
:1025B00040F002000090AC4890F8220020B19DF855
:1025C000000040F080000090A74A1268117DA64AE2
:1025D000526810786B460122FEF705FA10B14FF0F1
:1025E000FF30D9E7A04880F823400020D4E738B571
:1025F000044604F0700010B10120009005E014B111
:102600000020009001E040200090974A1268917CE1
:10261000954A526810786B460122FEF7E4F920B122
:10262000002191488172481E38BD9DF8000020F0BD
:1026300040018D4801730020009004F0400020B953
:102640009DF8000040F00400009004F0200020B944
:102650009DF8000040F00200009004F0100020B946
:102660009DF8000040F00100009004F0080020B93F
:102670009DF8000040F0380000907B4A1268D17C41
:10268000794A526810786B460122FEF7ACF920B106
:10269000002175488172481EC6E724B1082C02D07B
:1026A0000020FFF771FF704884720021017532200D
:1026B000FDF7A8FE0020B7E738B504466A48807CDD
:1026C000A04201D1002038BD002C46D0664A1268D5
:1026D0001179654A526810786B460122FEF7E5F9D8
:1026E00010B14FF0FF30EEE79DF8000020F0200021
:1026F00000905D4A126811795B4A526810786B4607
:102700000122FEF770F910B14FF0FF30DBE7032034
:10271000FDF778FE02200090534890F8220020B187
:102720009DF8000040F0800000904F4890F8230092
:1027300020B19DF8000040F0300000904A4A126835
:10274000117D494A526810786B460122FEF74BF919
:10275000002851D04FF0FF30B5E7434A1268117995
:10276000414A526810786B460122FEF79EF910B17B
:102770004FF0FF30A7E73C48807A00F0010028B115
:102780009DF8000040F02000009004E09DF800005B
:1027900020F020000090344A12681179324A5268C1
:1027A00010786B460122FEF71EF910B14FF0FF3092
:1027B00089E70320FDF726FE2B4890F8220010B190
:1027C0008020009001E000200090274890F823002E
:1027D00020B19DF8000040F030000090224A1268BD
:1027E000117D214A526810786B460122FEF7FBF8F2
:1027F00010B14FF0FF3066E71B488474002062E799
:1028000008B51948807A10B94FF0FF3008BD002094
:102810000090154A1268D17B134A526810786B46B3
:102820000122FEF7E0F810B14FF0FF30EEE70E4A5C
:10283000126851790C4A526810786B460122FEF7F3
:10284000D2F810B14FF0FF30E0E7074A1268117973
:10285000054A526810786B460122FEF7C4F828B189
:102860004FF0FF30D2E700008C000020F74890F8CE
:102870002400002850D00C200090F44A12681179EE
:10288000F24A526810786B460122FEF7ACF810B19C
:102890004FF0FF30BAE7C0200090EC48807A00F09B
:1028A000010020B19DF8000040F020000090E74AB0
:1028B00012681179E54A526810786B460122FEF7DA
:1028C00092F810B14FF0FF30A0E7E048407C10B123
:1028D0000220009001E000200090DC4A1268D17BC9
:1028E000DA4A526810786B460122FEF77CF810B184
:1028F0004FF0FF308AE700200090D44A12685179E7
:10290000D24A526810786B460122FEF76CF8002814
:1029100052D04FF0FF3079E704200090CB4A126884
:102920001179CA4A526810786B460122FEF75BF8AB
:1029300010B14FF0FF3069E7C448807C20B9C3482C
:10294000807A00F0010010B94020009001E0602082
:102950000090BE4A12681179BC4A526810786B46E2
:102960000122FEF740F810B14FF0FF304EE7B748B4
:10297000407C10B10120009001E000200090B34A9B
:102980001268D17BB14A526810786B460122FEF77B
:102990002AF810B14FF0FF3038E7AC4A126851798D
:1029A000AA4A52681078A94B10330122FEF71BF88F
:1029B00010B14FF0FF3029E7002027E770B504463B
:1029C000002624F00104A14890F8240008B100205A
:1029D00070BD9E48807A10B94FF0FF30F8E79B48F1
:1029E000057C807A2040994908740846007CA04202
:1029F00002D04FF0FF3600E0002614B99348007D66
:102A000018B10120FFF736FD02E00020FFF732FD8C
:102A10003CB1FFF7F5FE20B18C4805744FF0FF3054
:102A2000D6E73046D4E738B504468848807A10B9EE
:102A30004FF0FF3038BDBC2C02DB0120009015E0C8
:102A4000622C02DB0220009010E02A2C02DB032023
:102A500000900BE0142C02DB0420009006E00A2C0E
:102A600002DB0520009001E0062000907748C07A44
:102A70009DF80010884201D10020DBE7734A1268FC
:102A80009178724A526810786B460122FDF7ABFFCD
:102A900010B14FF0FF30CDE79DF800106B48C172C8
:102AA0000020C7E738B50446282C02DD4FF0FF3080
:102AB00038BDDCB90020FFF767FD00208DF800006D
:102AC00007208DF80100614A1268917C5F4A5268C4
:102AD00010786B460222FDF786FF10B14FF0FF30F1
:102AE000E6E70021594801750020E1E70120FFF7E2
:102AF0004BFD20208DF80000012C06D100208DF820
:102B000001000520FFF78FFF17E0052C06DC0120F0
:102B10008DF801000520FFF786FF0EE0142C06DC7F
:102B200002208DF801000A20FFF77DFF05E0032059
:102B30008DF801001420FFF776FF9DF801000721B2
:102B400001EB8010C0B28DF80100404A1268917C00
:102B50003E4A526810786B460222FDF744FF10B1DE
:102B60004FF0FF30A4E7082138488172002101733B
:102B7000012101750020FFF721FF002098E738B5FB
:102B800004463248807A10B94FF0FF3038BD2F48E4
:102B900090F8240010B14FF0FF30F7E72B48007D8C
:102BA00050B134B1282C04DCE0B2FFF77BFF0020E9
:102BB000ECE70020FFF776FF042C01DA042404E0A0
:102BC000B4F57A7F01DD4FF47A744FF47A7090FB9C
:102BD000F4F0401EC0B200901C4A126851781B4AA3
:102BE000526810786B460122FDF7FDFE10B14FF0E0
:102BF000FF30CBE79DF80000401C4FF47A7191FB49
:102C0000F0F081B21148C1810146C9894810FFF72F
:102C10000AFF0020BAE738B504460C48807A10B99C
:102C20004FF0FF3038BD022C06D0042C07D0082C02
:102C300008D0102C0FD10BE0002000900EE00820EF
:102C400000900BE01020009008E000008C000020B5
:102C50001820009002E04FF0FF30E3E700BFF94892
:102C6000407A9DF80010B0EBE10F01D10020D9E7C8
:102C7000F44A1268D179F34A526810786B460122FF
:102C8000FDF7B1FE10B14FF0FF30CBE79DF800002B
:102C9000C110EC4841720020C4E738B50446E94849
:102CA000807A10B94FF0FF3038BDFA2C09D0B4F556
:102CB000FA7F09D0B4F57A7F09D0B4F5FA6F0CD158
:102CC00008E0002000900BE00820009008E01020B1
:102CD000009005E01820009002E04FF0FF30E3E79D
:102CE00000BFD848007A9DF80010B0EBE10F01D189
:102CF0000020D9E7D34A12689179D24A52681078F5
:102D00006B460122FDF76FFE10B14FF0FF30CBE7AD
:102D10009DF80000C010CB4908720020C4E71CB524
:102D200080208DF80000C74A1268917CC54A52681D
:102D300010786B460122FDF756FE10B14FF0FF30C0
:102D40001CBD6420FDF75EFB00208DF80000BD4A2D
:102D50001268917CBB4A526810786B460122FDF7DD
:102D600042FE10B14FF0FF30EAE7B64A1268917D9B
:102D7000B44A526810786B460622FDF796FE10B1F1
:102D80004FF0FF30DCE79DF80500C007400F9DF8CD
:102D9000031001F0010140EA41009DF8011001F02B
:102DA000010140EA010494B1012C03D10121A5489D
:102DB000C17431E0022C03D10021A248C1742BE080
:102DC0002146A1A002F0EEFE4FF0FF30B8E79D4A89
:102DD0001268D1789B4A526810786B460122FDF741
:102DE00064FE10B14FF0FF30AAE79DF8000000F03C
:102DF0000F042CB99E4802F0D5FE4FF0FF309FE73C
:102E0000042C06D19BA002F0CDFE01218D48C17497
:102E100002E000218B48C174FF218A488172FF20A3
:102E200088490872FF2187484172C1724FF6FF71CD
:102E3000C181FF21017481740121017380F8221086
:102E4000002180F823104175017516300160416042
:102E50008160163880F8241080F82510C1844FF462
:102E6000FA60FFF71AFF10B14FF0FF3068E7022059
:102E7000FFF7D1FE10B14FF0FF3061E72A20FFF7D6
:102E8000D2FD10B14FF0FF305AE73220FFF777FE46
:102E900010B14FF0FF3053E70020FFF78FFD10B166
:102EA0004FF0FF304CE70020FFF706FC10B14FF069
:102EB000FF3045E70020FFF79AFB002040E770470E
:102EC0007CB504460D465F48807A00F0700010B96A
:102ED0004FF0FF307CBD5B4A1268117B594A526843
:102EE00010786B460622FDF7E0FD10B14FF0FF3081
:102EF000F0E79DF801009DF8001040EA012000B2C3
:102F000020809DF803009DF8021040EA012000B2E5
:102F100060809DF805009DF8041040EA012000B291
:102F2000A08015B12846FFF7CAFF0020D2E77CB584
:102F300004460D464348807A00F0080010B94FF06F
:102F4000FF307CBD3F4A1268517B3E4A5268107880
:102F50006B460622FDF7A9FD10B14FF0FF30F0E7F8
:102F60009DF801009DF8001040EA012000B2208089
:102F70009DF803009DF8021040EA012000B2608035
:102F80009DF805009DF8041040EA012000B2A080E1
:102F900015B12846FFF793FF0020D2E72DE9FE4F39
:102FA00005460C462748807A18B94FF0FF30BDE837
:102FB000FE8F244A1268917B224A5268107802AB35
:102FC0000222FDF772FD10B14FF0FF30EFE79DF8E0
:102FD00009009DF8081040EA012006B214B120460D
:102FE000FFF76DFF17494968C88804F061F8154973
:102FF00001904968B1F9080004F042F88346304670
:1030000004F03EF85946009004F0A2F98246019976
:1030100003F004FF81461F4903F092FE80464FF003
:103020008F4104F08DF8074603F0EEFF2860002082
:10303000BDE710B588B004461CB94FF0FF3008B0AA
:1030400010BD29E08C000020556E737570706F7292
:1030500074656420736F6674776172652070726F37
:1030600064756374207265762025642E0A00000062
:10307000788C000848616C662073656E73697469AA
:1030800076697479207061727420666F756E642E33
:103090000D0A000000000C42206830B9606820B9B9
:1030A000A06810B9002008B010BDFA494968087836
:1030B00006AB03221146FDF7F8FC10B14FF0FF30CC
:1030C000F1E79DF81800082101EB201000F00F0037
:1030D000ADF800009DF8190001EB201000F00F0082
:1030E000ADF802009DF81A0001EB201000F00F006F
:1030F000ADF8040020684100BDF90000403091FBAC
:10310000F0F000B2ADF8100060684100BDF90200B7
:10311000403091FBF0F000B2ADF81200A068410021
:10312000BDF90400403091FBF0F000B2ADF814009E
:10313000D8494968087806AB06221146FDF7B5FC68
:1031400010B14FF0FF30AEE79DF819009DF8181050
:1031500040EA012000B2ADF808009DF81B009DF880
:103160001A1040EA012000B2ADF80A009DF81D00D7
:103170009DF81C1040EA012000B2ADF80C00BDF82B
:103180001000BDF80810084400B2ADF81000BDF8FA
:103190001200BDF80A10084400B2ADF81200BDF8E4
:1031A0001400BDF80C10084400B2ADF81400BDF8CE
:1031B0001000000A8DF81800BDF81000C0B28DF89C
:1031C0001900BDF81200000A8DF81A00BDF81200AF
:1031D000C0B28DF81B00BDF81400000A8DF81C0069
:1031E000BDF81400C0B28DF81D00AA4949680878DE
:1031F00006AB06221146FDF7F6FB10B14FF0FF308B
:1032000051E700204FE70146A248007A30B101287B
:1032100007D0022809D003280FD10AE0FA2008803D
:103220000EE04FF4FA7008800AE04FF47A700880DC
:1032300006E04FF4FA60088002E00020088000BF3A
:1032400000BF0020704701469248407A30B1012803
:1032500007D0022808D003280CD108E0022008700B
:103260000BE00420087008E00820087005E010203A
:10327000087002E04FF0FF30704700BF8548C07C07
:1032800018B108784006000E08700020F4E70146E7
:103290008048C07A082817D2DFE800F01704070A30
:1032A0000D101318BC20088013E06220088010E085
:1032B0002A2008800DE0142008800AE00A200880F7
:1032C00007E00520088004E000BF00BF0020088060
:1032D00000BF00BF0020704701466E4890F82400F0
:1032E00010B14FF0FF3070476A48C0890880002055
:1032F000F9E7014600200880401E704701464FF064
:10330000FF30704701466348007A30B1012807D08A
:10331000022808D003280CD108E05F4808600BE0C1
:103320005E48086008E05E48086005E05D480860A7
:1033300002E04FF0FF30704700BF0020FBE701467E
:103340005448407A30B1012808D002280AD0032816
:1033500010D10BE04FF4804008800EE041F69C70E5
:1033600008800AE04FF48050088006E04FF40060C7
:10337000088002E04FF0FF30704700BF4548C07C36
:1033800010B10888401008800020F5E70146414848
:10339000007C08700020704701463E48807A10B1DA
:1033A0000120087001E0002008700020704738B547
:1033B00004463848807A10B94FF0FF3038BD354A9E
:1033C0001268117C334A526810786B460222FDF76E
:1033D0006CFB10B14FF0FF30F0E79DF801009DF855
:1033E000001040EA012000B220800020E6E72DE92D
:1033F000FE4F0746884692461D46DDF830B000264F
:103400000024244890F8240010B1601EBDE8FE8F0F
:10341000002028701F48807A10B94FF0FF30F5E780
:103420001C48007C10B94FF0FF30EFE71948007CD2
:1034300000F0400008B1B01CC6B21648007C00F095
:10344000200008B1B01CC6B21248007C00F0100089
:1034500008B1B01CC6B20F48007C00F0080008B1EB
:10346000B01DC6B20B4A1268917A0A4A52681078A7
:103470006B460222FDF719FB10B14FF0FF30C5E794
:103480009DF801009DF8001040EA0129B1450BDAD2
:103490000020BBE78C0000200000034300008342B3
:1034A0003333034233338341FC4840684088B9EBEF
:1034B000600F17DDF94A1268517CF84A526810789B
:1034C0006B460122FDF7F1FA10B14FF0FF309DE796
:1034D0009DF8000000F0100020B1FFF791F96FF0A7
:1034E000010093E75046FFF7EAFCEC4A1268D17AF4
:1034F000EA4A526810786B463246FDF7D6FA10B1A8
:103500004FF0FF3082E799FBF6F0401E8BF8000089
:1035100000202870B4422AD0E048007C00F0080067
:1035200028B3601C1DF800001DF8041040EA0120BB
:1035300000B2A8F80000E01C1DF80010A01C1DF847
:10354000000041EA002000B2A8F80200601D1DF84A
:103550000010201D1DF8000041EA002000B2A8F86C
:103560000400287840F008002870A01D84B2B442FE
:1035700013D0CA48007C00F0400070B1601C1DF8F8
:1035800000001DF8041040EA012000B238802878BD
:1035900040F040002870A01C84B2B44213D0BF4851
:1035A000007C00F0200070B1601C1DF800001DF8C8
:1035B000041040EA012000B27880287840F0200012
:1035C0002870A01C84B2B44213D0B448007C00F030
:1035D000100070B1601C1DF800001DF8041040EAD6
:1035E000012000B2B880287840F010002870A01C9C
:1035F00084B200200AE7F8B504460F461646A748ED
:1036000090F8240010B94FF0FF30F8BDA348807A3D
:1036100010B94FF0FF30F8E7A04A1268917A9F4A3C
:10362000526810786B460222FDF73FFA10B14FF056
:10363000FF30EAE79DF801009DF8001040EA0125FF
:10364000A54203DA00203070401EDEE79348406850
:103650004088B5EB600F17DD904A1268517C8F4AA5
:10366000526810786B460122FDF71FFA10B14FF037
:10367000FF30CAE79DF8000000F0100020B1FFF70E
:10368000BFF86FF00100C0E7E2B2844B1B68D97A43
:10369000824B5B6818783B46FDF707FA10B14FF094
:1036A000FF30B2E795FBF4F0401E30700020ACE72D
:1036B00001467A4880F82210002070477CB5054604
:1036C00076494968087801AB04220D21FDF7EDF930
:1036D00008B107207CBD9DF80700C0F301109DF8DC
:1036E000041001F0E00140EAE1008DF800009DF8CF
:1036F0000700C0F381009DF8051001F0E00140EAE9
:10370000E1008DF801009DF8070000F003009DF82E
:10371000061001F0E00140EAE1008DF8020000240B
:103720001CE01DF8040018B9002045F8240013E03F
:103730005B4845F8240006E055F82400594903F099
:10374000FFFC45F824001DF80400401EC0B20DF82F
:1037500004000028F0D100BF601CC4B2032CE0DBE1
:103760000020B7E72DE9FE4F06460F4600256846C4
:10377000FFF7A4FF002442E056F8240057F8241075
:10378000A0EB010ABAF1000F01DB514601E0CAF1DA
:103790000001084603F074FC83464FF08F4103F0AC
:1037A0003DFB80465DF82400002103F0F9FB16D0B4
:1037B0005DF82410404603F031FB82464FF07E5105
:1037C00003F0C6FD814629F0004A3748416A504659
:1037D00003F082FD12D20120A04005430EE03248E2
:1037E000C169404603F078FC05D32F48016A404682
:1037F00003F072FD02D20120A0400543641C032C9B
:10380000BADB2846BDE8FE8F2DE9FC5F06460F4671
:10381000002522494968087801AB03220D21FDF7F4
:1038200044F910B10720BDE8FC9F9DF8040000F0AA
:103830001F008DF804009DF8050000F01F008DF8B2
:1038400005009DF8060000F01F008DF8060000241A
:1038500062E056F8240057F82410A0EB010BBBF1EE
:10386000000F01DB594601E0CBF10001084603F0EF
:1038700007FC4FF08F41009003F0D0FA814601A879
:10388000005DC0B30849086803F012FC834659463E
:10389000064803F0C3FA80460FE000008C000020C9
:1038A0007B14AE3E1D5A843FB87F000800B04C45E3
:1038B000FE49404603F044FC804601A8005D401EDE
:1038C000C0B201A908550028F2D14146484603F08C
:1038D000A5FA83464FF07E5103F03AFD82462AF066
:1038E000004BF3488169584603F0F6FC13D20120DF
:1038F000A04005430FE0FFE7ED480169484603F0AB
:10390000EBFB05D3EA484169484603F0E5FC02D2E7
:103910000120A0400543641C032C9ADB284682E763
:103920002DE9F04F87B005460C46914601208DF8F1
:10393000100000208DF81100DE4A1268917CDD4AEB
:103940005268107804AB0222FDF74DF820B14FF019
:10395000FF3007B0BDE8F08FC820FCF753FD002012
:103960008DF81000D34A1268D17BD24A5268107881
:1039700004AB0122FDF737F810B14FF0FF30E8E754
:10398000CC4A12685179CB4A5268107804AB0122B4
:10399000FDF729F810B14FF0FF30DAE7C54A126899
:1039A000917CC44A5268107804AB0122FDF71BF8E1
:1039B00010B14FF0FF30CCE7BE4A1268D17DBD4A4E
:1039C0005268107804AB0122FDF70DF810B14FF0EA
:1039D000FF30BEE7B74A12681179B64A52681078CC
:1039E00004AB0122FCF7FFFF10B14FF0FF30B0E74E
:1039F0000C208DF81000AF4A12681179AD4A526858
:103A0000107804AB0122FCF7EEFF10B14FF0FF304D
:103A10009FE70F20FCF7F6FCA648806A407A8DF8F5
:103A20001000A44A12689178A24A5268107804AB38
:103A30000122FCF7D8FF10B14FF0FF3089E79D4815
:103A4000806A007A8DF810009A4A12685178994A73
:103A50005268107804AB0122FCF7C5FF10B14FF09B
:103A6000FF3076E7B9F1000F07D09248806A807A7C
:103A700040F0E0008DF8100004E08E48806A807A03
:103A80008DF810008B4A126891798A4A5268107832
:103A900004AB0122FCF7A7FF10B14FF0FF3058E74D
:103AA000B9F1000F07D08348806AC07A40F0E00087
:103AB0008DF8100003E07E48C07A8DF810007D4A32
:103AC0001268D1797B4A5268107804AB0122FCF766
:103AD0008AFF10B14FF0FF303BE7B9F1000F02D081
:103AE000C820FCF78FFC40208DF81000714A126846
:103AF0001179704A5268107804AB0122FCF773FF09
:103B000010B14FF0FF3024E778208DF81000694A9B
:103B100012685179674A5268107804AB0122FCF7A9
:103B200062FF10B14FF0FF3013E761498889FCF75D
:103B300069FC00208DF810005E4A126851795D4AD8
:103B40005268107804AB0122FCF74DFF10B14FF022
:103B5000FF30FEE6574A1268917A564A526810784A
:103B600004AB0222FCF7A1FF10B14FF0FF30F0E6EA
:103B70009DF811009DF8101040EA012B0C209BFBD2
:103B8000F0F0C6B20020A86068602860A0606060A5
:103B90002060824665E0474A1268D17A454A5268F9
:103BA000107804AB0C22FCF780FF10B14FF0FF300F
:103BB000CFE69DF811009DF8101040EA012000B2F8
:103BC000ADF808009DF813009DF8121040EA01209E
:103BD00000B2ADF80A009DF815009DF8141040EAF7
:103BE000012000B2ADF80C00BDF9081020680844AF
:103BF0002060BDF90A10606808446060BDF90C10CF
:103C0000A0680844A0609DF817009DF8161040EACF
:103C1000012000B2ADF800009DF819009DF81810C1
:103C200040EA012000B2ADF802009DF81B009DF8AB
:103C30001A1040EA012000B2ADF80400BDF90010EE
:103C4000286808442860BDF9021068680844686064
:103C5000BDF90410A8680844A8600AF1010000F04A
:103C6000FF0AB24597DB1248D0F800C02868C11798
:103C7000090441EA1041070462460023384601F076
:103C80006CFF32460023CDE9020101F066FF286097
:103C90000748D0F800C06868C117090441EA10411C
:103CA000070462460023384606E0000054E3853FDF
:103CB000B87F00088C00002001F04FFF324600233F
:103CC000CDE9020101F049FF6860FE48D0F800C06C
:103CD000A868C117090441EA10410704624600239D
:103CE000384601F03AFF32460023CDE9020101F0E7
:103CF00034FFA860F348D0F804C02168C817000456
:103D000040EA11480F04624600233846414601F05C
:103D100024FF32460023CDE9020101F01EFF20609E
:103D2000E848D0F804C06068C117090441EA1041AE
:103D3000070462460023384601F00FFF3246002395
:103D4000CDE9020101F009FF6060DE48D0F804C04F
:103D5000A068C117090441EA104107046246002324
:103D6000384601F0FAFE32460023CDE9020101F0A7
:103D7000F4FEA060A068002804DDA068A0F58030F3
:103D8000A06003E0A06800F58030A0600020E0E5BE
:103D900038B50446CC4890F82400A04201D1002058
:103DA00038BD24B3C84890F8250010B94FF0FF3053
:103DB000F6E70020FEF75EFB0020FEF77DFCC2491F
:103DC000C88CFEF7DCFE00200090BF4949680878E7
:103DD0006B4601222321FCF706FE0121BA4880F838
:103DE00024100120FEF746FBFEF70AFD13E0002039
:103DF000FEF740FBB448007C0090B349496808785E
:103E00006B4601222321FCF7EEFD0021AE4880F82D
:103E10002410FEF7F5FC0020C2E72DE9F04F8DB02D
:103E200083460F4602200C90A74890F8240020B14A
:103E30000020FFF7ADFF012600E0002603A8FFF7F2
:103E4000E2F905A8FFF7FFF901A8FFF720FA02A899
:103E5000FFF742FA9C4890F80AA004A8FFF796FAE8
:103E6000002407E0002239465846FFF759FD00B903
:103E700002E0641C022CF5DB00BF022C01D10025FE
:103E800028E0002407E0012206A909A8FFF748FD61
:103E900000B902E0641C022CF5DB00BF022C01D14A
:103EA000002517E006A93846FFF75CFC00F0FF0884
:103EB00009A95846FFF7A8FC00F0FF090025B9F151
:103EC000000F01D145F00105B8F1000F01D145F017
:103ED000020500BFFF207C490872FF217A48417229
:103EE000C1724FF6FF71C181FF21817201740121FE
:103EF0000173BDF80C00FEF7D0FE9DF81400FEF72C
:103F00008AFEBDF80400FEF78EFDBDF80800FEF73E
:103F100036FE5046FEF76BFB9DF81000FEF74EFD97
:103F200016B10120FFF734FF28460DB0BDE8F08F31
:103F3000F8B504460D46164616B94FF0FF30F8BDE9
:103F40006148807A10B94FF0FF30F8E720128DF801
:103F50000000E0B28DF801009DF8010028445A49A4
:103F600049684989884202DD4FF0FF30E7E7564A49
:103F70001268117E544A526810786B460222FCF790
:103F800032FD10B14FF0FF30D9E7EAB24E4B1B685B
:103F9000597D4D4B5B6818783346FCF724FD10B112
:103FA0004FF0FF30CBE70020C9E7F8B504460D46D7
:103FB000164616B94FF0FF30F8BD4348807A10B965
:103FC0004FF0FF30F8E720128DF80000E0B28DF8D6
:103FD00001009DF8010028443B494968498988420D
:103FE00002DD4FF0FF30E7E7374A1268117E364AAC
:103FF000526810786B460222FCF7F5FC10B14FF0C6
:10400000FF30D9E7EAB2304B1B68597D2E4B5B6815
:1040100018783346FCF749FD10B14FF0FF30CBE77D
:104020000020C9E72DE9F04385B005460E469046CD
:104030009946254890F8250020B14FF0FF3005B093
:10404000BDE8F08316B94FF0FF30F8E7002423E015
:10405000281B102801DD102000E0281B87B2321930
:1040600039462046FFF764FF10B14FF0FF30E6E716
:1040700001AA39462046FFF798FF10B14FF0FF30F4
:10408000DDE730193A4601A901F008FE10B16FF0E2
:104090000100D4E7E01984B2AC42D9DB4FEA282012
:1040A0008DF8000008F0FF008DF80100064A126844
:1040B000917E054A526810786B460222FCF793FC09
:1040C00038B103E0B87F00088C0000204FF0FF30CB
:1040D000B5E701218A4880F82510A0F82690002035
:1040E000ADE70146864890F824000870002070472C
:1040F00002464FF0FF30704701464FF0FF307047E7
:10410000F8B505460F461446002C70D0B5F5FF5F94
:1041100001DDFF2605E0202D01DA012601E0C5F3CF
:10412000471607B90127282C02DD4FF0FF30F8BDF4
:104130007348407D28BB724890F8240038B10020B5
:10414000FFF726FE01216E4880F8201003E00021D1
:104150006B4880F820106A481630FFF754F868481A
:104160001830FFF770F866481A30FFF790F8644887
:104170001C30FFF7B1F86248817A81771F30FFF772
:1041800005F90020FEF776F90020FEF78BFC0020F1
:104190008DF800005A4A12689178594A526810788E
:1041A0006B460122FCF71FFC10B14FF0FF30BEE759
:1041B00040208DF80000524A1268D17B504A526864
:1041C00010786B460122FCF70EFC00B165E08DF81B
:1041D00000608DF801704A4A1268117A484A5268A4
:1041E00010786B460222FCF7FEFB08B155E047E071
:1041F0000520FCF707F94248407A072101EBC0008F
:10420000C0B28DF800003E4A1268D1793C4A52682B
:1042100010786B460122FCF7E6FB00B13DE0202060
:104220008DF80000012C03D100208DF801000EE074
:10423000052C03DC01208DF8010008E0142C03DCC0
:1042400002208DF8010002E003208DF801009DF8A6
:104250000100072101EB8010C0B28DF80100284A4F
:104260001268917C264A526810786B460222FCF74D
:10427000BAFB00B111E0012121484175002056E749
:104280001F4A1632002103E0505C00B105E0491CD2
:104290000C29F9D34FF0FF3049E7FF201849087285
:1042A000FF2117484172C1724FF6FF71C181FF2192
:1042B00081720174012101730146887FFEF797F92D
:1042C0000F49C88AFEF7E9FC0D49087EFEF7A3FCFA
:1042D0000B49488BFEF7A7FB0949888BFEF74FFC7B
:1042E0000749C87FFEF76AFB054890F8200010B127
:1042F0000120FFF74DFD002101484175002016E720
:104300008C00002010B5C8234FF48062F74940F6B6
:10431000F630FFF787FE10BD10B586B00446F4A056
:1043200000680390F3A000680290F3A00068019079
:10433000F2A00068009004F0030003A9085C8DF867
:10434000140003A8C4F3C101405C8DF8150003A854
:10435000C4F38111405C8DF8160004F0030002A93B
:10436000085C8DF8100002A8C4F3C101405C8DF810
:10437000110002A8C4F38111405C8DF8120005AA57
:10438000032140F22640FFF7D3FD18B14FF0FF3074
:1043900006B010BD04AA032140F22A40FFF7C8FD71
:1043A00010B14FF0FF30F3E70198059000980490AA
:1043B00004F0040058B19DF8140040F001008DF89D
:1043C00014009DF8100040F001008DF8100004F07A
:1043D000200058B19DF8150040F001008DF815003F
:1043E0009DF8110040F001008DF8110004F4807078
:1043F00058B19DF8160040F001008DF816009DF8A8
:10440000120040F001008DF8120005AA03214FF4BC
:104410008860FFF78DFD10B14FF0FF30B8E704AAB8
:10442000032140F23140FFF783FD10B14FF0FF3020
:10443000AEE7B34804810020AAE71FB50446B048A0
:10444000007A00F0030054F820000190AC48007A94
:1044500000F0040010B1019840420190A848007A91
:10446000C0F3C10054F820000290A548007A00F083
:10447000200010B1029840420290A148007AC0F397
:10448000811054F8200003909D48008900F480704A
:1044900010B10398404203909A49019880FB0101B2
:1044A000800F40EA810001909649029880FB01103C
:1044B000820042EA917002909249039880FB0110B9
:1044C000820042EA917003900198000E8DF800007E
:1044D0000198000C8DF801000198000A8DF8020087
:1044E0000198C0B28DF803006A4604214FF474703D
:1044F000FFF71EFD18B14FF0FF3004B010BD029859
:10450000000E8DF800000298000C8DF80100029852
:10451000000A8DF802000298C0B28DF803006A46C6
:1045200004214FF47570FFF703FD10B14FF0FF3019
:10453000E3E70398000E8DF800000398000C8DF857
:1045400001000398000A8DF802000398C0B28DF8AC
:1045500003006A4604214FF47670FFF7E9FCCCE7CC
:1045600070B588B0064601A8FEF7E9FEBDF8040064
:104570000021C90341EA5045C4036148007A00F0B4
:10458000030056F8200005905D48007A00F0040012
:1045900010B10598404205905948007AC0F3C10017
:1045A00056F8200006905648007A00F0200010B11E
:1045B0000698404206905248007AC0F3811056F89F
:1045C000200007904E48008900F4807010B10798D1
:1045D000404207900598C117A0FB042301FB04315A
:1045E00000FB0510810041EA927005900698C11702
:1045F000A0FB042301FB043100FB0510810041EA0C
:10460000927006900798C117A0FB042301FB0431A8
:1046100000FB0510810041EA927007900598000E9A
:104620008DF808000598000C8DF809000598000A1F
:104630008DF80A000598C0B28DF80B000698000EA0
:104640008DF80C000698000C8DF80D000698000AF5
:104650008DF80E000698C0B28DF80F000798000E76
:104660008DF810000798000C8DF811000798000ACB
:104670008DF812000798C0B28DF8130002AA0C2121
:104680004FF42570FFF754FC08B070BD30B585B00D
:1046900004461DA207CA02AB07C3C82C03DD4FF0B6
:1046A000FF3005B030BDC82090FBF4F0401E85B24D
:1046B000280A8DF80000E8B28DF801006A46022150
:1046C00040F21620FFF734FC10B14FF0FF30E8E75E
:1046D00002AA0C2140F6C120FFF72AFC10B14FF0CE
:1046E000FF30DEE7064884810020DAE7E07F00083B
:1046F0004CCD6C000CC92C00365676002646660060
:104700005405002009E3CA02FEF2ABC4AAF1DFDFC0
:10471000BBAFDFDF0146FC4880890880002070477E
:104720002DE9FC4706460F4606F0070010B1B7F525
:10473000C86F03DD4FF0FF30BDE8FC87384602F05C
:10474000B7FC8146F14902F069FB80466846FEF7F6
:104750007AFD9DF80000022806D0042816D008280B
:1047600026D0102848D135E04FF08D41404602F068
:10477000E7FC814602F064FC84B2E549404602F061
:10478000DFFC814602F05CFC85B238E04FF08C41E2
:10479000404602F0D5FC814602F052FC84B2DD496D
:1047A000404602F0CDFC814602F04AFC85B226E08C
:1047B0004FF08B41404602F0C3FC814602F040FCC2
:1047C00084B2D549404602F0BBFC814602F038FC79
:1047D00085B214E04FF08A41404602F0B1FC8146B8
:1047E00002F02EFC84B2CD49404602F0A9FC81467D
:1047F00002F026FC85B202E04FF0FF309CE700BFDC
:1048000020128DF80400E0B28DF8050028128DF812
:104810000600E8B28DF8070006F00100A0B101AA79
:1048200002214FF4EA70FFF783FB10B14FF0FF3025
:1048300082E70DF1060202214FF49270FFF778FB38
:1048400010B14FF0FF3077E706F00200A0B101AAE7
:1048500002214FF4EC70FFF76BFB10B14FF0FF300B
:104860006AE70DF1060202214FF49470FFF760FB36
:1048700010B14FF0FF305FE706F00400A0B101AACD
:1048800002214FF4EE70FFF753FB10B14FF0FF30F1
:1048900052E70DF1060202214FF49670FFF748FB34
:1048A00010B14FF0FF3047E7002045E738B5044628
:1048B0000020009004F0010020B19DF8000040F0BD
:1048C0003000009004F0020020B19DF8000040F09C
:1048D0000C00009004F0040020B19DF8000040F0AE
:1048E000030000906A4601214FF4A470FFF720FBFB
:1048F00038BD38B50446012C01DA012402E0042C4D
:1049000000DD0424601EC0B200906A46012140F21E
:104910004F10FFF70DFB38BD38B50446052094FB5A
:10492000F0F085B228128DF80000E8B28DF8010091
:104930006A4602214FF4EF70FFF7FAFA38BD38B536
:104940000446052094FBF0F085B228128DF8000093
:10495000E8B28DF801006A4602214FF4ED70FFF7CE
:10496000E7FA38BDF8B505460E464FF47A7095FB68
:10497000F0F000FB06F4200E8DF80000200C8DF8FE
:104980000100200A8DF80200E0B28DF803006A46AB
:1049900004214FF4AE70FFF7CBFAF8BD38B50446EA
:1049A000052094FBF0F084B220128DF80000E0B2F4
:1049B0008DF801006A4602214FF4AD70FFF7B8FA96
:1049C00038BD38B50446052094FBF0F084B22012BF
:1049D0008DF80000E0B28DF801006A4602214FF424
:1049E000AC70FFF7A5FA38BD38B5044614B94FF0DE
:1049F000FF3038BD6A4604214FF45870FFF7D5FAEE
:104A000010B14FF0FF30F4E79DF8000000069DF86C
:104A1000011040EA01409DF8021040EA01209DF893
:104A20000310084320600020E3E738B50446200E59
:104A30008DF80000200C8DF80100200A8DF802008E
:104A4000E0B28DF803006A4604214FF45870FFF776
:104A50006FFA38BD38B5044614B94FF0FF3038BD91
:104A60006A4604214FF47170FFF79FFA10B14FF0BE
:104A7000FF30F4E79DF8000000069DF8011040EAC1
:104A800001409DF8021040EA01209DF80310084300
:104A900000EB8000800020600020E0E738B504468D
:104AA0001420B4FBF0F4200E8DF80000200C8DF8DB
:104AB0000100200A8DF80200E0B28DF803006A467A
:104AC00004214FF47170FFF733FA38BD38B504464E
:104AD00064B120208DF8000028208DF801003020DE
:104AE0008DF8020038208DF8030004E0A322042191
:104AF000684601F0FFF86A46042140F69E20FFF761
:104B000017FAFDF77DFE38BD54050020000048432C
:104B1000000040460000C045000040450000C04481
:104B200038B5044664B1C0208DF80000C2208DF86D
:104B30000100C4208DF80200C6208DF8030004E0B7
:104B40008B220421684601F0D5F86A46042140F61C
:104B50009820FFF7EDF9FDF753FE38BD3EB504464A
:104B60006CB1FDA1D1E900208968CDE90020029156
:104B70006A4609214FF49760FFF7DAF93EBDF9A2C2
:104B8000D2E900109268CDE9010200916A4609213C
:104B90004FF49760FFF7CCF9F0E73EB504460220EA
:104BA0008DF80000CA208DF80100E3208DF8020086
:104BB00009208DF803006A4604216820FFF7B8F940
:104BC000A3208DF8000004F0400048B1C0208DF80B
:104BD0000100C8208DF80200C2208DF8030006E015
:104BE000A3208DF801008DF802008DF8030004F475
:104BF000C07048B1C4208DF80400CC208DF80500A9
:104C0000C6208DF8060006E0A3208DF804008DF87C
:104C100005008DF80600A3208DF807008DF8080028
:104C20008DF809006A460A2140F6A720FFF780F9AF
:104C300004F0030018B120208DF8000002E0D82015
:104C40008DF800006A46012140F6B620FFF770F9A2
:104C500004F0200018B10120FFF780FF02E00020DF
:104C6000FFF77CFF04F4C07008B304F4807060B1F7
:104C7000B2208DF800008B208DF80100B6208DF851
:104C800002009B208DF803000BE0B0208DF800009F
:104C900080208DF80100B4208DF8020090208DF85E
:104CA00003006A46042140F6A220FFF741F904F010
:104CB000010020B3F8208DF800006A4601214FF46E
:104CC0000B60FFF735F9FA210720FFF729FD0720D0
:104CD000FFF7ECFD0120FFF70CFE6420FFF71CFE40
:104CE0004FF4FA70FFF72BFEC821A148FFF73AFEF8
:104CF0002820FFF753FE0A20FFF763FE08E0D820C4
:104D00008DF800006A4601214FF40B60FFF710F99F
:104D100004F0020018B1D9208DF8000002E0D8207C
:104D20008DF800006A46012140F23D70FFF700F95E
:104D300004F0040018B10120FFF7F2FE02E00020A9
:104D4000FFF7EEFE04F0100018B10120FFF7BEFEE1
:104D500002E00020FFF7BAFE44F0080085494881D0
:104D6000FDF74EFD00208349887304F0400018B120
:104D70000846807B801D887304F4C07020B17D4894
:104D8000807B801D7B49887304F0140020B1794832
:104D9000807B10307749887304F0030020B1754898
:104DA000807B001D7349887300203EBD0146714819
:104DB00040890880002070472DE9F0410446E078E2
:104DC00000F0C006E07800F03F05607800F00100D8
:104DD00098B1EF102846E91705EB5171C910A5EB02
:104DE000C101491C01F0FF086248006820B1614818
:104DF000414602683846904700BF607800F00800DE
:104E000030B15C48406818B1B0115A4A51688847BF
:104E10000020BDE8F08110B586B0044656A207CA4E
:104E200003AB07C357A207CA8DE80700012C09D0BE
:104E3000022C0ED103AA0B2140F68220FFF778F84E
:104E400006B010BD6A460B2140F68220FFF770F8CD
:104E5000F6E74FF0FF30F3E72DE9F04F8DB007464E
:104E6000884615469946DDE9166B002400203080FF
:104E70004049887B5A4605A9FEF7BDFB18B1601E64
:104E80000DB0BDE8F08F3B48807A00F01400002898
:104E900061D09DF8140000069DF8151040EA01400D
:104EA0009DF8161040EA01209DF81710084328606D
:104EB0009DF8180000069DF8191040EA01409DF881
:104EC0001A1040EA01209DF81B10084368609DF805
:104ED0001C0000069DF81D1040EA01409DF81E10C0
:104EE00040EA01209DF81F100843A8609DF82000AB
:104EF00000069DF8211040EA01409DF8221040EA8A
:104F000001209DF823100843E86004F11000C4B2AA
:104F1000286800140190686800140290A8680014C2
:104F20000390E8680014049001984043029901FB43
:104F30000100039901FB0100049901FB010ABAF188
:104F4000706F02DBBAF1885F22DDFDF759FC0020AB
:104F50003080401E94E721E0B8AAB38DB4980D3597
:104F60005D000000B8AAAAAAB088C3C5C7000000A7
:104F700009E3CA0254050020D8B1B9F38BA391B656
:104F800009B4D900DAB1B9F38BA391B6DAB4DA0077
:104F9000B6F9000040F48070308000BF3448807A59
:104FA00000F0400020B305A9601C085C095D40EAE0
:104FB000012000B2A8F8000005A9E01C095C05AAC0
:104FC000A01C105C41EA002000B2A8F8020005A96C
:104FD000601D095C201D105C41EA002000B2A8F8A9
:104FE0000400A01DC4B2B6F9000040F008003080F3
:104FF0001F48408900F4C07008B305A9601C085C14
:10500000095D40EA012000B2388005A9E01C095C76
:1050100005AAA01C105C41EA002000B2788005A916
:10502000601D095C201D105C41EA002000B2B880C0
:10503000A01DC4B2B6F9000040F0700030800C48EA
:10504000807A00F0030018B105A90819FFF7B4FE33
:105050004846FDF734FF002012E70146044801608E
:105060000020704701460248416000207047000060
:10507000540500202DE9F04105460C46AA48016878
:10508000204602F065F90746A8480168384602F054
:1050900057F80646A6480168304601F051FEA4497B
:1050A0000860A4484168A448006802F051F9064627
:1050B000A0488168304602F04BF9A04908609D483D
:1050C000C06880F0004048609A48C06880F00040A6
:1050D00088609B480068C86008689449096802F0C5
:1050E0002FF8064693480168304601F029FE9149A1
:1050F0000860924948688D49096802F021F806461F
:105100008C484168304601F01BFE8A4948608B4953
:1051100088688649096802F013F806468548816860
:10512000304601F00DFE834988608449C8687F4994
:10513000096802F005F806467E48C168304601F06D
:10514000FFFD7C49C8607A480168284602F000F9F2
:105150007C4908607C48007801F0AAFF0646754843
:105160000168304601F0ECFF784908607648007825
:1051700001F09EFF06466F488168304601F0E0FF6F
:10518000734908607048007801F092FF07466F4845
:105190000168384601F0D4FF06466E480168304683
:1051A00001F0CEFD6C490860084601686748006858
:1051B00001F034FE69490860674801686448006886
:1051C00001F02CFE66490860604800686549086087
:1051D0005D48007801F06CFF06465648416830464D
:1051E00001F0AEFF604908605E4801685B480068F6
:1051F00001F0A6FF06464F480168304602F09DF8D0
:105200004C490860584801685448006801F098FF0C
:10521000064648484168304602F08FF845494860E4
:10522000504801684E48006801F08AFF0646414830
:105230008168304602F081F83E4988604A4801683A
:105240004748006801F07CFF06463A48C16830468E
:1052500002F073F83749C8603A4801683F4800686F
:1052600001F06EFF064632480168304601F068FDE5
:105270002F490860334801683948006801F060FF31
:10528000064629480168304601F05AFD2649086063
:1052900008460168204602F05BF834490860BDE822
:1052A000F0812DE9F04F8BB083468A46504601F0DD
:1052B0001BFD80462E4A2F4B01F022FBCDE9020157
:1052C0001B48006801F010FDCDE90001DDE9022373
:1052D00001F00EF904460D46274801684FF07E5054
:1052E00002F036F8804601F0FFFC064622462B46C7
:1052F00001F006FBCDE906011F480168584601F0A0
:105300001FFF044601F0F0FCCDE90401DDE90623AE
:1053100001F0EEF8CDE9080101F0B8F804490860A1
:105320000BB0BDE8F08F0000D8000020D0000020B6
:10533000BC000020FC000020C40000206405002008
:10534000C8000020DC000020D4000020E000002085
:10535000E4000020CC000020E8000020EC00002049
:10536000F0000020F4000020F8000020C000002021
:105370007B14AE47E17A743FB8000020014691F9F2
:105380000020002A01DD00201EE091F90020002A03
:1053900001DA042018E091F90120002A01DD012042
:1053A00012E091F90120002A01DA05200CE091F9C0
:1053B0000220002A01DD022006E091F90220002AE5
:1053C00001DA062000E00720704770B50546284640
:1053D000FFF7D4FF0446E81CFFF7D0FF44EAC00003
:1053E00084B2A81DFFF7CAFF44EA801084B22046A9
:1053F00070BD70B588B002A905A8FEF70EFD044681
:10540000072C3FD101A8FDF77DFF059801F038FE7C
:105410000646019901F094FE054601F0F5FD059060
:10542000069801F02DFE0646019901F089FE054619
:1054300001F0EAFD0690079801F022FE0646019968
:1054400001F07EFE054601F0DFFD079005A8FEF79E
:10545000F4FF6846FDF773FFBDF80010029848435B
:105460000290BDF80010039848430390BDF8001067
:1054700004984843049002A8FFF772F8FEA000F0D9
:1054800091FB00BF08B070BD2DE9F04304460D4606
:10549000DDE907670021012041E0DFF800C43CF8A6
:1054A0001080A0F1010CDFF8F49329F81C8009F1B9
:1054B000160C3CF81090A0F1010CDFF8E08308F125
:1054C000160828F81C9008F1160C3CF81090A0F172
:1054D000010C08F1160828F81C9008F1160C3CF88D
:1054E0001090A0F1010C08F1160828F81C9008F1A2
:1054F000160C3CF81090A0F1010C08F1160828F8E1
:105500001C9008F1160C3CF81090A0F1010C08F169
:10551000160828F81C9000F1010C0CF0FF000A2876
:10552000BBDBDFF878C3ACF81240ACF82850ACF81D
:105530003E20ACF85430ACF86A60ACF880700021C2
:10554000002008E0DFF854C33CF910C0614400F1CA
:10555000010C0CF0FF000A28F4DB4FF00A0C91FB61
:10556000FCFC0FFA8CFCDFF83483A8F814C000218F
:1055700000200AE0DFF824C30CF1160C3CF910C03F
:10558000614400F1010C0CF0FF000A28F2DB4FF03F
:105590000A0C91FBFCFC0FFA8CF8DFF800C3ACF8A6
:1055A0002A80002100200AE0DFF8F0C20CF12C0C68
:1055B0003CF910C0614400F1010C0CF0FF000A2816
:1055C000F2DB4FF00A0C91FBFCFC0FFA8CF8DFF8D1
:1055D000CCC2ACF84080002100200AE0DFF8BCC259
:1055E0000CF1420C3CF910C0614400F1010C0CF0CC
:1055F000FF000A28F2DB4FF00A0C91FBFCFC0FFACB
:105600008CF8DFF898C2ACF85680002100200AE040
:10561000DFF888C20CF1580C3CF910C0614400F16D
:10562000010C0CF0FF000A28F2DB4FF00A0C91FB92
:10563000FCFC0FFA8CF8DFF864C2ACF86C80002137
:1056400000200AE0DFF854C20CF16E0C3CF910C0E7
:10565000614400F1010C0CF0FF000A28F2DB4FF06E
:105660000A0C91FBFCFC0FFA8CF8DFF830C2ACF8A6
:105670008280BDE8F08338B50446032302226B2103
:10568000D0200094FBF7E2FA38BD38B50446022377
:1056900004221B21D0200094FBF7D8FA38BD38B57E
:1056A0000446022304221C21D0200094FBF7CEFAEA
:1056B00038BD10B50446234606226B21D020FBF7E7
:1056C000FAFA10BD10B5764B01227521D020FBF7F8
:1056D0004AFA7348007810BD10B5FFF7F3FF682849
:1056E00001D1012010BD0020FCE710B5044623467F
:1056F00005226A21D020FBF7DEFA10BD10B5044662
:10570000234601223721D020FBF7D5FA10BD10B572
:105710000220FFF7B0FF0320FFF7B7FF0020FFF7DD
:10572000BEFF0020FFF7C5FF0020FFF7DEFF0020CF
:10573000FFF7E4FF10BD38B5002000906B46012252
:1057400075216820FBF7B1F956A000F02BFA9DF8FF
:10575000000068280ED000BF5B48006800F4E060DD
:105760005A490843001D58490860BFF34F8F00BFD6
:1057700000BFFEE7FDF7D3FA00283CD17820FCF704
:1057800036FF10B947A000F00DFA7820FDF716F9A2
:1057900010B94FA000F006FAC820FDF7F0F910B9D3
:1057A00055A000F0FFF9FEF7ADFD10B95CA000F0C8
:1057B000F9F96848FFF709FE0446FEF7ADFD10B998
:1057C00065A000F0EFF940F27310FFF7E6F910B9A9
:1057D0006BA000F0E7F9C820FEF758FF10B972A0DF
:1057E00000F0E0F9FFF705FE0120FEF7D1FA10B94D
:1057F00076A000F0D7F938BD2DE9F04F91B00EA892
:105800007B490FAB0AAACDE900107A497A48FFF725
:1058100023FB7748008800F4807000282AD00A987B
:1058200001F02EFC04464FF09D4101F0F7FA734958
:1058300008600B9801F024FC04464FF09D4101F0F4
:10584000EDFA6F4908600C9801F01AFC04464FF01D
:105850009D4101F0E3FA6B4908600D9801F010FCDE
:1058600004464FF09D4101F0D9FA674908600846A7
:105870000168CBE01FE1000073657474696E6720F6
:10588000626961732073756363657366756C6C79A7
:10589000202E2E2E2E2E2E0D0A0000008205002016
:1058A000740500206D70755F7365745F73656E734A
:1058B0006F7220636F6D706C657465202E2E2E2EB6
:1058C0002E2E0D0A000000000CED00E00000FA058D
:1058D0006D70755F636F6E6669677572655F666927
:1058E000666F20636F6D706C657465202E2E2E2E92
:1058F0002E2E0D0A000000006D70755F7365745FD9
:1059000073616D706C655F7261746520636F6D703B
:105910006C657465202E2E2E2E2E2E0D0A00000092
:10592000646D705F6C6F61645F6D6F74696F6E5FE3
:105930006472697665725F6669726D7761726520FF
:10594000636F6D706C657465202E2E2E2E2E2E0DBD
:105950000A00000038010020646D705F7365745F99
:105960006F7269656E746174696F6E20636F6D70BC
:105970006C657465202E2E2E2E2E2E0D0A00000032
:10598000646D705F656E61626C655F66656174759C
:10599000726520636F6D706C657465202E2E2E2EDF
:1059A0002E2E0D0A00000000646D705F7365745F39
:1059B0006669666F5F7261746520636F6D706C6598
:1059C0007465202E2E2E2E2E2E0D0A006D70755F02
:1059D0007365745F646D705F737461746520636F69
:1059E0006D706C657465202E2E2E2E2E2E0D0A00E5
:1059F00018010020120100200C01002028010020C5
:105A00002C0100203001002034010020006801F04A
:105A100097FB059045480168006801F091FB0490F0
:105A200043480168006801F08BFB0290414801681F
:105A3000006801F085FB0190029901F081F9039063
:105A4000049901F085FC8346059901F081FC8246AA
:105A500001F04AF9CDE90801374801683548006886
:105A600001F06EFB0590314801683148006801F093
:105A700067FB0490059901F063F983464FF080417C
:105A800001F05EFB824601F02FF9CDE90601DDE968
:105A9000082300F03BFC06464FF06632274B00F02F
:105AA0002FFF04460022264B00F022FD804600F026
:105AB000EDFC2449086011B0BDE8F08F2DE9F05FDE
:105AC0004221D020FBF72CF805464121D020FBF7DE
:105AD00027F805EB0024204601F0D2FA82464FF069
