:020000040800F2
:10000000880C0020DD010008E1010008E301000880
:10001000E5010008E7010008E90100080000000010
:10002000000000000000000000000000EB010008DC
:10003000ED01000800000000EF010008F1010008D8
:10004000F3010008F3010008F3010008F3010008C0
:10005000F3010008F3010008F30100087517000818
:10006000F3010008F3010008F3010008F3010008A0
:10007000F3010008F3010008F3010008F301000890
:10008000F3010008F3010008F3010008F301000880
:10009000F3010008F3010008F30100082913000828
:1000A000F3010008532A0008F3010008F3010008D7
:1000B000F3010008F3010008F3010008F301000850
:1000C000F3010008F3010008F3010008F301000840
:1000D000F30100083B08000859260008F301000856
:1000E0000D160008F3010008F301000800F002F803
:1000F00000F05FF80AA090E8000C82448344AAF163
:100100000107DA4501D100F054F8AFF2090EBAE860
:100110000F0013F0010F18BFFB1A43F0010318473B
:10012000709D0000909D00000A444FF0000C10F8F4
:10013000013B13F0070408BF10F8014B1D1108BF65
:1001400010F8015B641E05D010F8016B641E01F805
:10015000016BF9D113F0080F1EBF10F8014BAD1C55
:100160000C1B09D16D1E58BF01F801CBFAD505E073
:1001700014F8016B01F8016B6D1EF9D59142D6D3CD
:10018000704700000023002400250026103A28BFF5
:1001900078C1FBD8520728BF30C148BF0B607047F9
:1001A000642906F0C384002070471FB51FBD10B539
:1001B00010BD06F07BFE1146FFF7F7FF00F02AF8AE
:1001C00006F099FE03B4FFF7F2FF03BC00F076FAE5
:1001D00030BF72B662B680F308887047084800479F
:1001E000FEE7FEE7FEE7FEE7FEE7FEE7FEE7FEE7E7
:1001F000FEE7FEE703480449044A054B7047000048
:10020000ED00000888060020880C002088080020E7
:100210008808002008B5092000F0F7F9482000F010
:1002200097F8022000F0DCF9012000F0D9F94FF432
:100230001651482000F051FA02F0DFFA472140F24F
:10024000CF7001F07FFD00F035FB01F055FE38481E
:1002500001F058FE06F0DFF906F0F1F900F0E2FDDA
:1002600001F03CF801F034F900F089FF03F043F8A5
:1002700001F0EAFB4FF46141242001F068FB4721C3
:1002800041F2873000F0A0FD50E02A48006807F0F6
:100290009FFF04460C20032322460A2100900020E1
:1002A00000F001FF2448006807F092FF04460C208C
:1002B000032322460A2100901E2000F0F4FE0C20A9
:1002C000022300901D4802780A212D2000F0EBFE49
:1002D0000C20022300901A4802780A213C2000F0EA
:1002E000E2FE0C200123009016480278192100201C
:1002F00000F0D9FE0C200123009013480278192148
:100300000F2000F0D0FE0C20032300900F4802883D
:100310001921412000F0C7FE00F0E5FD07480078F4
:10032000012803D102F060FC02F0F3FCADE700000D
:1003300000004842500100208C0000202C000020CA
:100340009C0000207E0000207F000020680000202C
:100350004FF0E021096921F004014FF0E022116122
:10036000C21700EB5272C2F3C702234B1A70194630
:10037000097801EB4102C2EBC1114FF6FF7202EAAC
:10038000C1011E4A1180704701461B4A12784A4338
:100390004FF0E0235A6100229A6101221A6100BFE6
:1003A0004FF0E022106900F001021AB100F480322F
:1003B000002AF5D000224FF0E0231A619A617047BD
:1003C00001460E4A12884A434FF0E0235A61002248
:1003D0009A6101221A6100BF4FF0E022106900F01B
:1003E00001021AB100F48032002AF5D000224FF049
:1003F000E0231A619A617047080000200A0000207B
:10040000A34A0A400243A34B1A60704701460723E0
:1004100023EA010212029F4B1B1D18684FF6FF03CF
:1004200018409D4B184310439A4B1B1D1860704792
:100430002DE9F0410746884614461D462846FFF739
:10044000E5FFC5F1040007FA00F60F20284100EA95
:100450000800064306F00F06E21704EBD2625211C1
:10046000920002F1E022D2F800212146E31704EBCA
:10047000D3635B11A4EB431C012303FA0CF31A436F
:100480002046E31704EBD3635B119B0003F1E023E9
:10049000C3F800218148005D40EA06107F490855F5
:1004A000BDE8F08170B504460B46CE1701EB967699
:1004B000C6F38700CE1701EB9676B610A1EB860641
:1004C000B606350E764B9B6943F00103744EB3615B
:1004D0004FEAB63353F820300F26AE40B343714E87
:1004E00046F82030334653F8203004FA05F61E4310
:1004F0006C4B43F820606C4B1B6801268E403343E5
:10050000694E336002F0010343B1674B0C331B6843
:1005100001268E403343644E0C36336002F00203F2
:1005200043B1614B08331E6801238B401E435E4B71
:1005300008331E6070BD00B5002059490861C860CD
:100540001420486100208861C8610846006840F0B6
:100550000100086008464068544908405049486016
:1005600008460068524908404D490860084600683E
:1005700020F4802008600846406820F4FE004860AF
:100580000020886000214FF00060FFF739FF00BDB8
:1005900010B540480830006840F004003D4908317B
:1005A00008603F48C06940F080503D49C8614148FB
:1005B000406840F480703F4948600846006840F059
:1005C000040008600846006840F002000860FFF779
:1005D000FFFD10BD3048001D2E49091D0860704701
:1005E000014649062E4A926942F001022C4B9A615B
:1005F0002C4A083A526822F0E0622A4B083B5A60C3
:100600001A4652680A435A60704730B504460025BE
:10061000FFF791FF2248006840F4803020490860CD
:1006200000BF1F480068400C0028FAD04FF48060DB
:100630001B494860A01EC4B20846406840EA844096
:1006400048600846406840F4803048601A480068B6
:1006500040F03200184908601148006840F080708E
:100660000F49086000BF0E480068400E0028FAD00D
:100670000B48406840F002000949486005E008481E
:100680004068C0F3870505F00305022DF7D130BDA2
:1006900080FFFF1F08ED00E00000FA0500E400E025
:1006A0000010024008000140000401400000FFF873
:1006B000FFFFF6FE0070004000200240014600BF30
:1006C000704700BF6F4A128802F04002002AF9D03A
:1006D000C2B26C4B1B1D1A8070472DE9F05F0546B6
:1006E0000E46300107F0C8FD8146674905FB01F061
:1006F00007F0C2FD8246494607F074FC07463846BB
:1007000007F082FD84B2204607F0B6FD83463946E5
:1007100007F0F7FE82464FF0834107F0F5FD814672
:1007200007F072FD80464FF6FF7000EA041404EBF8
:10073000080084B25548806940F00400534988613C
:100740000846806940F4804088615148006820F480
:100750007F604F4908600846006840F40B600860FD
:100760004A48C06840F480404849C8600846C068AC
:1007700020F48040C860434808300480001D008891
:1007800042F20C0108433F490C31088008460088BA
:1007900040F4807008800846008840F020000880FF
:1007A0000223252200210846FFF742FEBDE8F09F04
:1007B00008B53848007801283ED100203549087036
:1007C0003548007800F00F006421484332494978E9
:1007D00001F00F0101EB810100EB41002E49897806
:1007E00001F00F0108442D4908800C2003230090DC
:1007F0000846028819212D2000F055FC2748008862
:10080000642190FBF1F026490860244800880A2101
:1008100090FBF1F090FBF1F201FB1200214908601E
:100820001E4800880A2190FBF1F201FB12001E49CC
:10083000086001201D49087008BD10B511480088E6
:1008400000F02000D8B10F48001D0088C4B2124843
:10085000174909784454C0780D2802D101200D4968
:10086000087013480078401C114908700846007849
:10087000042801D100200870FFF79AFF00BF002074
:1008800010BD00000038014040420F00001002403F
:100890000408014014000020100000201600002071
:1008A0001C0000202000002024000020190000204F
:1008B00018000020F948806940F00400F749886179
:1008C000F74800684FF20F018843F5490860084671
:1008D000006843F203010843F1490860704710B50E
:1008E000EF48006820F00F00ED49086008460068F6
:1008F00040F0030008600120EA490860EA48D0F8A7
:10090000200108B9002010BD0120E6490C31086023
:10091000FFF73AFD0020E449C1F8A001E148803822
:10092000006808B10020EEE70120FFF72DFD002050
:10093000DC490C3108600120E5E710B5D8480068B3
:1009400020F00F00D64908600846006840F0030018
:1009500008600020D3490C310860D349C1F8A001D8
:100960000120FFF711FD0120CE490C310860CE496E
:10097000C1F8A001FFF708FD10BD10B50024C8485C
:10098000006820F00F00C64908600846006840F083
:10099000080008600120C3490860FFF7F5FC01204A
:1009A000C149C1F8AC01FFF7EFFC0AE0601CC4B21A
:1009B000322C03DDFFF7C1FF002010BD0120FFF73F
:1009C000E3FCB848803800680028EFD1B5490C3105
:1009D00008600120F1E710B50020B2490C31086031
:1009E000AF48006820F00F00AD4908600846006875
:1009F00040F0030008600020AB49C1F8A0010120CD
:100A0000FFF7C2FC0120A7490C310860FFF7BCFCCE
:100A10000020A549C1F8AC0110BD10B50020A149C6
:100A20000C3108609E48006820F00F009C49086067
:100A30000846006840F00300086001209A49C1F8A8
:100A4000A001FFF7A1FC012096490C310860FFF7D7
:100A50009BFC00209449C1F8AC0110BD70B5044660
:100A60008F48006820F00F008D4908600846006834
:100A700040F00300086000208A490C31086000251E
:100A800016E0E009874908606006040E0120FFF7C0
:100A90007BFC01208449C1F8AC01FFF775FC002004
:100AA00080490C3108600120FFF76EFC681CC5B25C
:100AB000082DE6DB70BD2DE9F04105460E461746D0
:100AC0009846FFF70CFF10B90120BDE8F0816906D8
:100AD000080EFFF7C3FFFFF750FF18B9FFF72DFF10
:100AE0000120F2E73046FFF7B9FFFFF746FF002489
:100AF0000BE018F80400FFF7B1FFFFF73EFF18B94D
:100B0000FFF71BFF0020E0E7641CBC42F1DBFFF7AE
:100B100014FF0020D9E770B505460024604800683E
:100B200020F00F005E4908600846006840F00800A9
:100B30000860002617E000205A490C3108600220A6
:100B4000FFF722FC01205849C1F8AC016006040EF1
:100B500054488038006808B1601CC4B20220FFF716
:100B600013FC701CC6B2082EE5DB15B1FFF733FF8E
:100B700001E0FFF752FF204670BD2DE9F041064627
:100B80000F4614461D46FFF7AAFE10B90120BDE826
:100B9000F0817106080EFFF761FFFFF7EEFE18B94E
:100BA000FFF7CBFE0120F2E73846FFF757FFFFF7CC
:100BB000E4FEFFF794FE012101EB4601C8B2FFF706
:100BC0004DFFFFF7DAFE0DE0012C04D10020FFF706
:100BD000A2FF287003E00120FFF79DFF28706D1C25
:100BE000601EC4B2002CEFD1FFF7A7FE0020CEE7B5
:100BF00070B505460E460024FFF771FE2846FFF744
:100C00002DFF641CFFF7B9FE3046FFF727FF641C79
:100C1000FFF7B3FEFFF763FE691CC8B2FFF71EFFC4
:100C2000641CFFF7AAFE0020FFF775FF0446FFF7DC
:100C300084FE204670BD2DE9F041074688461546E2
:100C40001E460024FFF74BFE3846FFF707FFFFF76D
:100C500094FE4046FFF702FFFFF78FFEFFF73FFECF
:100C6000791CC8B2FFF7FAFEFFF787FE00BF0DE060
:100C7000681EA04204D00120FFF74DFF305503E06D
:100C80000020FFF748FF3055601CC4B2AC42EFDBD8
:100C9000FFF753FE2046BDE8F0810000001002403F
:100CA00004080140A0012142000021422DE9F04149
:100CB00080460D4616461F460024FFF710FE4046AC
:100CC000FFF7CCFEFFF759FE2846FFF7C7FEFFF7F8
:100CD00054FE00BF06E0385DFFF7C0FEFFF74DFE93
:100CE000601CC4B2B442F6DBFFF727FE0120BDE86A
:100CF000F08170B505460E46144631462846FFF78A
:100D000077FF2070012070BD37B504460D4602AB59
:100D1000012229462046FFF7C9FF3EBD2DE9F843D1
:100D20000746884614461D46089E6A464146384690
:100D3000FFF7DFFF28B3601CFF2101FA00F0C4F1C8
:100D400008012944491EFF220A41104300F0FF090F
:100D5000C5F1080006FA00F0C6B2C4F1070006416A
:100D60009DF8000000EA090000909DF80000304363
:100D700000909DF8002041463846FFF7C5FFBDE8CA
:100D8000F8830020FBE7F8B506460F4614461D46DB
:100D90006A4639463046FFF7ACFF2DB10120A0402E
:100DA0009DF80010084305E00120A0409DF80010C8
:100DB00021EA0000C0B200909DF80020394630467C
:100DC000FFF7A2FFF8BD000070B505460C461348BA
:100DD000806940F400601149886111480580001F56
:100DE00004800F482038008840F001000C49203969
:100DF00008800846008840F04000088008482C38E9
:100E0000008840F0010006492C390880022319228D
:100E100001210846FFF70CFB70BD000000100240E6
:100E20002C2C01401748806940F004001549886166
:100E30001548006820F47F201349086008460068C0
:100E400040F44C30086010480C30006840F010004E
:100E50000D490C310860704718B900210B4A116028
:100E60000FE00B490968491C094A1160814208D109
:100E700006490968C943074AC2F890110021044A8B
:100E800011607047001002400008014090012142AB
:100E9000280000200000214210B50A461AB10123A3
:100EA000FE4C236002E00023FC4C2360002114E090
:100EB0000023FB4C236000F080031BB10123241F9F
:100EC000236003E00023F64C241F23600123F44C2D
:100ED00023604306180E4B1CD9B20829E8DB012316
:100EE000EE4C236010BD30B500241CE004F1B001CD
:100EF000C8B20021FFF7D0FF00210846FFF7CCFF62
:100F000000211020FFF7C8FF002508E0E54901EBAC
:100F1000C501085D0121FFF7BFFF681CC5B2802D28
:100F2000F4DB601CC4B2082CE0DB30BD00B500214E
:100F30008D20FFF7B1FF00211420FFF7ADFF002146
:100F4000AF20FFF7A9FF00BD00B500218D20FFF7FE
:100F5000A3FF00211020FFF79FFF0021AE20FFF725
:100F60009BFF00BD30B500240CE0002506E000200A
:100F7000CC4901EBC5010855681CC5B2802DF6DBD4
:100F8000601CC4B2082CF0DBFFF7ADFF30BDF0B53C
:100F9000144600267F2801DC3F2900DDF0BD0B460A
:100FA000CF1701EB5777FF10C7F10707FAB2CF173A
:100FB00001EB5777FF10A1EBC707FDB2C5F107079B
:100FC0000123BB40DEB24CB1B64B03EBC0039B5CCC
:100FD0003343B44F07EBC007BB5408E0B14B03EBFE
:100FE000C0039B5CB343AF4F07EBC007BB5400BFCC
:100FF000D4E72DE9F04F80460C4615461E46A34621
:10100000A5F12000C5B200273EE00C2E07D105EB6C
:101010004500A54901EB800010F8079004E0A348C3
:1010200000EB051010F807904FF0000A26E009F0D9
:10103000800028B121464046099AFFF7A8FF09E041
:10104000099808B9012000E00020024621464046E8
:10105000FFF79DFF4FEA49604FEA1069601CC4B278
:10106000A4EB0B00B04205D15C4608F1010000F092
:10107000FF0806E00AF1010000F0FF0ABAF1080FCC
:10108000D5DB00BF781CC7B2B742BEDBBDE8F08F2E
:1010900010B50246012000E050430B1EA1F10104EF
:1010A000E1B2F9D110BD2DE9FF4F81B0074691465D
:1010B0001E460E9D4FF0000A002439E0301B401EF2
:1010C000C1B20A20FFF7E4FFB9FBF0F00A21B0FB40
:1010D000F1F201FB1208BAF1000F16D1701EA04206
:1010E00013DDB8F1000F0ED10120AB4605EBDB712B
:1010F000491001FB04710090C8B22B4620220299CE
:10110000FFF777FF12E04FF0010A0120AB4605EB35
:10111000DB71491001FB04710090C8B208F1300185
:10112000CAB22B460299FFF764FF00BF601CC4B22D
:10113000B442C3DB05B0BDE8F08F78B505460E4676
:10114000144618E07A2D03DD002506F11000C6B222
:101150003A2E04DD002005460646FFF703FF012076
:10116000009022780C2331462846FFF742FF05F114
:101170000800C5B2641C20780028E3D178BD10B502
:101180004B48806940F00800494988614948006837
:1011900049490840474908600846006847490843EC
:1011A000444908604248806940F004004049886131
:1011B0004348006820F070404149086008460068D4
:1011C00040F000500860002035490839086064206C
:1011D000FFF7F6F801203B49C1F88C010021AE2051
:1011E000FFF75AFE0021D520FFF756FE00215020C0
:1011F000FFF752FE0021A820FFF74EFE00213F20FE
:10120000FFF74AFE0021D320FFF746FE00210846E3
:10121000FFF742FE00214020FFF73EFE00218D2017
:10122000FFF73AFE00211420FFF736FE00212020B0
:10123000FFF732FE00210220FFF72EFE0021A12041
:10124000FFF72AFE0021C020FFF726FE0021DA204A
:10125000FFF722FE00211220FFF71EFE0021812051
:10126000FFF71AFE0021EF20FFF716FE0021D9201C
:10127000FFF712FE0021F120FFF70EFE0021DB2018
:10128000FFF70AFE00213020FFF706FE0021A42010
:10129000FFF702FE0021A62016E00000BC0121425B
:1012A0009481214274010020F2860008668B0008B8
:1012B00000100240000C0140FF0F00FF0020220040
:1012C0000408014000802142FFF7E6FD0021AF2025
:1012D000FFF7E2FDFFF746FE10BD000010B56E48B7
:1012E000806940F004006C4988616C48006820F413
:1012F00070006A4908600846006840F40000086011
:1013000066480C30006840F4004064490C310860C5
:10131000012205210020FFF7C5F802231722012131
:101320001846FFF785F810BD10B50A20FFF748F8FA
:101330005B48006888B95A487C300068C043594906
:10134000C1F8900158480078401C57490870084679
:101350000078032801D1002008702020534908603C
:1013600010BD01464E48006828B951480088401C0D
:101370004F4A108002E000204D4A10804848006823
:1013800028B94C48007810B901204A4A10704A48E0
:101390000078B0B947480078012807D1474800785D
:1013A000401C464A10700120434A107043480078A0
:1013B000022806D10020414A1070414A10800220C4
:1013C000704737480068012804D10020394A10705E
:1013D000394A10703948007801281CD138480088F3
:1013E000401C374A10801046008888420ADD304889
:1013F0000088884206DA0020304A1070304A108097
:101400000120DDE72A480088884204DD00202B4ABD
:1014100010702B4A10800020D2E710B529480078C0
:1014200068B11F48006850B90A20FEF7C9FF1C4880
:10143000006850B9002023490870012010BD1848E9
:101440000068012801D11F4908700020F6E71E48F6
:10145000008840B91248006828B91C480088401C20
:101460001A49088002E000201849088017480088BF
:10147000C82807DD0120144908800020134908808E
:101480000120704710480088012802D100200E4931
:1014900008800020F5E7000000100240000801402D
:1014A00014012142000021422C00002014040140BC
:1014B000320000202D0000202E0000202F000020F0
:1014C00030000020340000203800002036000020CA
:1014D00010B5FE48806940F00800FC498861084664
:1014E000806940F004008861F948006820F0F0004D
:1014F000F74908600846006840F080000860F4483A
:101500000C30006840F00200F1490C310860F148ED
:10151000006880B2EF49086008460068EE49084359
:10152000EC490860EB480C30006840F47040E94931
:101530000C310860022201210020FEF7B3FF0322D4
:101540000C210120FEF7AEFF03220D210120FEF742
:10155000A9FF03220E210120FEF7A4FF03220F2181
:101560000120FEF79FFF0223072200210846FEF715
:101570005FFF0223282200210846FEF759FF10BD15
:1015800010B5D248806940F00400D0498861D04845
:10159000001D006820F47020CD49091D0860084630
:1015A000006840F400200860C9480C30006840F42E
:1015B0008050C7490C310860C548006820F0F00031
:1015C000C34908600846006840F080000860C048D1
:1015D0000C30006840F00200BD490C310860022266
:1015E0000C210020FEF75EFF022201210020FEF701
:1015F00059FF0223282200210846FEF719FF022383
:10160000072200210846FEF713FF10BD10B5B348AE
:10161000006800F4805078B1B1480078B149097889
:10162000884205D1B0488078012801D1AF490870BF
:101630004FF48050A9490860A848006800F40050A1
:10164000D8B1A7480078A7490978884206D1A648AA
:101650008078022802D10120A4490870A0480078AF
:10166000042806D1A0488078022802D10120A04990
:1016700008704FF40050994908609848006800F4D9
:10168000804000283BD096480078042809D199482A
:10169000007830B994488078032802D10120964917
:1016A00008701220FEF78CFE94480068012804D1CF
:1016B00093480078401C92490870894800780628B1
:1016C00008D18C48007828B98C480068012801D1DD
:1016D0008C4908708248007868B98648007850B90B
:1016E00081488078022806D187480078042802D1F2
:1016F0000120864908704FF4804078490860774897
:10170000006800F40040A0B37548007804280AD1AE
:1017100078480078022806D173488078042802D1DE
:1017200001207B4908706E48007804280CD171486C
:10173000007848B96C488078032805D101206E49AB
:1017400008700020684988706548007868B9694861
:10175000007850B964488078022806D16A48007839
:10176000042802D10120694908704FF400405B4908
:10177000086010BD08B51220FEF722FE654800681B
:10178000012810D164480068401C634908600C209F
:10179000022300900846002102685A20FFF783FCCC
:1017A00001205E49086002204C49086008BD2DE90F
:1017B000F0414D48007802283CD14B484078012840
:1017C00038D14E48006810B94C48001D00684B489D
:1017D000001D0068012801D1484800684748001DE5
:1017E000006888B94548006801280DD14C48006858
:1017F00006F05EFB06464B4A4B4B06F06FFA04467A
:1018000005F036FE464908603C48001D0068012886
:1018100010D13A48006868B94148006806F048FBB2
:101820000646404A404B05F055FE044605F020FEB2
:101830003B4908602C480078012840D12A4840786C
:1018400004283CD12D480838006810B92B48001FE7
:1018500000682A48001F0068012802D1274808387C
:1018600000682648001F006890B9244808380068BE
:1018700001280DD12A48006806F01AFB0646294ABD
:10188000294B06F02BFA044605F0F2FD24490860C6
:101890001A48001F0068012811D11848083800684C
:1018A00068B91F48006806F003FB06461D4A1E4B38
:1018B00005F010FE044605F0DBFD194908600A48F2
:1018C000007898BB00231A46194630E00010024009
:1018D00000080140000C0140000088881404014009
:1018E0007E000020810000205000002041000020E8
:1018F000A60000207F000020A400002038812142A3
:101900009C000020A1000020A3000020A2000020D5
:10191000A5000020040121424400002048000020CE
:101920008C000020B81E85EB51B89E3F02E018469F
:1019300000F07AFABDE8F0813E49088000BF3D49D9
:10194000091F098801F040010029F8D070472DE9EE
:10195000F05F05460E46300106F08EFC81463649A2
:1019600005FB01F006F088FC8246494606F03AFB8A
:101970000746384606F048FC84B2204606F07CFC58
:101980008346394606F0BDFD82464FF0834106F09E
:10199000BBFC814606F038FC80464FF6FF7000EA3B
:1019A000041404EB080084B22448806940F0040069
:1019B000224988610846C06940F40030C861204867
:1019C000006820F47F401E4908600846006840F423
:1019D0000B4008601A480C30006840F480601849D9
:1019E0000C3108601548006940F4802013490861F3
:1019F0000846006920F48020086112480480001D18
:101A0000008842F20C0108430E49091D088008466F
:101A1000008840F4807008800846008840F020006C
:101A200008800223262201210020FEF701FDBDE8E7
:101A3000F09F00000438014040420F0000100240B7
:101A40000008014008440040B048806940F014009C
:101A5000AE498861AE48006820F00F00AC490860CC
:101A60000846006840F003000860AA48006820F0BB
:101A70007F40A84908600846006840F04C50086064
:101A8000081D006820F0FF00091D08600846006876
:101A900040F033000860A0484068C0F313009E493E
:101AA0004860084640689D4908439B494860704724
:101AB00001209B49086000209A49C1F8A401012037
:101AC000994908600020091D086001209449091FF8
:101AD00008600020091F0860012093490831086050
:101AE00000209249C1F88001704701208C49091DEE
:101AF000086000208B49C1F8A00101208A490860D4
:101B00000020091D086001208549091F0860002088
:101B1000091F086001208649086000208549C1F836
:101B2000BC01704701207E49086000207D49C1F852
:101B3000A40101207C49091D08600020091F0860DC
:101B400001207749083908600020091D086001203C
:101B500075490831086000207449C1F88001704758
:101B600001206F49091D086000206E49C1F8A001DD
:101B700001206D49091D08600020091F086001202F
:101B80006749083908600020091D0860012068497C
:101B9000086000206749C1F8BC0170470120604916
:101BA000091D086000205F49C1F8A00101205E49BD
:101BB000091D08600020091F086001205849091FFD
:101BC00008600020091F086001205749083108609B
:101BD00000205649C1F88001704701205049086033
:101BE00000205049C1F8A40101204F49086000209D
:101BF000091D086001204A49083908600020091DB4
:101C0000086001204A49086000204A49C1F8BC0127
:101C1000704770B548484078012817D1FFF748FF52
:101C2000464C2468464D2D686319444C2468444D45
:101C30002D68621B414C2468414D2D6861193F4C51
:101C400024683F4D2D68601B00F0EEF83A4840785C
:101C5000022817D1FFF784FF384C2468384D2D68CF
:101C6000631B364C2468364D2D686219334C24684A
:101C7000334D2D68611B314C2468314D2D6860193E
:101C800000F0D2F82C484078032817D1FFF7A5FFC1
:101C90002A4C24682A4D2D686319284C2468284D45
:101CA0002D686219254C2468254D2D68611B234C35
:101CB0002468234D2D68601B00F0B6F81E4840785C
:101CC000042817D1FFF76AFF1C4C24681C4D2D68AF
:101CD000631B1A4C24681A4D2D68621B174C24682C
:101CE000174D2D686119154C2468154D2D68601924
:101CF00000F09AF81048407828B900231A4619468F
:101D0000184600F091F870BD7047000000100240C6
:101D100000080140000C0140001001400000303379
:101D2000A081214200802142B401224200002142D0
:101D30008001214200002242500000204C0000207F
:101D4000940000204E4AD26942F002024C4BDA6104
:101D50001A46926942F00C029A614A4A126822F0CD
:101D60007F42484B1A601A46126842F03B421A60A2
:101D7000454A126822F0FF02434B1A601A46126865
:101D800042F0BB021A60414B18801B1F19803F4A6A
:101D9000143A128842F060023C4B143B1A801A46F7
:101DA000128842F4C0421A801A1D128842F0600262
:101DB0001B1D1A801A46128842F4C0421A801A1F4C
:101DC000128842F008021B1F1A801A46128842F439
:101DD00000621A801A1D128842F008021B1D1A8028
:101DE0001A46128842F400621A801A1D128842F0C4
:101DF00001021B1D1A801A46128842F010021A8036
:101E00001A46128842F480721A801A46128842F4E6
:101E100080521A8080221D4B2C3B1A801A46128851
:101E200042F001021A80704730B5B0F5E16F01DD74
:101E30004FF4E160002800DA0020B1F5E16F01DD28
:101E40004FF4E161002900DA0021B2F5E16F01DD14
:101E50004FF4E162002A00DA0022B3F5E16F01DD00
:101E60004FF4E163002B00DA0023084D08352A8087
:101E70002D1D2B802D1D29802D1D288030BD00009B
:101E80000010024000080140000C01402C040040FA
:101E900070B505460C46FEF722FD8020FEF7DEFDFC
:101EA000FEF76BFD2846FEF7D9FDFEF766FD2046DE
:101EB000FEF7D4FDFEF761FDFEF73FFD70BD70B586
:101EC0000446FEF70CFD8020FEF7C8FDFEF755FD29
:101ED0002046FEF7C3FDFEF750FDFEF700FD812012
:101EE000FEF7BCFDFEF749FD0020FEF714FE054697
:101EF000FEF723FD284670BD10B500210846FFF708
:101F0000C7FF10BD2DE9FC5F8346584605F0D0FFA2
:101F10008046934A934B05F0A1FD064605F0A8FACA
:101F200083460024904D0022904B2046294605F020
:101F30008DFB04460D46584605F0BAFF064632466C
:101F40000B462046294605F081FB04460D4600223B
:101F5000874B2046294605F0C1FE04460D46002267
:101F6000844B2046294605F0B5FA064605F012FADC
:101F7000804605F0F3FCC0B201900020FFF79FFF00
:101F800082460AF07F0040F0100000900020009987
:101F9000FFF77EFFFE200199FFF77AFF51460020F0
:101FA000FFF776FF0220FEF70BFA4AF0A1010020AE
:101FB000FFF76EFFBDE8FC9F70B504460D46164660
:101FC000E9B2A200921DD0B2FFF762FFA100C91DC5
:101FD000C8B2C5F30721FFF75BFFF1B2A2000832D8
:101FE000D0B2FFF755FFA1000931C8B2C6F30721EF
:101FF000FFF74EFF70BD70B505460C46FEF76FFC4F
:102000008220FEF72BFDFEF7B8FC2846FEF726FDE2
:10201000FEF7B3FC2046FEF721FDFEF7AEFCFEF70F
:102020008CFC70BD70B50446FEF759FC8220FEF7AB
:1020300015FDFEF7A2FC2046FEF710FDFEF79DFC05
:10204000FEF74DFC8320FEF709FDFEF796FC00200D
:10205000FEF761FD0546FEF770FC284670BD10B521
:10206000FEF728FC00210846FFF7C5FF10BD2DE94B
:10207000FC5F8346584605F01BFF8046384A394BC3
:1020800005F0ECFC064605F0F3F983460024364DD6
:102090000022364B2046294605F0D8FA04460D4664
:1020A000584605F005FF064632460B4620462946AF
:1020B00005F0CCFA04460D4600222D4B2046294659
:1020C00005F00CFE04460D4600222A4B2046294608
:1020D00005F000FA064605F05DF9804605F03EFC85
:1020E000C0B201900020FFF79DFF82460AF07F00FA
:1020F00040F01000009000200099FFF77CFFFE20C8
:102100000199FFF778FF51460020FFF774FF022086
:10211000FEF756F94AF0A1010020FFF76CFFBDE879
:10212000FC9F70B504460D461646E9B2A200921D0A
:10213000D0B2FFF760FFA100C91DC8B2C5F30721E7
:10214000FFF759FFF1B2A2000832D0B2FFF753FFF8
:10215000A1000931C8B2C6F30721FFF74CFF70BDDB
:10216000713D0AD7A370ED3F84D777410000B0409E
:102170000000F03F0000E03F704770472DE9F0415C
:102180000446204606F060F80746FD4906F0BCF814
:102190000646FC4905F0B8FE054606F019F8BDE80C
:1021A000F0812DE9F0478246504605F004FC804658
:1021B000F54AF64B05F052FC06460022F44B05F0BA
:1021C00089F9044605F09AFBBDE8F0872DE9FC5F2C
:1021D00082460E4617461D46DDF830B0002400202A
:1021E0000190ABEB050800F02FFA81463BE0E9488F
:1021F0000068A0EB0900B84213DD012E11D12819A7
:10220000FFF7CFFF0246002100905046FFF7D4FEB3
:10221000B8F1000F01DD641C00E0641EDD48D0F859
:102220000090DC480068A0EB0900B8421BDD022EDC
:1022300019D10C2003232246282100900020FEF70C
:1022400032FF2819FFF79AFF0246002100905046FE
:10225000FFF7B2FEB8F1000F01DD641C00E0641E60
:10226000CC48D0F80090A045C1D1BDE8FC9F38B55E
:10227000044624BB3C20FFF781FF05462A46002187
:102280000846FFF799FE0F20FFF778FF05462A461C
:1022900000210420FFF790FE4FF48270FFF76EFFDD
:1022A00005462A4600210820FFF786FE8720FFF713
:1022B00078FF05462A4600210C20FFF77DFE012C01
:1022C00021D13C2064230122022100900020FFF74D
:1022D0007DFF0F2041230122022100900420FFF7FF
:1022E00075FF4FF48270E123012202210090082043
:1022F000FFF76CFF9120FFF754FF05462A460021A7
:102300000C20FFF759FE022C21D13C20782301221A
:10231000022100900020FFF759FF0F2041230122E6
:10232000022100900420FFF751FF4FF48270E12357
:102330000122022100900820FFF748FF9120FFF7BB
:1023400030FF05462A4600210C20FFF735FE032CFE
:1023500021D13C2041230122022100900020FFF7DF
:1023600035FF0F204B230122022100900420FFF7AC
:102370002DFF4FF48270E6230122022100900820F5
:10238000FFF724FF9120FFF70CFF05462A460021A6
:102390000C20FFF711FE38BD38B55F20FFF7EEFEC9
:1023A0000446224600210846FFF706FE3C2000F0C6
:1023B00093FB0520FFF7E2FE04462246002104209D
:1023C000FFF7FAFD82204300072202210090082037
:1023D000FFF7FCFE6420FFF7E4FE044622460021DE
:1023E0000C20FFF7E9FD4FF48270822307220221BF
:1023F00000900820FFF7EAFE0020FFF738FF38BD05
:1024000038B54120FFF7BAFE0446224600210846AF
:10241000FFF7D2FD3C2000F05FFBE620FFF7AEFEA9
:102420000446224600210820FFF7C6FD3C2000F0AC
:1024300053FB412019230222114600900420FFF78C
:10244000C5FE6E20FFF7ADFE0446224600210C209B
:10245000FFF7B2FD3C2000F03FFB38BD38B57820D7
:10246000FFF78CFE0446224600210846FFF7A4FD34
:102470003C2000F031FBE120FFF780FE04462246BD
:1024800000210820FFF798FD3C2000F025FB4120AB
:1024900019230222114600900420FFF797FE3C20EA
:1024A00000F01AFB6E20FFF77CFE04462246002156
:1024B0000C20FFF781FD3C2000F00EFB38BD38B545
:1024C0006420FFF75BFE0446224600210846FFF722
:1024D00073FD3C2000F000FBE120FFF74FFE0446B7
:1024E000224600210820FFF767FD3C2000F0F4FAA7
:1024F0004B2019230222114600900420FFF766FEAC
:102500006E20FFF74EFE0446224600210C20FFF706
:1025100053FD3C2000F0E0FA38BD10B56920FFF70C
:102520002DFE0446224600210846FFF745FD6420A3
:1025300000F0D2FA1920FFF721FE044622460021BE
:102540000420FFF739FD642000F0C6FA4FF48270D2
:10255000FFF714FE0446224600210820FFF72CFD59
:10256000642000F0B9FA6420FFF71BFE04462246FF
:1025700000210C20FFF720FD642000F0ADFA10BD13
:1025800075E5C13F0000CC4282035ABA822D024059
:10259000008059407000002010B59120FFF701FE27
:1025A0000446224600210C20FFF706FD3C2000F0E7
:1025B00093FAC820FFF7E2FD0446224600210820D6
:1025C000FFF7FAFC3C2000F087FA10BD10B5044676
:1025D000FFF7A3FF204600F084F810BD014607294D
:1025E00013D2DFE801F0120406080A0C0F007B206A
:1025F0000BE0842009E0D52007E0E72005E04FF458
:102600009C7002E040F2411000BF00BF704700B56F
:1026100088480078012816D100208649087086482D
:102620008078864908708448C078854908700846D3
:102630000078FFF7D3FF8349088080480078FFF7D0
:10264000CDFF8149088000BD80480068401C7F495B
:10265000086008460068704710B57D48008800F0A3
:10266000200000283CD07A48001D0088C4B2FFF743
:10267000EBFF7849086070487749097844547648F8
:10268000007830B96C4800785A2802D0002072498E
:10269000087071480078012806D167484078A5285D
:1026A00002D000206C4908706B480078401C6A49D1
:1026B000087008460078042804D100200870012022
:1026C0005C490870FFF7A3FF62480068634908602F
:1026D00001206349087063A20A215020FEF72DFDF6
:1026E00010BD10B5044657480088642190FBF1F0F6
:1026F000A0420BD15CA22D210020FEF71EFDFFF7AA
:10270000ADFEFFF749FF0220FFF7B1FD4D480088FD
:102710000A2190FBF1F090FBF1F201FB1200A042C4
:102720000BD152A22D210020FEF707FDFFF7C7FEB7
:10273000FFF732FF0120FFF79AFD424800880A2187
:1027400090FBF1F201FB1200A0420BD148A22D2117
:102750000020FEF7F2FCFFF753FEFFF71DFF0320FA
:10276000FFF785FD10BD704710B5FFF76DFF3B49C2
:102770000968401A502807D90020394908703DA23D
:102780000A215A20FEF7D9FC10BD3B4B1B88C3F130
:10279000A000002801DB034600E043421A46374808
:1027A000006800FB02F109B10846704700BFFCE772
:1027B00000B52B480078012817D1FFF7E6FF304914
:1027C00008602D480088A02803DD02202D4988706C
:1027D00012E029480088A02803DA012029498870DE
:1027E0000AE000202749887006E04FF44870244929
:1027F000086000202349887000BD2348806940F0AC
:102800000800214988612148006820F470601F4950
:1028100008600846006840F4407008601B480C30AF
:1028200000681A490C310860704701201849086097
:102830007047000065000020610000206A00002051
:102840006E0000206800002066000020700000205C
:102850000044004058000020600000205C00002080
:1028600054000020590000006C0000006D000000C2
:10287000720000004E0000006C0000207400002078
:102880004C0000205000002000100240000C0140CD
:1028900088812142FE480068012858D1FD4908700E
:1028A000FD480078172852D10020FB490870F849EC
:1028B0000860FA48006801280DD1F94840780128DD
:1028C00009D1F8480078401CF64908700020F34907
:1028D0000860F0490870F148006801280DD1F048FF
:1028E0004078022809D1EF480078401EED49087071
:1028F0000020EA490860E7490870E84800680228B3
:102900000DD1E7484078042809D1E7480078401CF9
:10291000E54908700020E1490860DE490870DF4899
:10292000006802280ED1DE48407803280AD1DE482C
:102930000078401EDC4908700020D8490860D5495D
:10294000087004E00020D5490860D2490870D148D9
:102950000078012804D1D0480078401CCE49087086
:1029600070472DE9F05F04460D462946204605F0E4
:10297000C8FD064605F02CFCCC49086008460068F6
:10298000232801DD23200860C848006810F1230FC8
:1029900003DA6FF02200C5490860C448006805F0FA
:1029A00053FC8346C2480168584605F0ADFC80469A
:1029B000BE490968BF4A1268881A05F045FC83467B
:1029C000BD480168584605F09FFC8146414605F028
:1029D0009BFA0746B948006805F036FC824639463E
:1029E00005F092FA064605F0F3FBB4490860AF48DB
:1029F0000068B0490860B1480068BDE8F09FA84889
:102A00008078012804D10220A5490870012048706F
:102A1000A3488078022802D1A14908704870A048D4
:102A20008078032804D101209D4908700320487054
:102A30009B488078042804D101209949087004201B
:102A400048709748807818B90020954908704870F8
:102A5000704710B59A48008800F0010000283AD06D
:102A600098480068401C974908609548008820F005
:102A70000100934908809349086800EBD071491020
:102A8000A0EB410109B9FFF7DFFD03F039FE8D48E6
:102A90000068C82809D18C4800688C49086001206A
:102AA0008B4908700020FFF7E2FB89480078012875
:102AB00011D1FFF7A4FF8548016883480068FFF73C
:102AC00050FF84490860FFF7A4F8FEF770FEFFF797
:102AD000E1FEFFF749FE10BD70B50446FFF7B4FDF7
:102AE000054600BF7C480068401BA042FADB70BD71
:102AF00010B57A48007810B9042069498870784880
:102B00000078022811DD7548007870B901207349FA
:102B100008700320624988706420FDF751FC002092
:102B20005F4988706420FDF74BFC6C4800780128F1
:102B300004D15B49887002206849087059480078C0
:102B4000062805D16748007810B9022054498870DA
:102B500065480078012810D151498870C820FDF7D8
:102B60002FFC00204E498870C820FDF729FC012069
:102B70005C49087002205C4908705A4800780128B6
:102B800031D15A48007848B94FF42F70584908603D
:102B900058484E49086003204149887053480078DE
:102BA000012808D104203E4988706420FDF708FC04
:102BB00002204E4908704D480078022813D14D4834
:102BC0004249086002203649887036480078052856
:102BD00003DA4FF4966046490860012046490870C0
:102BE00003204049087010BD10B53C48007810B96A
:102BF00004202B4988703A480078022811DD3748B4
:102C0000007870B901203549087003202449887084
:102C10001420FFF761FF0020214988701420FFF77E
:102C20005BFF2E480078012804D11D4988700220DE
:102C30002A4908701B480078022801D1FFF7F5FDEA
:102C400018480078032803D14FF42F7028490860F2
:102C500014480078062805D12248007810B90020D1
:102C60000F49887025480078012804D11D49087053
:102C70000020224908701B480078012848D11D48CF
:102C80001249086002200649887040F24C4037E043
:102C900048000020800000207D000020440000202B
:102CA000500000207E0000207F000020AC000020AB
:102CB00088000020B400002084000020B000002024
:102CC000102C014098000020500100208C000020B2
:102CD0008300002094000020700000209D00002050
:102CE0009C0000209E0000209F000020A1000020EA
:102CF0004C00002000003443A000002019000020F8
:102D0000FE4908600120FE4908700320FD49087053
:102D100010BD10B5FC480078012867D1F84800784C
:102D2000012863D1F948007801280DD1F84988704D
:102D30002820FFF7D1FE0020F54988702820FFF7F2
:102D4000CBFE0220F1490870F048007802280CD12F
:102D50000020EE49087040F24C40E8490860ED4818
:102D6000ED4908600320EA498870EC4800780128A2
:102D70000CD10020E6498870E9480068FFF726FC7E
:102D80000020E64908700320E0490870DF48007819
:102D900003280BD140F24C40D84908609620FFF739
:102DA0009BFE0420DA498870D8490870DD48007815
:102DB00001281BD10320D64988703220FFF78CFEF2
:102DC0000020D34988703220FFF786FEFFF7E4FA2F
:102DD0003220FFF781FE0020D2490870CA480078EF
:102DE000401CC94908700020C8490870C6480078CE
:102DF00002284BD1C548007848B9C648C649086082
:102E00000320C349887040F24C40BC490860C34865
:102E10000078012816D10020BD498870FFF77DFB9E
:102E20003220FFF759FEC0480068FFF75AFCFFF751
:102E3000B3FB3220FFF750FE0020B8490870012094
:102E4000B2490870B1480078012809D140F24C40DD
:102E5000AA4908600420AE4988700120FFF707FAEC
:102E6000B0480078012811D10020A9498870AE48E7
:102E70000068FFF778FC0020AA490870A248007893
:102E8000401CA14908700020A04908709E480078A5
:102E9000032851D19D48007848B99E489E49086052
:102EA00003209B49887040F24C40944908609B483D
:102EB0000078012816D1002095498870FFF72DFB76
:102EC0003C20FFF709FE99480068FFF70AFCFFF76E
:102ED00063FB3C20FFF700FE0020904908700120B2
:102EE0008A49087089480078012809D140F24C408D
:102EF000824908600420864988700120FFF7B7F9ED
:102F000088480078012817D10020814988703C202A
:102F1000FFF7E2FD85480068FFF725FC3C20FFF73E
:102F2000DBFD00207F49087077480078401C764917
:102F300008700020754908707348007804284ED145
:102F40007248007860B9734873490860032070497B
:102F5000887040F24C406949086001206B49087054
:102F60006E48007801280CD171486B490860022036
:102F70006749887040F24C4060490860002067490A
:102F800008706C480078012807D1614880780228D1
:102F900003D14FF42F705949086067480078012821
:102FA00016D100205A4988703220FFF795FD594804
:102FB0005949086003205649887040F24C404F49F7
:102FC00008604FF49670FFF787FD02205A49087099
:102FD00059480078022802D100204D49887010BD60
:102FE000544A1278904205DD544A127812B90122EF
:102FF000474B9A70514A1278012A0DD1444A92786F
:10300000012A09D14E4A1278914205DD4D4A1278C3
:1030100012B904223E4B9A70494A12788A4202D170
:103020000022464B1A70474A1278012A0CD1384ABE
:103030009278042A08D10022354B9A700122424B23
:103040001A7000223F4B1A703A4A1278904205DA01
:103050003A4A127812B902222D4B9A70374A1278E6
:10306000012A0DD12A4A9278022A09D1344A1278CB
:10307000914205DA334A127812B90322244B9A702E
:103080002F4A12788A4202D100222C4B1A702D4A04
:103090001278012A0CD11E4A9278032A08D1002204
:1030A0001B4B9A700122284B1A700022254B1A7074
:1030B000254A1278012A51D1154A9278E2B9234A59
:1030C00012781C4B1B789A4208D1204A52781C4B2C
:1030D0001B789A4202D101221D4B1A701D4A1278A8
:1030E000144B1B789A4239D11A4A5278144B1B78E8
:1030F0009A4233D101222FE030E000004C00002042
:10310000A00000209E000020A3000020A6000020B8
:1031100050000020000034438C000020A400002058
:103120001C000020A500002020000020240000201A
:1031300000003A437E000020A20000204100002051
:103140007F00002042000020A7000020780000201F
:10315000A80000207A000020754B1A70704700B557
:103160007448007860B974480078744908707248EF
:10317000407873490870704A51781078FFF730FF33
:103180006C48007801280CD16E4800786B490870B3
:103190006C4840786A4908706A4A51781078FFF79D
:1031A0001FFF63480078012802D10020664988701B
:1031B00000BD2DE9F04788B00546012D7ED046219F
:1031C000D020FDF715FD80464521D020FDF710FDEC
:1031D00008EB0027384605F037F804464021D02098
:1031E000FDF706FD80463F21D020FDF701FD08EBED
:1031F0000027384605F028F882463C21D020FDF70C
:10320000F7FC80463B21D020FDF7F2FC08EB0027BD
:10321000384605F019F881464FF08E41204605F0FA
:103220003FF905D24FF08F41204605F075F904466D
:103230004FF08E41504605F033F905D24FF08F41E3
:10324000504605F069F982464FF08E41484605F038
:1032500027F905D24FF08F41484605F05DF98146C8
:10326000504604F025FE07468846484604F020FEF6
:103270003A464346CDE9000103F0CCFF0022334B30
:10328000CDE9020104F0EAFB314A324BCDE90401F9
:1032900004F0DCF9CDE9060104F0EAF80646204620
:1032A00004F006FE4FF066322B4BCDE9060104F028
:1032B000CDF9074604F0DCF8044600E018E02748A2
:1032C0000078022806D184F000473946304602F0E3
:1032D00055FE09E021480078032805D184F0004715
:1032E0003946304602F061FF1D4800681D490860FC
:1032F00008B0BDE8F0871C481C49086000201C4944
:1033000008601C4908601C4908600F490870087073
:1033100005200949087001204870032009490870F8
:103320000020487005490870054908707047000082
:10333000A9000020A80000207800002081000020C3
:10334000820000207A0000205000002000806640AB
:10335000F1D4C853FB2109406666304000000020CC
:10336000E800002004000020000048428400002003
:1033700088000020500100208C00002038B5044651
:10338000FB4890F82400C0B114B10220009001E085
:1033900000200090F64A1268D17BF54A52681078F6
:1033A0006B460122FDF787FB10B14FF0FF3038BDAF
:1033B0009DF80010EE48417423E0ED48807A10B982
:1033C0004FF0FF30F3E724B1E948407C08B100201A
:1033D000EDE714B10120009001E000200090E44AE4
:1033E0001268D17BE24A526810786B460122FDF7E1
:1033F00062FB10B14FF0FF30D9E79DF80010DC48B8
:1034000041740020D3E738B5002419E0D84800689B
:10341000C07AA04204D0D6480068407DA04200D1C6
:103420000CE0D349496808786B4601222146FDF734
:10343000A4FB10B14FF0FF3038BD00BF601CC4B218
:10344000CB4840680079A042E0DC0020F4E770B58A
:1034500004460D46C6480068C07AA04204D0C4485D
:103460000068407DA04202D14FF0FF3070BDC048DF
:1034700040680079A04202DC4FF0FF30F6E7BC491B
:10348000496808782B4601222146FDF776FBEDE7D7
:1034900038B50446B64890F82300A04201D1002078
:1034A00038BD14B13020009001E000200090B048F9
:1034B000807C20B19DF8000040F002000090AC48F4
:1034C00090F8220020B19DF8000040F080000090AC
:1034D000A74A1268117DA64A526810786B460122ED
:1034E000FDF7E9FA10B14FF0FF30D9E7A04880F8B6
:1034F00023400020D4E738B5044604F0700010B132
:103500000120009005E014B10020009001E040206F
:103510000090974A1268917C954A526810786B46E1
:103520000122FDF7C8FA20B1002191488172481E9E
:1035300038BD9DF8000020F040018D480173002047
:10354000009004F0400020B99DF8000040F0040015
:10355000009004F0200020B99DF8000040F0020027
:10356000009004F0100020B99DF8000040F0010028
:10357000009004F0080020B99DF8000040F03800E9
:1035800000907B4A1268D17C794A526810786B4669
:103590000122FDF790FA20B1002175488172481E82
:1035A000C6E724B1082C02D00020FFF771FF704855
:1035B0008472002101753220FCF702FF0020B7E77A
:1035C00038B504466A48807CA04201D1002038BD4D
:1035D000002C46D0664A12681179654A5268107804
:1035E0006B460122FDF7C9FA10B14FF0FF30EEE74C
:1035F0009DF8000020F0200000905D4A12681179CB
:103600005B4A526810786B460122FDF754FA10B1FC
:103610004FF0FF30DBE70320FCF7D2FE02200090E2
:10362000534890F8220020B19DF8000040F080003F
:1036300000904F4890F8230020B19DF8000040F022
:10364000300000904A4A1268117D494A5268107849
:103650006B460122FDF72FFA002851D04FF0FF30C2
:10366000B5E7434A12681179414A526810786B46AF
:103670000122FDF782FA10B14FF0FF30A7E73C4876
:10368000807A00F0010028B19DF8000040F0200091
:10369000009004E09DF8000020F020000090344AE3
:1036A00012681179324A526810786B460122FDF790
:1036B00002FA10B14FF0FF3089E70320FCF780FEDB
:1036C0002B4890F8220010B18020009001E00020EB
:1036D0000090274890F8230020B19DF8000040F0AA
:1036E00030000090224A1268117D214A52681078F9
:1036F0006B460122FDF7DFF910B14FF0FF3066E7AE
:103700001B488474002062E708B51948807A10B914
:103710004FF0FF3008BD00200090154A1268D17BA1
:10372000134A526810786B460122FDF7C4F910B1B4
:103730004FF0FF30EEE70E4A126851790C4A52689A
:1037400010786B460122FDF7B6F910B14FF0FF304B
:10375000E0E7074A12681179054A526810786B460B
:103760000122FDF7A8F928B14FF0FF30D2E70000A1
:10377000B8000020F74890F82400002850D00C2012
:103780000090F44A12681179F24A526810786B4638
:103790000122FDF790F910B14FF0FF30BAE7C020D9
:1037A0000090EC48807A00F0010020B19DF8000004
:1037B00040F020000090E74A12681179E54A52680B
:1037C00010786B460122FDF776F910B14FF0FF300B
:1037D000A0E7E048407C10B10220009001E000200A
:1037E0000090DC4A1268D17BDA4A526810786B4646
:1037F0000122FDF760F910B14FF0FF308AE7002099
:103800000090D44A12685179D24A526810786B46B7
:103810000122FDF750F9002852D04FF0FF3079E730
:1038200004200090CB4A12681179CA4A5268107875
:103830006B460122FDF73FF910B14FF0FF3069E709
:10384000C448807C20B9C348807A00F0010010B9D8
:103850004020009001E060200090BE4A126811797B
:10386000BC4A526810786B460122FDF724F910B16A
:103870004FF0FF304EE7B748407C10B10120009078
:1038800001E000200090B34A1268D17BB14A52682F
:1038900010786B460122FDF70EF910B14FF0FF30A2
:1038A00038E7AC4A12685179AA4A52681078A94B95
:1038B00010330122FDF7FFF810B14FF0FF3029E778
:1038C000002027E770B50446002624F00104A14833
:1038D00090F8240008B1002070BD9E48807A10B98D
:1038E0004FF0FF30F8E79B48057C807A20409949EB
:1038F00008740846007CA04202D04FF0FF3600E07A
:10390000002614B99348007D18B10120FFF736FD59
:1039100002E00020FFF732FD3CB1FFF7F5FE20B1D9
:103920008C4805744FF0FF30D6E73046D4E738B501
:1039300004468848807A10B94FF0FF3038BDBC2C5F
:1039400002DB0120009015E0622C02DB02200090D7
:1039500010E02A2C02DB032000900BE0142C02DB89
:103960000420009006E00A2C02DB0520009001E014
:10397000062000907748C07A9DF80010884201D157
:103980000020DBE7734A12689178724A5268107817
:103990006B460122FDF78FF810B14FF0FF30CDE7F5
:1039A0009DF800106B48C1720020C7E738B5044687
:1039B000282C02DD4FF0FF3038BDDCB90020FFF7C6
:1039C00067FD00208DF8000007208DF80100614A96
:1039D0001268917C5F4A526810786B460222FDF7AC
:1039E0006AF810B14FF0FF30E6E700215948017541
:1039F0000020E1E70120FFF74BFD20208DF80000BB
:103A0000012C06D100208DF801000520FFF78FFF63
:103A100017E0052C06DC01208DF801000520FFF7DA
:103A200086FF0EE0142C06DC02208DF801000A202F
:103A3000FFF77DFF05E003208DF801001420FFF75C
:103A400076FF9DF80100072101EB8010C0B28DF8D0
:103A50000100404A1268917C3E4A526810786B46D9
:103A60000222FDF728F810B14FF0FF30A4E708213B
:103A70003848817200210173012101750020FFF790
:103A800021FF002098E738B504463248807A10B903
:103A90004FF0FF3038BD2F4890F8240010B14FF0A0
:103AA000FF30F7E72B48007D50B134B1282C04DCFF
:103AB000E0B2FFF77BFF0020ECE70020FFF776FF86
:103AC000042C01DA042404E0B4F57A7F01DD4FF41C
:103AD0007A744FF47A7090FBF4F0401EC0B20090FC
:103AE0001C4A126851781B4A526810786B460122B2
:103AF000FCF7E1FF10B14FF0FF30CBE79DF800007D
:103B0000401C4FF47A7191FBF0F081B21148C181F1
:103B10000146C9894810FFF70AFF0020BAE738B507
:103B200004460C48807A10B94FF0FF3038BD022CA3
:103B300006D0042C07D0082C08D0102C0FD10BE095
:103B4000002000900EE0082000900BE01020009074
:103B500008E00000B80000201820009002E04FF0BC
:103B6000FF30E3E700BFF948407A9DF80010B0EB62
:103B7000E10F01D10020D9E7F44A1268D179F34A64
:103B8000526810786B460122FCF795FF10B14FF098
:103B9000FF30CBE79DF80000C110EC4841720020D7
:103BA000C4E738B50446E948807A10B94FF0FF30D1
:103BB00038BDFA2C09D0B4F5FA7F09D0B4F57A7F74
:103BC00009D0B4F5FA6F0CD108E0002000900BE0AA
:103BD0000820009008E01020009005E018200090D8
:103BE00002E04FF0FF30E3E700BFD848007A9DF8CD
:103BF0000010B0EBE10F01D10020D9E7D34A1268E1
:103C00009179D24A526810786B460122FCF753FF33
:103C100010B14FF0FF30CBE79DF80000C010CB494A
:103C200008720020C4E71CB580208DF80000C74A48
:103C30001268917CC54A526810786B460122FCF7E5
:103C40003AFF10B14FF0FF301CBD6420FCF7B8FB09
:103C500000208DF80000BD4A1268917CBB4A526872
:103C600010786B460122FCF726FF10B14FF0FF30B1
:103C7000EAE7B64A1268917DB44A526810786B46FA
:103C80000622FCF77AFF10B14FF0FF30DCE79DF819
:103C90000500C007400F9DF8031001F0010140EA44
:103CA00041009DF8011001F0010140EA010494B1C6
:103CB000012C03D10121A548C17431E0022C03D1AC
:103CC0000021A248C1742BE02146A1A002F0EEFE23
:103CD0004FF0FF30B8E79D4A1268D1789B4A52688E
:103CE00010786B460122FCF748FF10B14FF0FF300F
:103CF000AAE79DF8000000F00F042CB99E4802F0DE
:103D0000D5FE4FF0FF309FE7042C06D19BA002F0B8
:103D1000CDFE01218D48C17402E000218B48C174A1
:103D2000FF218A488172FF2088490872FF21874855
:103D30004172C1724FF6FF71C181FF21017481741C
:103D40000121017380F82210002180F823104175B1
:103D500001751630016041608160163880F82410CA
:103D600080F82510C1844FF4FA60FFF71AFF10B1F4
:103D70004FF0FF3068E70220FFF7D1FE10B14FF09F
:103D8000FF3061E72A20FFF7D2FD10B14FF0FF307E
:103D90005AE73220FFF777FE10B14FF0FF3053E7BC
:103DA0000020FFF78FFD10B14FF0FF304CE70020EF
:103DB000FFF706FC10B14FF0FF3045E70020FFF79A
:103DC0009AFB002040E770477CB504460D465F48EB
:103DD000807A00F0700010B94FF0FF307CBD5B4A74
:103DE0001268117B594A526810786B460622FCF71C
:103DF000C4FE10B14FF0FF30F0E79DF801009DF8D0
:103E0000001040EA012000B220809DF803009DF8D8
:103E1000021040EA012000B260809DF805009DF884
:103E2000041040EA012000B2A08015B12846FFF737
:103E3000CAFF0020D2E77CB504460D464348807A8D
:103E400000F0080010B94FF0FF307CBD3F4A126807
:103E5000517B3E4A526810786B460622FCF78DFE75
:103E600010B14FF0FF30F0E79DF801009DF8001011
:103E700040EA012000B220809DF803009DF8021066
:103E800040EA012000B260809DF805009DF8041012
:103E900040EA012000B2A08015B12846FFF793FF49
:103EA0000020D2E72DE9FE4F05460C462748807AD0
:103EB00018B94FF0FF30BDE8FE8F244A1268917B9D
:103EC000224A5268107802AB0222FCF756FE10B16B
:103ED0004FF0FF30EFE79DF809009DF8081040EA29
:103EE000012006B214B12046FFF76DFF174949685B
:103EF000C88804F0C1F9154901904968B1F9080072
:103F000004F0A2F98346304604F09EF95946009029
:103F100004F002FB8246019904F064F881461F49CF
:103F200003F0F2FF80464FF08F4104F0EDF90746B1
:103F300004F04EF928600020BDE710B588B00446B3
:103F40001CB94FF0FF3008B010BD29E0B8000020C8
:103F5000556E737570706F7274656420736F6674DC
:103F6000776172652070726F647563742072657614
:103F70002025642E0A000000409E000848616C66FF
:103F80002073656E736974697669747920706172E3
:103F90007420666F756E642E0D0A000000000C42DE
:103FA000206830B9606820B9A06810B9002008B056
:103FB00010BDFA494968087806AB03221146FCF7A0
:103FC000DCFD10B14FF0FF30F1E79DF8180008213B
:103FD00001EB201000F00F00ADF800009DF8190073
:103FE00001EB201000F00F00ADF802009DF81A0060
:103FF00001EB201000F00F00ADF804002068410034
:10400000BDF90000403091FBF0F000B2ADF81000B7
:1040100060684100BDF90200403091FBF0F000B251
:10402000ADF81200A0684100BDF90400403091FBDA
:10403000F0F000B2ADF81400D8494968087806AB32
:1040400006221146FCF799FD10B14FF0FF30AEE7A4
:104050009DF819009DF8181040EA012000B2ADF853
:1040600008009DF81B009DF81A1040EA012000B2DC
:10407000ADF80A009DF81D009DF81C1040EA0120D3
:1040800000B2ADF80C00BDF81000BDF808100844EF
:1040900000B2ADF81000BDF81200BDF80A100844D7
:1040A00000B2ADF81200BDF81400BDF80C100844C1
:1040B00000B2ADF81400BDF81000000A8DF8180029
:1040C000BDF81000C0B28DF81900BDF81200000A4A
:1040D0008DF81A00BDF81200C0B28DF81B00BDF8B3
:1040E0001400000A8DF81C00BDF81400C0B28DF851
:1040F0001D00AA494968087806AB06221146FCF75C
:10410000DAFC10B14FF0FF3051E700204FE70146D5
:10411000A248007A30B1012807D0022809D003282C
:104120000FD10AE0FA2008800EE04FF4FA70088000
:104130000AE04FF47A70088006E04FF4FA600880D5
:1041400002E00020088000BF00BF00207047014649
:104150009248407A30B1012807D0022808D00328BD
:104160000CD108E0022008700BE00420087008E081
:104170000820087005E01020087002E04FF0FF30C2
:10418000704700BF8548C07C18B108784006000E13
:1041900008700020F4E701468048C07A082817D24A
:1041A000DFE800F01704070A0D101318BC20088080
:1041B00013E06220088010E02A2008800DE014201F
:1041C00008800AE00A20088007E00520088004E053
:1041D00000BF00BF0020088000BF00BF0020704764
:1041E00001466E4890F8240010B14FF0FF30704740
:1041F0006A48C08908800020F9E70146002008804D
:10420000401E704701464FF0FF307047014663483B
:10421000007A30B1012807D0022808D003280CD139
:1042200008E05F4808600BE05E48086008E05E4810
:10423000086005E05D48086002E04FF0FF3070471D
:1042400000BF0020FBE701465448407A30B1012806
:1042500008D002280AD0032810D10BE04FF4804088
:1042600008800EE041F69C7008800AE04FF4805010
:10427000088006E04FF40060088002E04FF0FF3055
:10428000704700BF4548C07C10B1088840100880C6
:104290000020F5E701464148007C08700020704787
:1042A00001463E48807A10B10120087001E00020EC
:1042B00008700020704738B504463848807A10B935
:1042C0004FF0FF3038BD354A1268117C334A5268CE
:1042D00010786B460222FCF750FC10B14FF0FF3013
:1042E000F0E79DF801009DF8001040EA012000B2BF
:1042F00020800020E6E72DE9FE4F074688469246DB
:104300001D46DDF830B000260024244890F8240033
:1043100010B1601EBDE8FE8F002028701F48807A13
:1043200010B94FF0FF30F5E71C48007C10B94FF092
:10433000FF30EFE71948007C00F0400008B1B01CE6
:10434000C6B21648007C00F0200008B1B01CC6B20E
:104350001248007C00F0100008B1B01CC6B20F4833
:10436000007C00F0080008B1B01DC6B20B4A12680C
:10437000917A0A4A526810786B460222FCF7FDFBDC
:1043800010B14FF0FF30C5E79DF801009DF8001017
:1043900040EA0129B1450BDA0020BBE7B800002054
:1043A000000003430000834233330342333383412D
:1043B000FC4840684088B9EB600F17DDF94A126885
:1043C000517CF84A526810786B460122FCF7D5FB05
:1043D00010B14FF0FF309DE79DF8000000F0100095
:1043E00020B1FFF791F96FF0010093E75046FFF716
:1043F000EAFCEC4A1268D17AEA4A526810786B46B5
:104400003246FCF7BAFB10B14FF0FF3082E799FB60
:10441000F6F0401E8BF8000000202870B4422AD02D
:10442000E048007C00F0080028B3601C1DF8000084
:104430001DF8041040EA012000B2A8F80000E01CBA
:104440001DF80010A01C1DF8000041EA002000B279
:10445000A8F80200601D1DF80010201D1DF80000C6
:1044600041EA002000B2A8F80400287840F00800D3
:104470002870A01D84B2B44213D0CA48007C00F05A
:10448000400070B1601C1DF800001DF8041040EAE7
:10449000012000B23880287840F040002870A01C2D
:1044A00084B2B44213D0BF48007C00F0200070B149
:1044B000601C1DF800001DF8041040EA012000B245
:1044C0007880287840F020002870A01C84B2B44284
:1044D00013D0B448007C00F0100070B1601C1DF8CF
:1044E00000001DF8041040EA012000B2B8802878CE
:1044F00040F010002870A01C84B200200AE7F8B534
:1045000004460F461646A74890F8240010B94FF00D
:10451000FF30F8BDA348807A10B94FF0FF30F8E7BC
:10452000A04A1268917A9F4A526810786B4602221C
:10453000FCF723FB10B14FF0FF30EAE79DF80100D4
:104540009DF8001040EA0125A54203DA00203070F2
:10455000401EDEE7934840684088B5EB600F17DDEA
:10456000904A1268517C8F4A526810786B4601223B
:10457000FCF703FB10B14FF0FF30CAE79DF80000D5
:1045800000F0100020B1FFF7BFF86FF00100C0E7A6
:10459000E2B2844B1B68D97A824B5B6818783B4641
:1045A000FCF7EBFA10B14FF0FF30B2E795FBF4F0F7
:1045B000401E30700020ACE701467A4880F8221097
:1045C000002070477CB5054676494968087801ABFC
:1045D00004220D21FCF7D1FA08B107207CBD9DF81B
:1045E0000700C0F301109DF8041001F0E00140EA5B
:1045F000E1008DF800009DF80700C0F381009DF8F0
:10460000051001F0E00140EAE1008DF801009DF89D
:10461000070000F003009DF8061001F0E00140EAF9
:10462000E1008DF8020000241CE01DF8040018B918
:10463000002045F8240013E05B4845F8240006E01C
:1046400055F82400594903F05FFE45F824001DF891
:104650000400401EC0B20DF804000028F0D100BFD5
:10466000601CC4B2032CE0DB0020B7E72DE9FE4F4D
:1046700006460F4600256846FFF7A4FF002442E0E7
:1046800056F8240057F82410A0EB010ABAF1000FE5
:1046900001DB514601E0CAF10001084603F0D4FDF8
:1046A00083464FF08F4103F09DFC80465DF8240067
:1046B000002103F059FD16D05DF82410404603F0A8
:1046C00091FC82464FF07E5103F026FF814629F08F
:1046D000004A3748416A504603F0E2FE12D20120F8
:1046E000A04005430EE03248C169404603F0D8FDC2
:1046F00005D32F48016A404603F0D2FE02D20120C2
:10470000A0400543641C032CBADB2846BDE8FE8F9D
:104710002DE9FC5F06460F460025224949680878C6
:1047200001AB03220D21FCF728FA10B10720BDE8E8
:10473000FC9F9DF8040000F01F008DF804009DF818
:10474000050000F01F008DF805009DF8060000F040
:104750001F008DF80600002462E056F8240057F888
:104760002410A0EB010BBBF1000F01DB594601E067
:10477000CBF10001084603F067FD4FF08F41009038
:1047800003F030FC814601A8005DC0B30849086809
:1047900003F072FD83465946064803F023FC804629
:1047A0000FE00000B80000207B14AE3E1D5A843F8D
:1047B0008091000800B04C45FE49404603F0A4FD3E
:1047C000804601A8005D401EC0B201A9085500281E
:1047D000F2D14146484603F005FC83464FF07E5136
:1047E00003F09AFE82462AF0004BF348816958464E
:1047F00003F056FE13D20120A04005430FE0FFE76F
:10480000ED480169484603F04BFD05D3EA4841698C
:10481000484603F045FE02D20120A0400543641C37
:10482000032C9ADB284682E72DE9F04F87B0054636
:104830000C46914601208DF8100000208DF81100E3
:10484000DE4A1268917CDD4A5268107804AB02227D
:10485000FCF731F920B14FF0FF3007B0BDE8F08F21
:10486000C820FBF7ADFD00208DF81000D34A126878
:10487000D17BD24A5268107804AB0122FCF71BF9B5
:1048800010B14FF0FF30E8E7CC4A12685179CB4ABB
:104890005268107804AB0122FCF70DF910B14FF00B
:1048A000FF30DAE7C54A1268917CC44A5268107832
:1048B00004AB0122FCF7FFF810B14FF0FF30CCE75A
:1048C000BE4A1268D17DBD4A5268107804AB0122FD
:1048D000FCF7F1F810B14FF0FF30BEE7B74A1268AD
:1048E0001179B64A5268107804AB0122FCF7E3F85C
:1048F00010B14FF0FF30B0E70C208DF81000AF4A38
:1049000012681179AD4A5268107804AB0122FCF7A5
:10491000D2F810B14FF0FF309FE70F20FBF750FDAA
:10492000A648806A407A8DF81000A44A12689178EF
:10493000A24A5268107804AB0122FCF7BCF810B10F
:104940004FF0FF3089E79D48806A007A8DF81000AB
:104950009A4A12685178994A5268107804AB012239
:10496000FCF7A9F810B14FF0FF3076E7B9F1000F6E
:1049700007D09248806A807A40F0E0008DF81000FD
:1049800004E08E48806A807A8DF810008B4A1268A5
:1049900091798A4A5268107804AB0122FCF78BF8AF
:1049A00010B14FF0FF3058E7B9F1000F07D083483E
:1049B000806AC07A40F0E0008DF8100003E07E4885
:1049C000C07A8DF810007D4A1268D1797B4A52680E
:1049D000107804AB0122FCF76EF810B14FF0FF30F5
:1049E0003BE7B9F1000F02D0C820FBF7E9FC4020FB
:1049F0008DF81000714A12681179704A5268107867
:104A000004AB0122FCF757F810B14FF0FF3024E758
:104A100078208DF81000694A12685179674A526807
:104A2000107804AB0122FCF746F810B14FF0FF30CC
:104A300013E761498889FBF7C3FC00208DF810005B
:104A40005E4A126851795D4A5268107804AB0122BF
:104A5000FCF731F810B14FF0FF30FEE6574A12680C
:104A6000917A564A5268107804AB0222FCF785F816
:104A700010B14FF0FF30F0E69DF811009DF81010D6
:104A800040EA012B0C209BFBF0F0C6B20020A8608E
:104A900068602860A06060602060824665E0474AE8
:104AA0001268D17A454A5268107804AB0C22FCF7A0
:104AB00064F810B14FF0FF30CFE69DF811009DF87B
:104AC000101040EA012000B2ADF808009DF8130074
:104AD0009DF8121040EA012000B2ADF80A009DF8DE
:104AE00015009DF8141040EA012000B2ADF80C004A
:104AF000BDF90810206808442060BDF90A106068FC
:104B000008446060BDF90C10A0680844A0609DF8DE
:104B100017009DF8161040EA012000B2ADF8000021
:104B20009DF819009DF8181040EA012000B2ADF878
:104B300002009DF81B009DF81A1040EA012000B207
:104B4000ADF80400BDF90010286808442860BDF9DC
:104B50000210686808446860BDF90410A868084439
:104B6000A8600AF1010000F0FF0AB24597DB124885
:104B7000D0F800C02868C117090441EA10410704B1
:104B800062460023384601F06CFF32460023CDE92F
:104B9000020101F066FF28600748D0F800C068688D
:104BA000C117090441EA1041070462460023384650
:104BB00006E0000054E3853F80910008B800002023
:104BC00001F04FFF32460023CDE9020101F049FF19
:104BD0006860FE48D0F800C0A868C117090441EA1F
:104BE0001041070462460023384601F03AFF32467E
:104BF0000023CDE9020101F034FFA860F348D0F8AA
:104C000004C02168C817000440EA11480F04624636
:104C100000233846414601F024FF32460023CDE907
:104C2000020101F01EFF2060E848D0F804C060686F
:104C3000C117090441EA10410704624600233846BF
:104C400001F00FFF32460023CDE9020101F009FF18
:104C50006060DE48D0F804C0A068C117090441EACA
:104C60001041070462460023384601F0FAFE32463E
:104C70000023CDE9020101F0F4FEA060A068002845
:104C800004DDA068A0F58030A06003E0A06800F516
:104C90008030A0600020E0E538B50446CC4890F8AC
:104CA0002400A04201D1002038BD24B3C84890F8A8
:104CB000250010B94FF0FF30F6E70020FEF75EFB4D
:104CC0000020FEF77DFCC249C88CFEF7DCFE002008
:104CD0000090BF49496808786B4601222321FBF701
:104CE000EAFE0121BA4880F824100120FEF746FBB5
:104CF000FEF70AFD13E00020FEF740FBB448007CFD
:104D00000090B349496808786B4601222321FBF7DC
:104D1000D2FE0021AE4880F82410FEF7F5FC0020FA
:104D2000C2E72DE9F04F8DB083460F4602200C906C
:104D3000A74890F8240020B10020FFF7ADFF01261E
:104D400000E0002603A8FFF7E2F905A8FFF7FFF946
:104D500001A8FFF720FA02A8FFF742FA9C4890F852
:104D60000AA004A8FFF796FA002407E000223946BB
:104D70005846FFF759FD00B902E0641C022CF5DB30
:104D800000BF022C01D1002528E0002407E0012209
:104D900006A909A8FFF748FD00B902E0641C022C2F
:104DA000F5DB00BF022C01D1002517E006A938462B
:104DB000FFF75CFC00F0FF0809A95846FFF7A8FCC4
:104DC00000F0FF090025B9F1000F01D145F0010500
:104DD000B8F1000F01D145F0020500BFFF207C496A
:104DE0000872FF217A484172C1724FF6FF71C1818A
:104DF000FF218172017401210173BDF80C00FEF7DF
:104E0000D0FE9DF81400FEF78AFEBDF80400FEF700
:104E10008EFDBDF80800FEF736FE5046FEF76BFB30
:104E20009DF81000FEF74EFD16B10120FFF734FF8C
:104E300028460DB0BDE8F08FF8B504460D4616467D
:104E400016B94FF0FF30F8BD6148807A10B94FF0C5
:104E5000FF30F8E720128DF80000E0B28DF8010075
:104E60009DF8010028445A4949684989884202DD71
:104E70004FF0FF30E7E7564A1268117E544A5268F5
:104E800010786B460222FBF716FE10B14FF0FF3090
:104E9000D9E7EAB24E4B1B68597D4D4B5B681878D9
:104EA0003346FBF708FE10B14FF0FF30CBE7002090
:104EB000C9E7F8B504460D46164616B94FF0FF305F
:104EC000F8BD4348807A10B94FF0FF30F8E7201260
:104ED0008DF80000E0B28DF801009DF80100284433
:104EE0003B4949684989884202DD4FF0FF30E7E7D6
:104EF000374A1268117E364A526810786B46022291
:104F0000FBF7D9FD10B14FF0FF30D9E7EAB2304BD3
:104F10001B68597D2E4B5B6818783346FBF72DFED6
:104F200010B14FF0FF30CBE70020C9E72DE9F04387
:104F300085B005460E4690469946254890F82500CE
:104F400020B14FF0FF3005B0BDE8F08316B94FF047
:104F5000FF30F8E7002423E0281B102801DD102093
:104F600000E0281B87B2321939462046FFF764FF5C
:104F700010B14FF0FF30E6E701AA39462046FFF7AF
:104F800098FF10B14FF0FF30DDE730193A4601A924
:104F900001F008FE10B16FF00100D4E7E01984B20F
:104FA000AC42D9DB4FEA28208DF8000008F0FF0062
:104FB0008DF80100064A1268917E054A5268107801
:104FC0006B460222FBF777FD38B103E080910008C1
:104FD000B80000204FF0FF30B5E701218A4880F883
:104FE0002510A0F826900020ADE70146864890F8ED
:104FF000240008700020704702464FF0FF307047D1
:1050000001464FF0FF307047F8B505460F4614468D
:10501000002C70D0B5F5FF5F01DDFF2605E0202DE7
:1050200001DA012601E0C5F3471607B90127282C4C
:1050300002DD4FF0FF30F8BD7348407D28BB724859
:1050400090F8240038B10020FFF726FE01216E48B9
:1050500080F8201003E000216B4880F820106A4897
:105060001630FFF754F868481830FFF770F86648B4
:105070001A30FFF790F864481C30FFF7B1F8624827
:10508000817A81771F30FFF705F90020FEF776F966
:105090000020FEF78BFC00208DF800005A4A1268B1
:1050A0009178594A526810786B460122FBF703FD4C
:1050B00010B14FF0FF30BEE740208DF80000524A9B
:1050C0001268D17B504A526810786B460122FBF778
:1050D000F2FC00B165E08DF800608DF801704A4A7D
:1050E0001268117A484A526810786B460222FBF720
:1050F000E2FC08B155E047E00520FBF761F94248C2
:10510000407A072101EBC000C0B28DF800003E4A92
:105110001268D1793C4A526810786B460122FBF73D
:10512000CAFC00B13DE020208DF80000012C03D125
:1051300000208DF801000EE0052C03DC01208DF825
:10514000010008E0142C03DC02208DF8010002E0CD
:1051500003208DF801009DF80100072101EB80106C
:10516000C0B28DF80100284A1268917C264A526824
:1051700010786B460222FBF79EFC00B111E0012182
:1051800021484175002056E71F4A1632002103E0EE
:10519000505C00B105E0491C0C29F9D34FF0FF30F9
:1051A00049E7FF2018490872FF2117484172C17270
:1051B0004FF6FF71C181FF218172017401210173DA
:1051C0000146887FFEF797F90F49C88AFEF7E9FC88
:1051D0000D49087EFEF7A3FC0B49488BFEF7A7FBA1
:1051E0000949888BFEF74FFC0749C87FFEF76AFB29
:1051F000054890F8200010B10120FFF74DFD002177
:1052000001484175002016E7B800002010B5C823FA
:105210004FF48062F74940F6F630FFF787FE10BD85
:1052200010B586B00446F4A000680390F3A00068AF
:105230000290F3A000680190F2A00068009004F0D2
:10524000030003A9085C8DF8140003A8C4F3C1018E
:10525000405C8DF8150003A8C4F38111405C8DF803
:10526000160004F0030002A9085C8DF8100002A8E3
:10527000C4F3C101405C8DF8110002A8C4F3811190
:10528000405C8DF8120005AA032140F22640FFF78A
:10529000D3FD18B14FF0FF3006B010BD04AA0321B2
:1052A00040F22A40FFF7C8FD10B14FF0FF30F3E79E
:1052B000019805900098049004F0040058B19DF8FE
:1052C000140040F001008DF814009DF8100040F02B
:1052D00001008DF8100004F0200058B19DF8150071
:1052E00040F001008DF815009DF8110040F001001C
:1052F0008DF8110004F4807058B19DF8160040F04C
:1053000001008DF816009DF8120040F001008DF8A4
:10531000120005AA03214FF48860FFF78DFD10B13C
:105320004FF0FF30B8E704AA032140F23140FFF705
:1053300083FD10B14FF0FF30AEE7B3480481002089
:10534000AAE71FB50446B048007A00F0030054F8FD
:1053500020000190AC48007A00F0040010B10198E0
:1053600040420190A848007AC0F3C10054F82000E0
:105370000290A548007A00F0200010B10298404247
:105380000290A148007AC0F3811054F820000390E5
:105390009D48008900F4807010B10398404203904A
:1053A0009A49019880FB0101800F40EA8100019039
:1053B0009649029880FB0110820042EA91700290A7
:1053C0009249039880FB0110820042EA9170039099
:1053D0000198000E8DF800000198000C8DF8010076
:1053E0000198000A8DF802000198C0B28DF8030000
:1053F0006A4604214FF47470FFF71EFD18B14FF098
:10540000FF3004B010BD0298000E8DF80000029825
:10541000000C8DF801000298000A8DF80200029835
:10542000C0B28DF803006A4604214FF47570FFF78F
:1054300003FD10B14FF0FF30E3E70398000E8DF845
:1054400000000398000C8DF801000398000A8DF805
:1054500002000398C0B28DF803006A4604214FF49D
:105460007670FFF7E9FCCCE770B588B0064601A876
:10547000FEF7E9FEBDF804000021C90341EA5045EA
:10548000C4036148007A00F0030056F8200005903C
:105490005D48007A00F0040010B105984042059084
:1054A0005948007AC0F3C10056F8200006905648CB
:1054B000007A00F0200010B1069840420690524851
:1054C000007AC0F3811056F8200007904E480089FA
:1054D00000F4807010B10798404207900598C117FA
:1054E000A0FB042301FB043100FB0510810041EA0D
:1054F000927005900698C117A0FB042301FB0431AC
:1055000000FB0510810041EA927006900798C117D0
:10551000A0FB042301FB043100FB0510810041EADC
:10552000927007900598000E8DF808000598000C01
:105530008DF809000598000A8DF80A000598C0B298
:105540008DF80B000698000E8DF80C000698000CE4
:105550008DF80D000698000A8DF80E000698C0B26E
:105560008DF80F000798000E8DF810000798000CBA
:105570008DF811000798000A8DF812000798C0B244
:105580008DF8130002AA0C214FF42570FFF754FC8C
:1055900008B070BD30B585B004461DA207CA02AB85
:1055A00007C3C82C03DD4FF0FF3005B030BDC82065
:1055B00090FBF4F0401E85B2280A8DF80000E8B296
:1055C0008DF801006A46022140F21620FFF734FCF4
:1055D00010B14FF0FF30E8E702AA0C2140F6C120DD
:1055E000FFF72AFC10B14FF0FF30DEE70648848158
:1055F0000020DAE7A89100084CCD6C000CC92C0003
:1056000036567600264666007405002009E3CA0275
:10561000FEF2ABC4AAF1DFDFBBAFDFDF0146FC481F
:1056200080890880002070472DE9FC4706460F4618
:1056300006F0070010B1B7F5C86F03DD4FF0FF307B
:10564000BDE8FC87384602F017FE8146F14902F0BA
:10565000C9FC80466846FEF77AFD9DF800000228E6
:1056600006D0042816D0082826D0102848D135E0C6
:105670004FF08D41404602F047FE814602F0C4FDE6
:1056800084B2E549404602F03FFE814602F0BCFD8F
:1056900085B238E04FF08C41404602F035FE81463D
:1056A00002F0B2FD84B2DD49404602F02DFE814693
:1056B00002F0AAFD85B226E04FF08B41404602F091
:1056C00023FE814602F0A0FD84B2D549404602F097
:1056D0001BFE814602F098FD85B214E04FF08A412E
:1056E000404602F011FE814602F08EFD84B2CD49A3
:1056F000404602F009FE814602F086FD85B202E0D6
:105700004FF0FF309CE700BF20128DF80400E0B29C
:105710008DF8050028128DF80600E8B28DF8070014
:1057200006F00100A0B101AA02214FF4EA70FFF7D0
:1057300083FB10B14FF0FF3082E70DF1060202212A
:105740004FF49270FFF778FB10B14FF0FF3077E71E
:1057500006F00200A0B101AA02214FF4EC70FFF79D
:105760006BFB10B14FF0FF306AE70DF1060202212A
:105770004FF49470FFF760FB10B14FF0FF305FE71C
:1057800006F00400A0B101AA02214FF4EE70FFF769
:1057900053FB10B14FF0FF3052E70DF1060202212A
:1057A0004FF49670FFF748FB10B14FF0FF3047E71A
:1057B000002045E738B504460020009004F00100C1
:1057C00020B19DF8000040F03000009004F002008D
:1057D00020B19DF8000040F00C00009004F004009F
:1057E00020B19DF8000040F0030000906A460121BE
:1057F0004FF4A470FFF720FB38BD38B50446012CE8
:1058000001DA012402E0042C00DD0424601EC0B291
:1058100000906A46012140F24F10FFF70DFB38BDA2
:1058200038B50446052094FBF0F085B228128DF8B7
:105830000000E8B28DF801006A4602214FF4EF70D3
:10584000FFF7FAFA38BD38B50446052094FBF0F0AE
:1058500085B228128DF80000E8B28DF801006A4682
:1058600002214FF4ED70FFF7E7FA38BDF8B50546B1
:105870000E464FF47A7095FBF0F000FB06F4200E14
:105880008DF80000200C8DF80100200A8DF8020030
:10589000E0B28DF803006A4604214FF4AE70FFF7C2
:1058A000CBFAF8BD38B50446052094FBF0F084B27D
:1058B00020128DF80000E0B28DF801006A46022146
:1058C0004FF4AD70FFF7B8FA38BD38B5044605207F
:1058D00094FBF0F084B220128DF80000E0B28DF855
:1058E00001006A4602214FF4AC70FFF7A5FA38BDFB
:1058F00038B5044614B94FF0FF3038BD6A4604216C
:105900004FF45870FFF7D5FA10B14FF0FF30F4E7BD
:105910009DF8000000069DF8011040EA01409DF846
:10592000021040EA01209DF8031008432060002087
:10593000E3E738B50446200E8DF80000200C8DF802
:105940000100200A8DF80200E0B28DF803006A46DB
:1059500004214FF45870FFF76FFA38BD38B504468C
:1059600014B94FF0FF3038BD6A4604214FF471700E
:10597000FFF79FFA10B14FF0FF30F4E79DF80000F9
:1059800000069DF8011040EA01409DF8021040EA2F
:1059900001209DF80310084300EB80008000206088
:1059A0000020E0E738B504461420B4FBF0F4200EE4
:1059B0008DF80000200C8DF80100200A8DF80200FF
:1059C000E0B28DF803006A4604214FF47170FFF7CE
:1059D00033FA38BD38B5044664B120208DF8000094
:1059E00028208DF8010030208DF8020038208DF835
:1059F000030004E0A3220421684601F0FFF86A4690
:105A0000042140F69E20FFF717FAFDF77DFE38BD12
:105A10007405002000004843000040460000C045D7
:105A2000000040450000C04438B5044664B1C020C1
:105A30008DF80000C2208DF80100C4208DF802000E
:105A4000C6208DF8030004E08B220421684601F093
:105A5000D5F86A46042140F69820FFF7EDF9FDF7E6
:105A600053FE38BD3EB504466CB1FDA1D1E900201E
:105A70008968CDE9002002916A4609214FF49760B8
:105A8000FFF7DAF93EBDF9A2D2E900109268CDE93C
:105A9000010200916A4609214FF49760FFF7CCF9A3
:105AA000F0E73EB5044602208DF80000CA208DF8CC
:105AB0000100E3208DF8020009208DF803006A46FA
:105AC00004216820FFF7B8F9A3208DF8000004F046
:105AD000400048B1C0208DF80100C8208DF80200B8
