:020000040800F2
:10000000900C0020DD010008E1010008E301000878
:10001000E5010008E7010008E90100080000000010
:10002000000000000000000000000000EB010008DC
:10003000ED01000800000000EF010008F1010008D8
:10004000F3010008F3010008F3010008F3010008C0
:10005000F3010008F3010008F30100083718000855
:10006000F3010008F3010008F3010008F3010008A0
:10007000F3010008F3010008F3010008F301000890
:10008000F3010008F3010008F3010008F301000880
:10009000F3010008F3010008F3010008251300082C
:1000A000F3010008072C0008F3010008F301000821
:1000B000F3010008F3010008F3010008F301000850
:1000C000F3010008F3010008F3010008F301000840
:1000D000F3010008370800080D280008F3010008A4
:1000E00009160008F3010008F301000800F002F807
:1000F00000F05FF80AA090E8000C82448344AAF163
:100100000107DA4501D100F054F8AFF2090EBAE860
:100110000F0013F0010F18BFFB1A43F0010318473B
:1001200008A1000028A100000A444FF0000C10F8BC
:10013000013B13F0070408BF10F8014B1D1108BF65
:1001400010F8015B641E05D010F8016B641E01F805
:10015000016BF9D113F0080F1EBF10F8014BAD1C55
:100160000C1B09D16D1E58BF01F801CBFAD505E073
:1001700014F8016B01F8016B6D1EF9D59142D6D3CD
:10018000704700000023002400250026103A28BFF5
:1001900078C1FBD8520728BF30C148BF0B607047F9
:1001A000642906F08D86002070471FB51FBD10B56D
:1001B00010BD07F045F81146FFF7F7FF00F02AF8E9
:1001C00007F063F803B4FFF7F2FF03BC00F074FA22
:1001D00030BF72B662B680F308887047084800479F
:1001E000FEE7FEE7FEE7FEE7FEE7FEE7FEE7FEE7E7
:1001F000FEE7FEE703480449044A054B7047000048
:10020000ED00000890060020900C002090080020CF
:100210009008002008B5092000F0F5F9482000F00A
:1002200095F8022000F0DAF9012000F0D7F94FF438
:100230001651482000F04FFA02F0B9FB472140F276
:10024000CF7001F0EFFD00F033FB01F0C5FE374841
:1002500001F0C8FE06F0A9FB06F0BBFB00F0E0FDD4
:1002600001F03AF801F032F900F087FF03F0F4F9F9
:1002700001F05AFC4FF46141242001F0D8FB4721E2
:1002800041F2873000F09EFD4EE02948006808F0FA
:1002900069F904460C20032322460A21009000201D
:1002A00000F0FFFE2348006808F05CF904460C20CB
:1002B000032322460A2100901E2000F0F2FE0C20AB
:1002C000022300901C4802780A212D2000F0E9FE4C
:1002D0000C2002230090194802780A213C2000F0EB
:1002E000E0FE0C200123009015480278192100201F
:1002F00000F0D7FE0C20012300901248027819214B
:100300000F2000F0CEFE0C20032300900E48028840
:100310001921412000F0C5FE00F0E3FD06480078F9
:10032000012801D102F08CF8AFE70000000048423C
:10033000540100208C0000202C0000209C00002094
:100340007E0000207F000020680000204FF0E021A8
:10035000096921F004014FF0E0221161C21700EB9E
:100360005272C2F3C702234B1A701946097801EB87
:100370004102C2EBC1114FF6FF7202EAC1011E4AEF
:100380001180704701461B4A12784A434FF0E02320
:100390005A6100229A6101221A6100BF4FF0E022E7
:1003A000106900F001021AB100F48032002AF5D081
:1003B00000224FF0E0231A619A61704701460E4A0D
:1003C00012884A434FF0E0235A6100229A610122C9
:1003D0001A6100BF4FF0E022106900F001021AB16B
:1003E00000F48032002AF5D000224FF0E0231A6199
:1003F0009A617047080000200A000020A34A0A40C2
:100400000243A34B1A6070470146072323EA010207
:1004100012029F4B1B1D18684FF6FF0318409D4B9F
:10042000184310439A4B1B1D186070472DE9F0418B
:100430000746884614461D462846FFF7E5FFC5F1E6
:10044000040007FA00F60F20284100EA08000643DE
:1004500006F00F06E21704EBD2625211920002F18D
:10046000E022D2F800212146E31704EBD3635B11AD
:10047000A4EB431C012303FA0CF31A432046E317B1
:1004800004EBD3635B119B0003F1E023C3F800216D
:100490008148005D40EA06107F490855BDE8F081BB
:1004A00070B504460B46CE1701EB9676C6F387006F
:1004B000CE1701EB9676B610A1EB8606B606350E82
:1004C000764B9B6943F00103744EB3614FEAB63338
:1004D00053F820300F26AE40B343714E46F820301B
:1004E000334653F8203004FA05F61E436C4B43F8AC
:1004F00020606C4B1B6801268E403343694E33608D
:1005000002F0010343B1674B0C331B6801268E4098
:100510003343644E0C36336002F0020343B1614B47
:1005200008331E6801238B401E435E4B08331E6058
:1005300070BD00B5002059490861C86014204861A9
:1005400000208861C8610846006840F0010008602A
:1005500008464068544908405049486008460068C9
:10056000524908404D4908600846006820F4802040
:1005700008600846406820F4FE004860002088605B
:1005800000214FF00060FFF739FF00BD10B5404873
:100590000830006840F004003D49083108603F48D9
:1005A000C06940F080503D49C8614148406840F40E
:1005B00080703F4948600846006840F004000860C9
:1005C0000846006840F002000860FFF701FE10BD19
:1005D0003048001D2E49091D086070470146490634
:1005E0002E4A926942F001022C4B9A612C4A083A39
:1005F000526822F0E0622A4B083B5A601A46526861
:100600000A435A60704730B504460025FFF791FF52
:100610002248006840F480302049086000BF1F482D
:100620000068400C0028FAD04FF480601B494860F5
:10063000A01EC4B20846406840EA844048600846AC
:10064000406840F4803048601A48006840F032004A
:10065000184908601148006840F080700F49086030
:1006600000BF0E480068400E0028FAD00B484068D2
:1006700040F002000949486005E008484068C0F3BE
:10068000870505F00305022DF7D130BD80FFFF1F60
:1006900008ED00E00000FA0500E400E00010024070
:1006A00008000140000401400000FFF8FFFFF6FED3
:1006B0000070004000200240014600BF704700BFAC
:1006C0006F4A128802F04002002AF9D0C2B26C4B85
:1006D0001B1D1A8070472DE9F05F05460E4630015C
:1006E00007F094FF8146674905FB01F007F08EFF94
:1006F0008246494607F040FE0746384607F04EFF5F
:1007000084B2204607F082FF8346394608F0C3F8DA
:1007100082464FF0834107F0C1FF814607F03EFF5C
:1007200080464FF6FF7000EA041404EB080084B220
:100730005548806940F00400534988610846806943
:1007400040F4804088615148006820F47F604F4940
:1007500008600846006840F40B6008604A48C068BA
:1007600040F480404849C8600846C06820F4804092
:10077000C860434808300480001D008842F20C0124
:1007800008433F490C3108800846008840F48070D7
:1007900008800846008840F02000088002232522B7
:1007A00000210846FFF742FEBDE8F09F08B5384833
:1007B000007801283ED1002035490870354800787E
:1007C00000F00F00642148433249497801F00F01DD
:1007D00001EB810100EB41002E49897801F00F0106
:1007E00008442D4908800C20032300900846028805
:1007F00019212D2000F055FC27480088642190FB2A
:10080000F1F026490860244800880A2190FBF1F0A5
:1008100090FBF1F201FB1200214908601E4800889C
:100820000A2190FBF1F201FB12001E490860012031
:100830001D49087008BD10B51148008800F020005F
:10084000D8B10F48001D0088C4B212481749097872
:100850004454C0780D2802D101200D490870134876
:100860000078401C1149087008460078042801D11E
:1008700000200870FFF79AFF00BF002010BD0000A5
:100880000038014040420F000010024004080140BF
:100890001400002010000020160000201C00002082
:1008A0002000002024000020190000201800002053
:1008B000F948806940F00400F7498861F74800680A
:1008C0004FF20F018843F54908600846006843F27B
:1008D00003010843F1490860704710B5EF4800680C
:1008E00020F00F00ED4908600846006840F0030062
:1008F00008600120EA490860EA48D0F8200108B9F8
:10090000002010BD0120E6490C310860FFF73AFDD8
:100910000020E449C1F8A001E1488038006808B12E
:100920000020EEE70120FFF72DFD0020DC490C310F
:1009300008600120E5E710B5D848006820F00F00F6
:10094000D64908600846006840F0030008600020AF
:10095000D3490C310860D349C1F8A0010120FFF749
:1009600011FD0120CE490C310860CE49C1F8A0012B
:10097000FFF708FD10BD10B50024C848006820F03E
:100980000F00C64908600846006840F0080008608B
:100990000120C3490860FFF7F5FC0120C149C1F8F7
:1009A000AC01FFF7EFFC0AE0601CC4B2322C03DD9F
:1009B000FFF7C1FF002010BD0120FFF7E3FCB8489E
:1009C000803800680028EFD1B5490C31086001205B
:1009D000F1E710B50020B2490C310860AF4800685B
:1009E00020F00F00AD4908600846006840F00300A1
:1009F00008600020AB49C1F8A0010120FFF7C2FC4C
:100A00000120A7490C310860FFF7BCFC0020A54974
:100A1000C1F8AC0110BD10B50020A1490C3108602F
:100A20009E48006820F00F009C4908600846006856
:100A300040F00300086001209A49C1F8A001FFF7C7
:100A4000A1FC012096490C310860FFF79BFC0020B7
:100A50009449C1F8AC0110BD70B504468F480068D8
:100A600020F00F008D4908600846006840F0030040
:100A7000086000208A490C310860002516E0E00972
:100A8000874908606006040E0120FFF77BFC012007
:100A90008449C1F8AC01FFF775FC002080490C3196
:100AA00008600120FFF76EFC681CC5B2082DE6DB6C
:100AB00070BD2DE9F04105460E4617469846FFF7F2
:100AC0000CFF10B90120BDE8F0816906080EFFF7A0
:100AD000C3FFFFF750FF18B9FFF72DFF0120F2E722
:100AE0003046FFF7B9FFFFF746FF00240BE018F888
:100AF0000400FFF7B1FFFFF73EFF18B9FFF71BFF38
:100B00000020E0E7641CBC42F1DBFFF714FF00208B
:100B1000D9E770B5054600246048006820F00F0052
:100B20005E4908600846006840F00800086000263A
:100B300017E000205A490C3108600220FFF722FC20
:100B400001205849C1F8AC016006040E54488038B1
:100B5000006808B1601CC4B20220FFF713FC701CCF
:100B6000C6B2082EE5DB15B1FFF733FF01E0FFF752
:100B700052FF204670BD2DE9F04106460F4614464F
:100B80001D46FFF7AAFE10B90120BDE8F0817106ED
:100B9000080EFFF761FFFFF7EEFE18B9FFF7CBFE77
:100BA0000120F2E73846FFF757FFFFF7E4FEFFF7B3
:100BB00094FE012101EB4601C8B2FFF74DFFFFF79C
:100BC000DAFE0DE0012C04D10020FFF7A2FF28700F
:100BD00003E00120FFF79DFF28706D1C601EC4B26A
:100BE000002CEFD1FFF7A7FE0020CEE770B5054639
:100BF0000E460024FFF771FE2846FFF72DFF641C08
:100C0000FFF7B9FE3046FFF727FF641CFFF7B3FE7E
:100C1000FFF763FE691CC8B2FFF71EFF641CFFF7F5
:100C2000AAFE0020FFF775FF0446FFF784FE20466A
:100C300070BD2DE9F0410746884615461E46002442
:100C4000FFF74BFE3846FFF707FFFFF794FE4046DD
:100C5000FFF702FFFFF78FFEFFF73FFE791CC8B2D8
:100C6000FFF7FAFEFFF787FE00BF0DE0681EA04207
:100C700004D00120FFF74DFF305503E00020FFF7BF
:100C800048FF3055601CC4B2AC42EFDBFFF753FEA7
:100C90002046BDE8F0810000001002400408014039
:100CA000A0012142000021422DE9F04180460D467D
:100CB00016461F460024FFF710FE4046FFF7CCFE05
:100CC000FFF759FE2846FFF7C7FEFFF754FE00BFA7
:100CD00006E0385DFFF7C0FEFFF74DFE601CC4B2B2
:100CE000B442F6DBFFF727FE0120BDE8F08170B5C6
:100CF00005460E46144631462846FFF777FF20701A
:100D0000012070BD37B504460D4602AB01222946CD
:100D10002046FFF7C9FF3EBD2DE9F8430746884648
:100D200014461D46089E6A4641463846FFF7DFFFD7
:100D300028B3601CFF2101FA00F0C4F10801294426
:100D4000491EFF220A41104300F0FF09C5F10800C7
:100D500006FA00F0C6B2C4F1070006419DF8000093
:100D600000EA090000909DF80000304300909DF8D3
:100D7000002041463846FFF7C5FFBDE8F883002054
:100D8000FBE7F8B506460F4614461D466A46394647
:100D90003046FFF7ACFF2DB10120A0409DF80010B8
:100DA000084305E00120A0409DF8001021EA000062
:100DB000C0B200909DF8002039463046FFF7A2FFF0
:100DC000F8BD000070B505460C461348806940F434
:100DD00000601149886111480580001F04800F4898
:100DE0002038008840F001000C492039088008466E
:100DF000008840F04000088008482C38008840F007
:100E0000010006492C3908800223192201210846D5
:100E1000FFF70CFB70BD0000001002402C2C0140BD
:100E20001748806940F0040015498861154800683A
:100E300020F47F20134908600846006840F44C30D5
:100E4000086010480C30006840F010000D490C316B
:100E50000860704718B900210B4A11600FE00B4978
:100E60000968491C094A1160814208D1064909688C
:100E7000C943074AC2F890110021044A1160704723
:100E8000001002400008014090012142280000208B
:100E90000000214210B50A461AB10123FE4C23601E
:100EA00002E00023FC4C2360002114E00023FB4CF3
:100EB000236000F080031BB10123241F236003E0A3
:100EC0000023F64C241F23600123F44C23604306C7
:100ED000180E4B1CD9B20829E8DB0123EE4C236025
:100EE00010BD30B500241CE004F1B001C8B20021EF
:100EF000FFF7D0FF00210846FFF7CCFF00211020AC
:100F0000FFF7C8FF002508E0E54901EBC501085DD2
:100F10000121FFF7BFFF681CC5B2802DF4DB601C08
:100F2000C4B2082CE0DB30BD00B500218D20FFF7F6
:100F3000B1FF00211420FFF7ADFF0021AF20FFF724
:100F4000A9FF00BD00B500218D20FFF7A3FF002100
:100F50001020FFF79FFF0021AE20FFF79BFF00BD91
:100F600030B500240CE0002506E00020CC4901EB60
:100F7000C5010855681CC5B2802DF6DB601CC4B2E3
:100F8000082CF0DBFFF7ADFF30BDF0B514460026AE
:100F90007F2801DC3F2900DDF0BD0B46CF1701EBB8
:100FA0005777FF10C7F10707FAB2CF1701EB577752
:100FB000FF10A1EBC707FDB2C5F107070123BB4036
:100FC000DEB24CB1B64B03EBC0039B5C3343B44F72
:100FD00007EBC007BB5408E0B14B03EBC0039B5CBD
:100FE000B343AF4F07EBC007BB5400BFD4E72DE9B5
:100FF000F04F80460C4615461E46A346A5F120003C
:10100000C5B200273EE00C2E07D105EB4500A549EF
:1010100001EB800010F8079004E0A34800EB0510F6
:1010200010F807904FF0000A26E009F0800028B180
:1010300021464046099AFFF7A8FF09E0099808B938
:10104000012000E00020024621464046FFF79DFFB8
:101050004FEA49604FEA1069601CC4B2A4EB0B0070
:10106000B04205D15C4608F1010000F0FF0806E03F
:101070000AF1010000F0FF0ABAF1080FD5DB00BF4A
:10108000781CC7B2B742BEDBBDE8F08F10B5024690
:10109000012000E050430B1EA1F10104E1B2F9D19F
:1010A00010BD2DE9FF4F81B0074691461E460E9DAB
:1010B0004FF0000A002439E0301B401EC1B20A2064
:1010C000FFF7E4FFB9FBF0F00A21B0FBF1F201FBFE
:1010D0001208BAF1000F16D1701EA04213DDB8F14C
:1010E000000F0ED10120AB4605EBDB71491001FB6F
:1010F00004710090C8B22B4620220299FFF777FFB7
:1011000012E04FF0010A0120AB4605EBDB714910FC
:1011100001FB04710090C8B208F13001CAB22B463D
:101120000299FFF764FF00BF601CC4B2B442C3DB86
:1011300005B0BDE8F08F78B505460E46144618E0B8
:101140007A2D03DD002506F11000C6B23A2E04DD2B
:10115000002005460646FFF703FF01200090227895
:101160000C2331462846FFF742FF05F10800C5B2BF
:10117000641C20780028E3D178BD10B54B48806905
:1011800040F00800494988614948006849490840D9
:1011900047490860084600684749084344490860D1
:1011A0004248806940F00400404988614348006833
:1011B00020F07040414908600846006840F0005047
:1011C000086000203549083908606420FFF7F6F808
:1011D00001203B49C1F88C010021AE20FFF75AFEE7
:1011E0000021D520FFF756FE00215020FFF752FEC8
:1011F0000021A820FFF74EFE00213F20FFF74AFE06
:101200000021D320FFF746FE00210846FFF742FEEB
:1012100000214020FFF73EFE00218D20FFF73AFE1F
:1012200000211420FFF736FE00212020FFF732FEB8
:1012300000210220FFF72EFE0021A120FFF72AFE49
:101240000021C020FFF726FE0021DA20FFF722FE52
:1012500000211220FFF71EFE00218120FFF71AFE59
:101260000021EF20FFF716FE0021D920FFF712FE24
:101270000021F120FFF70EFE0021DB20FFF70AFE20
:1012800000213020FFF706FE0021A420FFF702FE18
:101290000021A62016E00000BC01214294812142D9
:1012A00078010020868A0008FA8E000800100240AB
:1012B000000C0140FF0F00FF002022000408014045
:1012C00000802142FFF7E6FD0021AF20FFF7E2FD9D
:1012D000FFF746FE10BD000010B56E48806940F073
:1012E00004006C4988616C48006820F470006A4909
:1012F00008600846006840F40000086066480C304A
:10130000006840F4004064490C3108600122052166
:101310000020FFF7C5F80223172201211846FFF726
:1013200085F810BD10B50A20FFF748F85B48006843
:1013300088B95A487C300068C0435949C1F89001C7
:1013400058480078401C5749087008460078032820
:1013500001D10020087020205349086010BD0146CB
:101360004E48006828B951480088401C4F4A1080F8
:1013700002E000204D4A10804848006828B94C48D7
:10138000007810B901204A4A10704A480078B0B974
:1013900047480078012807D147480078401C464A52
:1013A00010700120434A107043480078022806D18B
:1013B0000020414A1070414A10800220704737488F
:1013C0000068012804D10020394A1070394A107091
:1013D0003948007801281CD138480088401C374A19
:1013E00010801046008888420ADD30480088884214
:1013F00006DA0020304A1070304A10800120DDE704
:101400002A480088884204DD00202B4A10702B4AAD
:1014100010800020D2E710B52948007868B11F4835
:10142000006850B90A20FEF7C9FF1C48006850B98F
:10143000002023490870012010BD184800680128C9
:1014400001D11F4908700020F6E71E48008840B906
:101450001248006828B91C480088401C1A490880B6
:1014600002E000201849088017480088C82807DDD6
:10147000012014490880002013490880012070478A
:1014800010480088012802D100200E490880002061
:10149000F5E700000010024000080140140121425D
:1014A000000021422C0000201404014032000020E2
:1014B0002D0000202E0000202F00002030000020F2
:1014C00034000020380000203600002010B5FE480F
:1014D000806940F00800FC4988610846806940F056
:1014E00004008861F948006820F0F000F7490860BE
:1014F0000846006840F080000860F4480C3000683E
:1015000040F00200F1490C310860F148006880B2F7
:10151000EF49086008460068EE490843EC49086056
:10152000EB480C30006840F47040E9490C31086029
:10153000022201210020FEF7B3FF03220C2101202B
:10154000FEF7AEFF03220D210120FEF7A9FF0322C3
:101550000E210120FEF7A4FF03220F210120FEF738
:101560009FFF0223072200210846FEF75FFF0223A8
:10157000282200210846FEF759FF10BD10B5D248B9
:10158000806940F00400D0498861D048001D00689F
:1015900020F47020CD49091D08600846006840F419
:1015A00000200860C9480C30006840F48050C749EA
:1015B0000C310860C548006820F0F000C34908609D
:1015C0000846006840F080000860C0480C300068A1
:1015D00040F00200BD490C31086002220C210020BD
:1015E000FEF75EFF022201210020FEF759FF0223D1
:1015F000282200210846FEF719FF022307220021B6
:101600000846FEF713FF10BD10B5B348006800F49C
:10161000805050B3B1480078B1490978884205D16B
:10162000B0488078012801D1AF490870AB480078F4
:10163000052808D1AD48007828B9AA488078012843
:1016400001D1AB490870A5480078042809D1A74802
:10165000007830B9A3488078012802D10320A54939
:1016600008704FF480509C4908609B48006800F463
:101670000050B8B39948007899490978884206D152
:1016800098488078022802D1012097490870934831
:101690000078042806D193488078022802D10120DE
:1016A000954908708D480078042809D18F48007842
:1016B00030B98C488078022802D103208C49087008
:1016C00086480078032809D18848007830B98548D1
:1016D0008078022802D10120864908704FF400501A
:1016E0007D4908607C48006800F48040002857D09D
:1016F0007A480078042809D17C48007830B97948C4
:101700008078032802D101207C4908707348007852
:10171000052809D17548007830B9724880780328C7
:1017200002D10220724908706C480078032809D160
:101730006E48007830B96B488078032802D10220C7
:101740006C4908701220FEF739FE6D4800680128C8
:1017500004D16C480078401C6A4908705F480078E2
:10176000062808D16148007828B965480068012832
:1017700001D1654908705948007868B95B4800781C
:1017800050B958488078022806D16048007804286B
:1017900002D101205E4908704FF480404E49086034
:1017A0004D48006800F40040F0B34C48007804282D
:1017B0000AD14E480078012806D14A48807804288A
:1017C00002D10120534908704448007804280CD104
:1017D0004648007848B943488078032805D101205D
:1017E0004649087000203F4988703C48007868B935
:1017F0003E48007850B93B488078022806D14348DB
:101800000078042802D1012041490870334800784B
:1018100005280BD13548007840B932488078032834
:1018200004D10220324900E004E008704FF4004087
:101830002949086010BD08B51220FEF7BFFD3648E3
:101840000068012810D135480068401C3349086001
:101850000C20022300900846002102685A20FFF75E
:1018600020FC01202E49086002201B49086008BDA9
:101870002DE9F0411B480078022873D119484078BF
:1018800001286FD11E48006810B91D48001D00686E
:101890001B48001D0068012801D11948006818483C
:1018A000001D006870B916480068012844D11D4821
:1018B000006806F0C7FC06461B4A1C4B06F0D8FB26
:1018C000044635E038E00000001002400008014006
:1018D000000C014000008888140401407E000020B4
:1018E0008100002050000020410000207F000020E7
:1018F000A9000020AB000020A7000020A5000020C8
:10190000388121429C000020A1000020A40000207A
:10191000A3000020A6000020040121424400002072
:10192000480000208C000020B81E85EB51B89E3F77
:1019300005F068FF3349086033480068012811D179
:101940003148001F006868B92E48006806F07AFC2C
:1019500006462E4A2E4B05F087FF044605F052FF3F
:10196000284908602B480078012840D12948407850
:1019700004283CD124480C38006810B922480838A3
:101980000068214808380068012802D11E480C3838
:1019900000681D480838006890B91B480C3800687A
:1019A00001280DD11748006806F04CFC0646174A7E
:1019B000174B06F05DFB044605F024FF1149086053
:1019C000114808380068012811D10F480C38006808
:1019D00068B90C48006806F035FC06460B4A0C4B0B
:1019E00005F042FF044605F00DFF0649086009486E
:1019F000007828B900231A461946184600F084FAE0
:101A0000BDE8F0818C0000203C812142B81E85EBAE
:101A100051B89E3F500000203E49088000BF3D491C
:101A2000091F098801F040010029F8D070472DE90D
:101A3000F05F05460E46300106F0E8FD8146364966
:101A400005FB01F006F0E2FD8246494606F094FCF3
:101A50000746384606F0A2FD84B2204606F0D6FDC1
:101A60008346394606F017FF82464FF0834106F061
:101A700015FE814606F092FD80464FF6FF7000EAA3
:101A8000041404EB080084B22448806940F0040088
:101A9000224988610846C06940F40030C861204886
:101AA000006820F47F401E4908600846006840F442
:101AB0000B4008601A480C30006840F480601849F8
:101AC0000C3108601548006940F480201349086112
:101AD0000846006920F48020086112480480001D37
:101AE000008842F20C0108430E49091D088008468F
:101AF000008840F4807008800846008840F020008C
:101B000008800223262201210020FEF78FFCBDE879
:101B1000F09F00000438014040420F0000100240D6
:101B20000008014008440040B048806940F01400BB
:101B3000AE498861AE48006820F00F00AC490860EB
:101B40000846006840F003000860AA48006820F0DA
:101B50007F40A84908600846006840F04C50086083
:101B6000081D006820F0FF00091D08600846006895
:101B700040F033000860A0484068C0F313009E495D
:101B80004860084640689D4908439B494860704743
:101B900001209B49086000209A49C1F8A401012056
:101BA000994908600020091D086001209449091F17
:101BB00008600020091F086001209349083108606F
:101BC00000209249C1F88001704701208C49091D0D
:101BD000086000208B49C1F8A00101208A490860F3
:101BE0000020091D086001208549091F08600020A8
:101BF000091F086001208649086000208549C1F856
:101C0000BC01704701207E49086000207D49C1F871
:101C1000A40101207C49091D08600020091F0860FB
:101C200001207749083908600020091D086001205B
:101C300075490831086000207449C1F88001704777
:101C400001206F49091D086000206E49C1F8A001FC
:101C500001206D49091D08600020091F086001204E
:101C60006749083908600020091D0860012068499B
:101C7000086000206749C1F8BC0170470120604935
:101C8000091D086000205F49C1F8A00101205E49DC
:101C9000091D08600020091F086001205849091F1C
:101CA00008600020091F08600120574908310860BA
:101CB00000205649C1F88001704701205049086052
:101CC00000205049C1F8A40101204F4908600020BC
:101CD000091D086001204A49083908600020091DD3
:101CE000086001204A49086000204A49C1F8BC0147
:101CF000704770B548484078012817D1FFF748FF72
:101D0000464C2468464D2D686319444C2468444D64
:101D10002D68621B414C2468414D2D6861193F4C70
:101D200024683F4D2D68601B00F0EEF83A4840787B
:101D3000022817D1FFF784FF384C2468384D2D68EE
:101D4000631B364C2468364D2D686219334C246869
:101D5000334D2D68611B314C2468314D2D6860195D
:101D600000F0D2F82C484078032817D1FFF7A5FFE0
:101D70002A4C24682A4D2D686319284C2468284D64
:101D80002D686219254C2468254D2D68611B234C54
:101D90002468234D2D68601B00F0B6F81E4840787B
:101DA000042817D1FFF76AFF1C4C24681C4D2D68CE
:101DB000631B1A4C24681A4D2D68621B174C24684B
:101DC000174D2D686119154C2468154D2D68601943
:101DD00000F09AF81048407828B900231A461946AE
:101DE000184600F091F870BD7047000000100240E6
:101DF00000080140000C0140001001400000303399
:101E0000A081214200802142B401224200002142EF
:101E10008001214200002242500000204C0000209E
:101E2000940000204E4AD26942F002024C4BDA6123
:101E30001A46926942F00C029A614A4A126822F0EC
:101E40007F42484B1A601A46126842F03B421A60C1
:101E5000454A126822F0FF02434B1A601A46126884
:101E600042F0BB021A60414B18801B1F19803F4A89
:101E7000143A128842F060023C4B143B1A801A4616
:101E8000128842F4C0421A801A1D128842F0600281
:101E90001B1D1A801A46128842F4C0421A801A1F6B
:101EA000128842F008021B1F1A801A46128842F458
:101EB00000621A801A1D128842F008021B1D1A8047
:101EC0001A46128842F400621A801A1D128842F0E3
:101ED00001021B1D1A801A46128842F010021A8055
:101EE0001A46128842F480721A801A46128842F406
:101EF00080521A8080221D4B2C3B1A801A46128871
:101F000042F001021A80704730B5B0F5E16F01DD93
:101F10004FF4E160002800DA0020B1F5E16F01DD47
:101F20004FF4E161002900DA0021B2F5E16F01DD33
:101F30004FF4E162002A00DA0022B3F5E16F01DD1F
:101F40004FF4E163002B00DA0023084D08352A80A6
:101F50002D1D2B802D1D29802D1D288030BD0000BA
:101F60000010024000080140000C01402C04004019
:101F700070B505460C46FEF7B0FC8020FEF76CFD00
:101F8000FEF7F9FC2846FEF767FDFEF7F4FC204655
:101F9000FEF762FDFEF7EFFCFEF7CDFC70BD70B5FD
:101FA0000446FEF79AFC8020FEF756FDFEF7E3FCA0
:101FB0002046FEF751FDFEF7DEFCFEF78EFC812089
:101FC000FEF74AFDFEF7D7FC0020FEF7A2FD05460E
:101FD000FEF7B1FC284670BD10B500210846FFF79A
:101FE000C7FF10BD2DE9FC5F8346584606F02AF96D
:101FF0008046934A934B05F0FBFE064605F002FC33
:1020000083460024904D0022904B2046294605F03F
:10201000E7FC04460D46584606F014F906463246DB
:102020000B462046294605F0DBFC04460D460022FF
:10203000874B2046294606F01BF804460D46002231
:10204000844B2046294605F00FFC064605F06CFB44
:10205000804605F04DFEC0B201900020FFF79FFFC3
:1020600082460AF07F0040F01000009000200099A6
:10207000FFF77EFFFE200199FFF77AFF514600200F
:10208000FFF776FF0220FEF799F94AF0A101002040
:10209000FFF76EFFBDE8FC9F70B504460D4616467F
:1020A000E9B2A200921DD0B2FFF762FFA100C91DE4
:1020B000C8B2C5F30721FFF75BFFF1B2A2000832F7
:1020C000D0B2FFF755FFA1000931C8B2C6F307210E
:1020D000FFF74EFF70BD70B505460C46FEF7FDFBE1
:1020E0008220FEF7B9FCFEF746FC2846FEF7B4FC5A
:1020F000FEF741FC2046FEF7AFFCFEF73CFCFEF786
:102100001AFC70BD70B50446FEF7E7FB8220FEF7AF
:10211000A3FCFEF730FC2046FEF79EFCFEF72BFCEE
:10212000FEF7DBFB8320FEF797FCFEF724FC002084
:10213000FEF7EFFC0546FEF7FEFB284670BD10B526
:10214000FEF7B6FB00210846FFF7C5FF10BD2DE9DD
:10215000FC5F8346584606F075F88046384A394B8E
:1021600005F046FE064605F04DFB83460024364D3D
:102170000022364B2046294605F032FC04460D4627
:10218000584606F05FF8064632460B46204629467A
:1021900005F026FC04460D4600222D4B204629461C
:1021A00005F066FF04460D4600222A4B20462946CC
:1021B00005F05AFB064605F0B7FA804605F098FD93
:1021C000C0B201900020FFF79DFF82460AF07F0019
:1021D00040F01000009000200099FFF77CFFFE20E7
:1021E0000199FFF778FF51460020FFF774FF0220A6
:1021F000FEF7E4F84AF0A1010020FFF76CFFBDE80C
:10220000FC9F70B504460D461646E9B2A200921D29
:10221000D0B2FFF760FFA100C91DC8B2C5F3072106
:10222000FFF759FFF1B2A2000832D0B2FFF753FF17
:10223000A1000931C8B2C6F30721FFF74CFF70BDFA
:10224000713D0AD7A370ED3F84D777410000B040BD
:102250000000F03F0000E03F704770472DE9F0417B
:102260000446204606F0BAF90746FE4906F016FA7B
:102270000646FD4906F012F8054606F073F9BDE87A
:10228000F0812DE9F0478246504605F05EFD80461C
:10229000F64AF74B05F0ACFD06460022F54B05F07B
:1022A000E3FA044605F0F4FCBDE8F0872DE9FC5F95
:1022B00082460E4617461D46DDF830B00024002049
:1022C0000190ABEB050800F099FA81463BE0EA4843
:1022D0000068A0EB0900B84213DD012E11D12819C6
:1022E000FFF7CFFF0246002100905046FFF7D4FED3
:1022F000B8F1000F01DD641C00E0641EDE48D0F878
:102300000090DD480068A0EB0900B8421BDD022EFA
:1023100019D10C2003232246282100900020FEF72B
:10232000C0FE2819FFF79AFF024600210090504690
:10233000FFF7B2FEB8F1000F01DD641C00E0641E7F
:10234000CD48D0F80090A045C1D1BDE8FC9F38B57C
:1023500004461CBB2820FFF781FF05462A460021C2
:102360000846FFF799FE2820FFF778FF05462A4622
:1023700000210420FFF790FE0020FFF76FFF0546C5
:102380002A4600210820FFF787FE8720FFF779FF04
:1023900005462A4600210C20FFF77EFE012C18D1AD
:1023A0001E20FFF75BFF05462A4600210846FFF77F
:1023B00073FE282055230122022100900420FFF7FC
:1023C00075FF0A2041230122022100900820FFF717
:1023D0006DFF022C18D11E20FFF740FF05462A464C
:1023E00000210846FFF758FE282069230122022118
:1023F00000900420FFF75AFF1420502301220221ED
:1024000000900820FFF752FF032C18D11E20FFF781
:1024100025FF05462A4600210846FFF73DFE2820F5
:1024200064230122022100900420FFF73FFF1420C3
:102430004B230122022100900820FFF737FF38BD0F
:1024400038B5142000F020FC6420FFF707FF044695
:10245000224600210846FFF71FFE0520FFF7FEFE7B
:102460000446224600210420FFF716FE962014237E
:102470000122022100900820FFF718FF6420FFF7D7
:1024800000FF0446224600210C20FFF705FE1E2017
:1024900000F0FAFB14208223012202210090082080
:1024A000FFF704FF3C2005230122022100900420B5
:1024B000FFF7FCFE0020FFF74AFF38BD38B51420B7
:1024C00000F0E2FB9620FFF7C9FE044622460021F9
:1024D0000846FFF7E1FD0520FFF7C0FE044622464F
:1024E00000210420FFF7D8FD9620142301220221A9
:1024F00000900820FFF7DAFE6420FFF7C2FE0446D2
:10250000224600210C20FFF7C7FD1E2000F0BCFB77
:10251000142082230122022100900820FFF7C6FE2A
:102520003C2005230122022100900420FFF7BEFE7B
:102530000020FFF70CFF38BD38B5142000F0A4FBD5
:102540003720FFF78BFE0446224600210846FFF79E
:10255000A3FD0520FFF782FE044622460021042049
:10256000FFF79AFD962014230122022100900820F3
:10257000FFF79CFE6420FFF784FE044622460021FC
:102580000C20FFF789FD1E2000F07EFB1420822323
:102590000122022100900820FFF788FE3C2005233D
:1025A0000122022100900420FFF780FE0020FFF7A7
:1025B000CEFE38BD38B54320FFF750FE0446224614
:1025C00000210846FFF768FD142000F05DFB4B205A
:1025D000FFF744FE0446224600210820FFF75CFD79
:1025E000142000F051FB64202323012202210090DB
:1025F0000420FFF75BFE6E20FFF743FE04462246F1
:1026000000210C20FFF748FD142000F03DFB38BDF1
:1026100038B57D20FFF722FE0446224600210846F9
:10262000FFF73AFD142000F02FFB5020FFF716FEB5
:102630000446224600210820FFF72EFD142000F05A
:1026400023FB692023230222114600900420FFF778
:102650002DFE142000F018FB6E20FFF712FE04463A
:1026600022460BE075E5C13F0000CC4282035ABA16
:10267000822D0240008059407000002000210C2073
:10268000FFF70AFD142000F0FFFA38BD38B56420CA
:10269000FFF7E4FD0446224600210846FFF7FCFC54
:1026A000142000F0F1FA3C20FFF7D8FD0446224642
:1026B00000210820FFF7F0FC142000F0E5FA552077
:1026C00023230122022100900420FFF7EFFD6E205A
:1026D000FFF7D7FD0446224600210C20FFF7DCFC63
:1026E000142000F0D1FA38BD10B53720FFF7B6FD41
:1026F0000446224600210420FFF7CEFC142000F0FF
:10270000C3FA3C20FFF7AAFD044622460021082018
:10271000FFF7C2FC142000F0B7FA6920FFF79EFD16
:102720000446224600210846FFF7B6FC142000F0BC
:10273000ABFA5A20FFF7A5FD0446224600210C20E3
:10274000FFF7AAFC0A2000F09FFA10BD10B59920EF
:10275000FFF797FD0446224600210C20FFF79CFC62
:10276000142000F091FA5F20FFF778FD044622461E
:1027700000210820FFF790FC142000F085FA10BD1E
:1027800010B50446FFF7B0FF204600F084F810BDF6
:102790000146072913D2DFE801F0120406080A0CEB
:1027A0000F007B200BE0842009E0D52007E0E72024
:1027B00005E04FF49C7002E040F2411000BF00BF02
:1027C000704700B588480078012816D10020864956
:1027D000087086488078864908708448C0788549A2
:1027E000087008460078FFF7D3FF834908808048C7
:1027F0000078FFF7CDFF8149088000BD8048006860
:10280000401C7F49086008460068704710B57D4845
:10281000008800F0200000283CD07A48001D008885
:10282000C4B2FFF7EBFF7849086070487749097830
:1028300044547648007830B96C4800785A2802D061
:1028400000207249087071480078012806D1674855
:102850004078A52802D000206C4908706B480078A9
:10286000401C6A49087008460078042804D10020FA
:10287000087001205C490870FFF7A3FF62480068F8
:102880006349086001206349087063A20A2150204F
:10289000FEF751FC10BD10B504465748008864216E
:1028A00090FBF1F0A0420BD15CA22D210020FEF79D
:1028B00042FCFFF7ADFEFFF749FF0220FFF747FD9F
:1028C0004D4800880A2190FBF1F090FBF1F201FBEA
:1028D0001200A0420BD152A22D210020FEF72BFCAA
:1028E000FFF7D4FEFFF732FF0120FFF730FD42482B
:1028F00000880A2190FBF1F201FB1200A0420BD1EB
:1029000048A22D210020FEF716FCFFF753FEFFF72B
:102910001DFF0320FFF71BFD10BD704710B5FFF72B
:102920006DFF3B490968401A502807D900203949F2
:1029300008703DA20A215A20FEF7FDFB10BD3B4B5B
:102940001B88C3F1A000002801DB034600E04342DE
:102950001A463748006800FB02F109B10846704783
:1029600000BFFCE700B52B480078012817D1FFF71E
:10297000E6FF304908602D480088A02803DD0220CA
:102980002D49887012E029480088A02803DA012028
:10299000294988700AE000202749887006E04FF432
:1029A00048702449086000202349887000BD2348EE
:1029B000806940F00800214988612148006820F4BE
:1029C00070601F4908600846006840F44070086065
:1029D0001B480C3000681A490C3108607047012010
:1029E0001849086070470000650000206100002061
:1029F0006A0000206E0000206800002066000020B1
:102A000070000020004400405800002060000020BA
:102A10005C00002054000020590000006C00000001
:102A20006D000000720000004E0000006C000020ED
:102A3000740000204C0000205000002000100240D4
:102A4000000C014088812142FE480068012858D1CD
:102A5000FD490870FD480078172852D10020FB4935
:102A60000870F8490860FA48006801280DD1F94853
:102A70004078012809D1F8480078401CF6490870D0
:102A80000020F3490860F0490870F1480068012807
:102A90000DD1F0484078022809D1EF480078401E57
:102AA000ED4908700020EA490860E7490870E848E5
:102AB000006802280DD1E7484078042809D1E7488A
:102AC0000078401CE54908700020E1490860DE49B3
:102AD0000870DF48006802280ED1DE4840780328DD
:102AE0000AD1DE480078401EDC4908700020D84931
:102AF0000860D549087004E00020D5490860D24933
:102B00000870D1480078012804D1D0480078401CD2
:102B1000CE49087070472DE9F05F04460D462946FE
:102B2000204605F0B8FE064605F01CFDCC490860BD
:102B300008460068232801DD23200860C848006893
:102B400010F1230F03DA6FF02200C5490860C44872
:102B5000006805F043FD8346C2480168584605F009
:102B60009DFD8046BE490968BF4A1268881A05F073
:102B700035FD8346BD480168584605F08FFD814606
:102B8000414605F08BFB0746B948006805F026FD75
:102B90008246394605F082FB064605F0E3FCB4495F
:102BA0000860AF480068B0490860B1480068BDE8F7
:102BB000F09FA8488078012804D10220A549087018
:102BC00001204870A3488078022802D1A1490870EA
:102BD0004870A0488078032804D101209D490870DE
:102BE000032048709B488078042804D1012099492B
:102BF0000870042048709748807818B900209549DB
:102C000008704870704710B59A48008800F00100BD
:102C1000002838D098480068401C974908609548BB
:102C2000008820F00100934908809349086800EB70
:102C3000D0714910A0EB410109B9FFF7DFFD03F0A6
:102C400029FF8D480068C82809D18C4800688C4944
:102C5000086001208B4908700020FFF778FB894845
:102C6000007801280FD1FFF7A4FF85480168834849
:102C70000068FFF750FF84490860FFF73AF8FEF755
:102C8000F7FDFFF7E1FE10BD70B50446FFF7B6FD96
:102C9000054600BF7D480068401BA042FADB70BDBE
:102CA00010B57B48007810B904206A4988707948CB
:102CB0000078022811DD7648007870B90120744947
:102CC00008700320634988706420FDF777FB0020BB
:102CD000604988706420FDF771FB6D480078012819
:102CE00004D15C4988700220694908705A4800780C
:102CF000062805D16848007810B902205549887027
:102D000066480078012810D152498870C820FDF724
:102D100055FB00204F498870C820FDF74FFB01206C
:102D20005D49087002205D4908705B480078012801
:102D300031D15B48007848B94FF42F705949086089
:102D400059484F4908600320424988705448007828
:102D5000012808D104203F4988706420FDF72EFB2C
:102D600002204F4908704E480078022813D14E487F
:102D700043490860022037498870374800780528A1
:102D800003DA4FF49660474908600120474908700C
:102D900003204149087010BD10B54548007800284F
:102DA0004ED13B48007810B904202A498870394830
:102DB0000078022811DD3648007870B901203449C6
:102DC00008700320234988701420FFF75DFF00205E
:102DD000204988701420FFF757FF2D4800780128FC
:102DE00004D11C4988700220294908701A480078CB
:102DF000022801D1FFF7F3FD17480078032803D11B
:102E00004FF42F702749086013480078042805D133
:102E10002148007810B900200E49887025480078B4
:102E2000012804D11C4908700020224908701A4862
:102E3000007801284FD11C481149086003203BE06D
:102E400049E0000048000020800000207D000020B4
:102E500044000020500000207E0000207F00002061
:102E6000B000002088000020B8000020840000206E
:102E7000B4000020102C01409800002054010020D4
:102E80008C000020830000209400002070000020AF
:102E90009D0000209C0000209E0000209F0000203C
:102EA000A10000204C00002000003443A0000020BE
:102EB000A200002019000020F849887040F24C4020
:102EC000F74908600120F74908700320F6490870A7
:102ED0000120F649087010BD10B50446012C77D1C9
:102EE000F3480078052805D10120EC4988700620B8
:102EF000EF490870EF480078012818D1EC480078B5
:102F0000062814D10220E54988701E20FFF7BCFE78
:102F10000020E24988701E20FFF7B6FE0420DF493A
:102F200088700020E34908700720E1490870E048F4
:102F30000078072815D1E0480078052811D1DF482E
:102F4000007802280DD10020D4498870FFF778FA64
:102F5000DB48DC4908600320D04988700820D44948
:102F60000870D4480078022815D1D1480078082884
:102F700011D10420C94988700A20FFF785FED04886
:102F8000D04908600220C54988700020C9490870EE
:102F90000920C7490870C6480078092801D10120D6
:102FA00000E00020C349087090B10120BB4988703F
:102FB0001E20FFF769FE0020B8498870BD490870DF
:102FC0000024BB490870C0480078401CBE49087006
:102FD000022C3BD1B6480078052805D10420AF4922
:102FE00088700620B2490870B1480078062818D1C8
:102FF000B1480078042814D1B0480078022810D1D4
:103000000020A6498870FFF71BFA3220FFF73CFE2C
:10301000AB48AC4908600320A04988700720A44948
:103020000870AA480078012810D1A1480078072824
:103030000CD100209E49087098498870A3490870F7
:103040000024A1480078401C9F490870032C78D1C7
:1030500097480078052808D199489A4908600220C5
:103060008E49887006209249087099480078012896
:103070000FD18F48007806280BD10120874988702E
:103080001E20FFF701FE042084498870072088492C
:10309000087087480078072818D1874800780328E7
:1030A00014D186480078022810D100207B4988700E
:1030B000FFF7C6F93220FFF7E7FD81488149086034
:1030C0000320764988700820794908708048007884
:1030D00002281BD176480078082817D104206F49B0
:1030E00088701E20FFF7D0FD00206C4988701E20DC
:1030F000FFF7CAFD7248734908600120674988706C
:1031000000207349087009206949087070480078E8
:10311000032816D166480078092812D102205F4999
:1031200088701E20FFF7B0FD00205C498870684958
:10313000087000245E49087063480078401C6249AA
:10314000087010BD10B56048007801283FD155487F
:10315000007801283BD15D48007801280FD1544800
:10316000007860B900204D4988705A480068FFF720
:1031700007FB00205549087003204D4908704C4852
:103180000078032802D10420494908704848007893
:10319000042818D14F480068012804D0022806D01E
:1031A00003280CD107E001204B49087007E00220FA
:1031B0004949087003E003204749087000BF00BF79
:1031C00005203B49087044480078FFF785FE3E48DB
:1031D0000078022834D13648007848B900202F49B9
:1031E00088703E480068FFF7CBFA0320304908702A
:1031F0002F480078032802D104202D4908702C485C
:103200000078042818D135480068012804D0022825
:1032100006D003280CD107E001202F49087007E0F1
:1032200002202D49087003E003202B49087000BFDD
:1032300000BF05201E49087027480078FFF74CFEA4
:1032400021480078032859D11948007848B900204E
:103250001249887022480068FFF792FA0320144947
:10326000087013480078032802D104201049087020
:103270000F48007804283DD119480068012804D07F
:10328000022806D0032831D12CE001201249087011
:103290002CE002201049087028E0000050000020B7
:1032A0004C000020A00000209E000020A200002072
:1032B000A7000020A90000207E0000207F00002041
:1032C00000002A438C000020A4000020A50000205C
:1032D000AB0000201C000020A800002020000020DF
:1032E000240000200320EA49087000BF00BF052029
:1032F000E8490870E6480078FFF7EEFDE6480078F8
:1033000004284ED1E348007860B9E448E4490860F5
:103310000320E449887040F24C40E34908600120F2
:10332000DC490870E148007801280CD1E048DC490C
:1033300008600220DB49887040F24C40DA4908609E
:103340000020DA490870DB480078012807D1D54809
:103350008078022803D14FF42F70D3490860D648F3
:103360000078012816D10020CE4988703220FFF75E
:103370008BFCCA48CA4908600320CA49887040F2D9
:10338000E240C94908604FF49670FFF77DFC0220C7
:10339000C9490870C8480078022802D10020C149F4
:1033A000887010BDC34A1278904205DDC34A127876
:1033B00012B90122BB4B9A70C04A1278012A0DD172
:1033C000B84A9278012A09D1BD4A1278914205DDA6
:1033D000BC4A127812B90422B24B9A70B84A1278D9
:1033E0008A4202D10022B54B1A70B64A1278012ADD
:1033F0000CD1AC4A9278042A08D10022A94B9A70C9
:103400000122B14B1A700022AE4B1A70A94A1278F1
:10341000904205DAA94A127812B90222A14B9A7099
:10342000A64A1278012A0DD19E4A9278022A09D121
:10343000A34A1278914205DAA24A127812B90322FD
:10344000984B9A709E4A12788A4202D100229B4B76
:103450001A709C4A1278012A0CD1924A9278032A57
:1034600008D100228F4B9A700122974B1A700022CC
:10347000944B1A70944A1278012A20D1894A927882
:10348000EAB9924A12788B4B1B789A4208D18F4A3C
:1034900052788B4B1B789A4202D101228C4B1A70C6
:1034A0008C4A1278834B1B789A4208D1894A527809
:1034B000834B1B789A4202D10122874B1A707047C6
:1034C00000B58348007860B9804800788349087067
:1034D0007E484078824908707C4A51781078FFF71E
:1034E00061FF7B48007801280CD17A4800787B493D
:1034F0000870784840787A490870764A5178107890
:10350000FFF750FF74480078012802D10020654978
:10351000887000BD2DE9F04788B00546012D7DD0AB
:103520004621D020FDF762FB80464521D020FDF7E3
:103530005DFB08EB0027384605F050F804464021B3
:10354000D020FDF753FB80463F21D020FDF74EFBF6
:1035500008EB0027384605F041F882463C21D02090
:10356000FDF744FB80463B21D020FDF73FFB08EBF5
:103570000027384605F032F881464FF08E4120464C
:1035800005F058F905D24FF08F41204605F08EF92D
:1035900004464FF08E41504605F04CF905D24FF0ED
:1035A0008F41504605F082F982464FF08E414846E1
:1035B00005F040F905D24FF08F41484605F076F905
:1035C0008146504604F03EFE07468846484604F0D1
:1035D00039FE3A464346CDE9000103F0E5FF0022FB
:1035E000404BCDE9020104F003FC3F4A3F4BCDE9DB
:1035F000040104F0F5F9CDE9060104F003F90646EB
:10360000204604F01FFE4FF06632394BCDE906012B
:1036100004F0E6F9074604F0F5F800E019E0044686
:1036200034480078022806D184F0004739463046F5
:1036300002F06EFE09E02F480078032805D184F0DF
:1036400000473946304602F07AFF2B4800682B4984
:10365000086008B0BDE8F08729482A4908600020C2
:1036600029490860294908600D4908600D4908701A
:10367000087005201549087001204870032015497D
:103680000870002048701549087015490870704787
:10369000A8000020A7000020A400002000002A436A
:1036A0008C000020500000204C000020A5000020CD
:1036B00000003A437E000020A300002041000020CB
:1036C0007F00002042000020AC0000207800002095
:1036D000AD0000207A000020AE0000208100002014
:1036E0008200002000806640F1D4C853FB210940CD
:1036F0006666304000000020EC000020040000203E
:10370000000048428400002088000020540100206E
:1037100038B50446FB4890F82400C0B114B102202B
:10372000009001E000200090F64A1268D17BF54A33
:10373000526810786B460122FDF7BBF910B14FF0CB
:10374000FF3038BD9DF80010EE48417423E0ED488D
:10375000807A10B94FF0FF30F3E724B1E948407C9C
:1037600008B10020EDE714B10120009001E0002035
:103770000090E44A1268D17BE24A526810786B46A6
:103780000122FDF796F910B14FF0FF30D9E79DF80F
:103790000010DC4841740020D3E738B5002419E05C
:1037A000D8480068C07AA04204D0D6480068407D5E
:1037B000A04200D10CE0D349496808786B46012249
:1037C0002146FDF7D8F910B14FF0FF3038BD00BFEA
:1037D000601CC4B2CB4840680079A042E0DC002005
:1037E000F4E770B504460D46C6480068C07AA042AA
:1037F00004D0C4480068407DA04202D14FF0FF30A1
:1038000070BDC04840680079A04202DC4FF0FF3034
:10381000F6E7BC49496808782B4601222146FDF7A6
:10382000AAF9EDE738B50446B64890F82300A0425F
:1038300001D1002038BD14B13020009001E00020FB
:103840000090B048807C20B19DF8000040F002005C
:103850000090AC4890F8220020B19DF8000040F0A4
:1038600080000090A74A1268117DA64A526810781D
:103870006B460122FDF71DF910B14FF0FF30D9E77B
:10388000A04880F823400020D4E738B5044604F06F
:10389000700010B10120009005E014B100200090EC
:1038A00001E040200090974A1268917C954A526846
:1038B00010786B460122FDF7FCF820B100219148F9
:1038C0008172481E38BD9DF8000020F040018D48EF
:1038D00001730020009004F0400020B99DF8000022
:1038E00040F00400009004F0200020B99DF8000092
:1038F00040F00200009004F0100020B99DF8000094
:1039000040F00100009004F0080020B99DF800008C
:1039100040F0380000907B4A1268D17C794A5268A6
:1039200010786B460122FDF7C4F820B100217548DC
:103930008172481EC6E724B1082C02D00020FFF790
:1039400071FF70488472002101753220FCF736FD4A
:103950000020B7E738B504466A48807CA04201D110
:10396000002038BD002C46D0664A12681179654A9D
:10397000526810786B460122FDF7FDF810B14FF048
:10398000FF30EEE79DF8000020F0200000905D4A37
:10399000126811795B4A526810786B460122FDF774
:1039A00088F810B14FF0FF30DBE70320FCF706FD8D
:1039B00002200090534890F8220020B19DF80000AA
:1039C00040F0800000904F4890F8230020B19DF80F
:1039D000000040F0300000904A4A1268117D494AC8
:1039E000526810786B460122FDF763F8002851D029
:1039F0004FF0FF30B5E7434A12681179414A5268E7
:103A000010786B460122FDF7B6F810B14FF0FF3089
:103A1000A7E73C48807A00F0010028B19DF800003B
:103A200040F02000009004E09DF8000020F020000D
:103A30000090344A12681179324A526810786B4605
:103A40000122FDF736F810B14FF0FF3089E703206F
:103A5000FCF7B4FC2B4890F8220010B180200090B5
:103A600001E000200090274890F8230020B19DF845
:103A7000000040F030000090224A1268117D214A77
:103A8000526810786B460122FDF713F810B14FF021
:103A9000FF3066E71B488474002062E708B51948C8
:103AA000807A10B94FF0FF3008BD00200090154A11
:103AB0001268D17B134A526810786B460122FCF7DA
:103AC000F8FF10B14FF0FF30EEE70E4A126851795F
:103AD0000C4A526810786B460122FCF7EAFF10B1DD
:103AE0004FF0FF30E0E7074A12681179054A526843
:103AF00010786B460122FCF7DCFF28B14FF0FF3055
:103B0000D2E70000BC000020F74890F8240000280D
:103B100050D00C200090F44A12681179F24A526891
:103B200010786B460122FCF7C4FF10B14FF0FF3054
:103B3000BAE7C0200090EC48807A00F0010020B184
:103B40009DF8000040F020000090E74A12681179CB
:103B5000E54A526810786B460122FCF7AAFF10B1C3
:103B60004FF0FF30A0E7E048407C10B10220009009
:103B700001E000200090DC4A1268D17BDA4A5268EA
:103B800010786B460122FCF794FF10B14FF0FF3024
:103B90008AE700200090D44A12685179D24A5268CC
:103BA00010786B460122FCF784FF002852D04FF0BA
:103BB000FF3079E704200090CB4A12681179CA4A95
:103BC000526810786B460122FCF773FF10B14FF07A
:103BD000FF3069E7C448807C20B9C348807A00F090
:103BE000010010B94020009001E060200090BE4A22
:103BF00012681179BC4A526810786B460122FCF7B2
:103C000058FF10B14FF0FF304EE7B748407C10B17D
:103C10000120009001E000200090B34A1268D17B9F
:103C2000B14A526810786B460122FCF742FF10B18E
:103C30004FF0FF3038E7AC4A12685179AA4A52680F
:103C40001078A94B10330122FCF733FF10B14FF06D
:103C5000FF3029E7002027E770B50446002624F04E
:103C60000104A14890F8240008B1002070BD9E48CE
:103C7000807A10B94FF0FF30F8E79B48057C807AD6
:103C80002040994908740846007CA04202D04FF0B9
:103C9000FF3600E0002614B99348007D18B10120DA
:103CA000FFF736FD02E00020FFF732FD3CB1FFF7E1
:103CB000F5FE20B18C4805744FF0FF30D6E7304652
:103CC000D4E738B504468848807A10B94FF0FF3001
:103CD00038BDBC2C02DB0120009015E0622C02DB19
:103CE0000220009010E02A2C02DB032000900BE061
:103CF000142C02DB0420009006E00A2C02DB0520D5
:103D0000009001E0062000907748C07A9DF80010EE
:103D1000884201D10020DBE7734A12689178724A29
:103D2000526810786B460122FCF7C3FE10B14FF0C9
:103D3000FF30CDE79DF800106B48C1720020C7E747
:103D400038B50446282C02DD4FF0FF3038BDDCB911
:103D50000020FFF767FD00208DF8000007208DF898
:103D60000100614A1268917C5F4A526810786B4684
:103D70000222FCF79EFE10B14FF0FF30E6E7002173
:103D8000594801750020E1E70120FFF74BFD202095
:103D90008DF80000012C06D100208DF801000520CF
:103DA000FFF78FFF17E0052C06DC01208DF80100DE
:103DB0000520FFF786FF0EE0142C06DC02208DF8AC
:103DC00001000A20FFF77DFF05E003208DF80100C8
:103DD0001420FFF776FF9DF80100072101EB80100A
:103DE000C0B28DF80100404A1268917C3E4A526888
:103DF00010786B460222FCF75CFE10B14FF0FF30EA
:103E0000A4E708213848817200210173012101755E
:103E10000020FFF721FF002098E738B5044632481C
:103E2000807A10B94FF0FF3038BD2F4890F8240049
:103E300010B14FF0FF30F7E72B48007D50B134B19F
:103E4000282C04DCE0B2FFF77BFF0020ECE7002029
:103E5000FFF776FF042C01DA042404E0B4F57A7F3E
:103E600001DD4FF47A744FF47A7090FBF4F0401E49
:103E7000C0B200901C4A126851781B4A52681078F0
:103E80006B460122FCF715FE10B14FF0FF30CBE777
:103E90009DF80000401C4FF47A7191FBF0F081B264
:103EA0001148C1810146C9894810FFF70AFF002067
:103EB000BAE738B504460C48807A10B94FF0FF30A5
:103EC00038BD022C06D0042C07D0082C08D0102CAA
:103ED0000FD10BE0002000900EE0082000900BE0D6
:103EE0001020009008E00000BC0000201820009086
:103EF00002E04FF0FF30E3E700BFF948407A9DF859
:103F00000010B0EBE10F01D10020D9E7F44A1268AC
:103F1000D179F34A526810786B460122FCF7C9FD4B
:103F200010B14FF0FF30CBE79DF80000C110EC4816
:103F300041720020C4E738B50446E948807A10B9D8
:103F40004FF0FF3038BDFA2C09D0B4F5FA7F09D014
:103F5000B4F57A7F09D0B4F5FA6F0CD108E00020EF
:103F600000900BE00820009008E01020009005E091
:103F70001820009002E04FF0FF30E3E700BFD84880
:103F8000007A9DF80010B0EBE10F01D10020D9E7D5
:103F9000D34A12689179D24A526810786B4601224E
:103FA000FCF787FD10B14FF0FF30CBE79DF8000024
:103FB000C010CB4908720020C4E71CB580208DF8E2
:103FC0000000C74A1268917CC54A526810786B4657
:103FD0000122FCF76EFD10B14FF0FF301CBD6420D4
:103FE000FCF7ECF900208DF80000BD4A1268917CC6
:103FF000BB4A526810786B460122FCF75AFD10B19B
:104000004FF0FF30EAE7B64A1268917DB44A526831
:1040100010786B460622FCF7AEFD10B14FF0FF3072
:10402000DCE79DF80500C007400F9DF8031001F084
:10403000010140EA41009DF8011001F0010140EA50
:10404000010494B1012C03D10121A548C17431E0D0
:10405000022C03D10021A248C1742BE02146A1A06B
:1040600002F0EEFE4FF0FF30B8E79D4A1268D178BB
:104070009B4A526810786B460122FCF77CFD10B118
:104080004FF0FF30AAE79DF8000000F00F042CB9B4
:104090009E4802F0D5FE4FF0FF309FE7042C06D17A
:1040A0009BA002F0CDFE01218D48C17402E00021E9
:1040B0008B48C174FF218A488172FF2088490872A9
:1040C000FF2187484172C1724FF6FF71C181FF2104
:1040D000017481740121017380F82210002180F89D
:1040E00023104175017516300160416081601638FA
:1040F00080F8241080F82510C1844FF4FA60FFF78F
:104100001AFF10B14FF0FF3068E70220FFF7D1FE31
:1041100010B14FF0FF3061E72A20FFF7D2FD10B158
:104120004FF0FF305AE73220FFF777FE10B14FF023
:10413000FF3053E70020FFF78FFD10B14FF0FF3045
:104140004CE70020FFF706FC10B14FF0FF3045E7C9
:104150000020FFF79AFB002040E770477CB504463B
:104160000D465F48807A00F0700010B94FF0FF30C4
:104170007CBD5B4A1268117B594A526810786B46C5
:104180000622FCF7F8FC10B14FF0FF30F0E79DF885
:1041900001009DF8001040EA012000B220809DF847
:1041A00003009DF8021040EA012000B260809DF8F3
:1041B00005009DF8041040EA012000B2A08015B16E
:1041C0002846FFF7CAFF0020D2E77CB504460D461B
:1041D0004348807A00F0080010B94FF0FF307CBDF2
:1041E0003F4A1268517B3E4A526810786B4606225D
:1041F000FCF7C1FC10B14FF0FF30F0E79DF8010073
:104200009DF8001040EA012000B220809DF80300D4
:104210009DF8021040EA012000B260809DF8050080
:104220009DF8041040EA012000B2A08015B1284694
:10423000FFF793FF0020D2E72DE9FE4F05460C461D
:104240002748807A18B94FF0FF30BDE8FE8F244A26
:104250001268917B224A5268107802AB0222FCF766
:104260008AFC10B14FF0FF30EFE79DF809009DF890
:10427000081040EA012006B214B12046FFF76DFF96
:1042800017494968C88804F0C1F91549019049687F
:10429000B1F9080004F0A2F98346304604F09EF913
:1042A0005946009004F002FB8246019904F064F83C
:1042B00081461F4903F0F2FF80464FF08F4104F022
:1042C000EDF9074604F04EF928600020BDE710B56F
:1042D00088B004461CB94FF0FF3008B010BD29E08B
:1042E000BC000020556E737570706F727465642029
:1042F000736F6674776172652070726F6475637432
:10430000207265762025642E0A000000D8A10008DE
:1043100048616C662073656E736974697669747937
:10432000207061727420666F756E642E0D0A000035
:1043300000000C42206830B9606820B9A06810B94C
:10434000002008B010BDFA494968087806AB03227E
:104350001146FCF710FC10B14FF0FF30F1E79DF86B
:104360001800082101EB201000F00F00ADF800004C
:104370009DF8190001EB201000F00F00ADF80200CD
:104380009DF81A0001EB201000F00F00ADF80400BA
:1043900020684100BDF90000403091FBF0F000B210
:1043A000ADF8100060684100BDF90200403091FB9B
:1043B000F0F000B2ADF81200A0684100BDF90400B1
:1043C000403091FBF0F000B2ADF81400D8494968D4
:1043D000087806AB06221146FCF7CDFB10B14FF072
:1043E000FF30AEE79DF819009DF8181040EA012053
:1043F00000B2ADF808009DF81B009DF81A1040EAC5
:10440000012000B2ADF80A009DF81D009DF81C10B7
:1044100040EA012000B2ADF80C00BDF81000BDF874
:104420000810084400B2ADF81000BDF81200BDF845
:104430000A10084400B2ADF81200BDF81400BDF82F
:104440000C10084400B2ADF81400BDF81000000ACA
:104450008DF81800BDF81000C0B28DF81900BDF835
:104460001200000A8DF81A00BDF81200C0B28DF8D3
:104470001B00BDF81400000A8DF81C00BDF81400E4
:10448000C0B28DF81D00AA494968087806AB06221B
:104490001146FCF70EFB10B14FF0FF3051E7002042
:1044A0004FE70146A248007A30B1012807D0022820
:1044B00009D003280FD10AE0FA2008800EE04FF45B
:1044C000FA7008800AE04FF47A70088006E04FF432
:1044D000FA60088002E00020088000BF00BF0020D2
:1044E000704701469248407A30B1012807D002282F
:1044F00008D003280CD108E0022008700BE004204B
:10450000087008E00820087005E01020087002E03C
:104510004FF0FF30704700BF8548C07C18B1087865
:104520004006000E08700020F4E701468048C07A7B
:10453000082817D2DFE800F01704070A0D10131837
:10454000BC20088013E06220088010E02A20088048
:104550000DE0142008800AE00A20088007E005200A
:10456000088004E000BF00BF0020088000BF00BF3B
:104570000020704701466E4890F8240010B14FF0BB
:10458000FF3070476A48C08908800020F9E701467B
:1045900000200880401E704701464FF0FF307047F2
:1045A00001466348007A30B1012807D0022808D0BC
:1045B00003280CD108E05F4808600BE05E48086003
:1045C00008E05E48086005E05D48086002E04FF0E2
:1045D000FF30704700BF0020FBE701465448407A97
:1045E00030B1012808D002280AD0032810D10BE0EE
:1045F0004FF4804008800EE041F69C7008800AE08D
:104600004FF48050088006E04FF40060088002E01C
:104610004FF0FF30704700BF4548C07C10B108889C
:10462000401008800020F5E701464148007C0870F2
:104630000020704701463E48807A10B10120087082
:1046400001E0002008700020704738B50446384863
:10465000807A10B94FF0FF3038BD354A1268117CAE
:10466000334A526810786B460222FCF784FA10B184
:104670004FF0FF30F0E79DF801009DF8001040EA90
:10468000012000B220800020E6E72DE9FE4F07461A
:10469000884692461D46DDF830B0002600242448A6
:1046A00090F8240010B1601EBDE8FE8F0020287035
:1046B0001F48807A10B94FF0FF30F5E71C48007CA6
:1046C00010B94FF0FF30EFE71948007C00F04000D0
:1046D00008B1B01CC6B21648007C00F0200008B13A
:1046E000B01CC6B21248007C00F0100008B1B01C2B
:1046F000C6B20F48007C00F0080008B1B01DC6B279
:104700000B4A1268917A0A4A526810786B46022264
:10471000FCF731FA10B14FF0FF30C5E79DF801000A
:104720009DF8001040EA0129B1450BDA0020BBE7F3
:10473000BC000020000003430000834233330342E7
:1047400033338341FC4840684088B9EB600F17DD84
:10475000F94A1268517CF84A526810786B46012277
:10476000FCF709FA10B14FF0FF309DE79DF800000B
:1047700000F0100020B1FFF791F96FF0010093E70E
:104780005046FFF7EAFCEC4A1268D17AEA4A5268CE
:1047900010786B463246FCF7EEF910B14FF0FF305F
:1047A00082E799FBF6F0401E8BF80000002028708D
:1047B000B4422AD0E048007C00F0080028B3601C16
:1047C0001DF800001DF8041040EA012000B2A8F80E
:1047D0000000E01C1DF80010A01C1DF8000041EABC
:1047E000002000B2A8F80200601D1DF80010201D76
:1047F0001DF8000041EA002000B2A8F80400287863
:1048000040F008002870A01D84B2B44213D0CA48FA
:10481000007C00F0400070B1601C1DF800001DF825
:10482000041040EA012000B23880287840F04000AF
:104830002870A01C84B2B44213D0BF48007C00F0A2
:10484000200070B1601C1DF800001DF8041040EA43
:10485000012000B27880287840F020002870A01C49
:1048600084B2B44213D0B448007C00F0100070B1A0
:10487000601C1DF800001DF8041040EA012000B281
:10488000B880287840F010002870A01C84B2002066
:104890000AE7F8B504460F461646A74890F82400E4
:1048A00010B94FF0FF30F8BDA348807A10B94FF02F
:1048B000FF30F8E7A04A1268917A9F4A5268107850
:1048C0006B460222FCF757F910B14FF0FF30EAE7D0
:1048D0009DF801009DF8001040EA0125A54203DA89
:1048E00000203070401EDEE7934840684088B5EBFA
:1048F000600F17DD904A1268517C8F4A5268107819
:104900006B460122FCF737F910B14FF0FF30CAE7D0
:104910009DF8000000F0100020B1FFF7BFF86FF025
:104920000100C0E7E2B2844B1B68D97A824B5B6816
:1049300018783B46FCF71FF910B14FF0FF30B2E793
:1049400095FBF4F0401E30700020ACE701467A4839
:1049500080F82210002070477CB5054676494968EA
:10496000087801AB04220D21FCF705F908B10720F6
:104970007CBD9DF80700C0F301109DF8041001F004
:10498000E00140EAE1008DF800009DF80700C0F367
:1049900081009DF8051001F0E00140EAE1008DF88A
:1049A00001009DF8070000F003009DF8061001F0DB
:1049B000E00140EAE1008DF8020000241CE01DF84F
:1049C000040018B9002045F8240013E05B4845F8BE
:1049D000240006E055F82400594903F05FFE45F82D
:1049E00024001DF80400401EC0B20DF80400002889
:1049F000F0D100BF601CC4B2032CE0DB0020B7E79D
:104A00002DE9FE4F06460F4600256846FFF7A4FF36
:104A1000002442E056F8240057F82410A0EB010AC5
:104A2000BAF1000F01DB514601E0CAF1000108466E
:104A300003F0D4FD83464FF08F4103F09DFC804688
:104A40005DF82400002103F059FD16D05DF8241014
:104A5000404603F091FC82464FF07E5103F026FF62
:104A6000814629F0004A3748416A504603F0E2FE89
:104A700012D20120A04005430EE03248C1694046F1
:104A800003F0D8FD05D32F48016A404603F0D2FE5B
:104A900002D20120A0400543641C032CBADB284647
:104AA000BDE8FE8F2DE9FC5F06460F460025224932
:104AB0004968087801AB03220D21FCF75CF810B1BE
:104AC0000720BDE8FC9F9DF8040000F01F008DF852
:104AD00004009DF8050000F01F008DF805009DF80A
:104AE000060000F01F008DF80600002462E056F872
:104AF000240057F82410A0EB010BBBF1000F01DBE1
:104B0000594601E0CBF10001084603F067FD4FF084
:104B10008F41009003F030FC814601A8005DC0B3D6
:104B20000849086803F072FD83465946064803F0B9
:104B300023FC80460FE00000BC0000207B14AE3E4A
:104B40001D5A843F1495000800B04C45FE4940466C
:104B500003F0A4FD804601A8005D401EC0B201A97B
:104B600008550028F2D14146484603F005FC83462B
:104B70004FF07E5103F09AFE82462AF0004BF34834
:104B80008169584603F056FE13D20120A040054328
:104B90000FE0FFE7ED480169484603F04BFD05D300
:104BA000EA484169484603F045FE02D20120A04090
:104BB0000543641C032C9ADB284682E72DE9F04F5D
:104BC00087B005460C46914601208DF81000002064
:104BD0008DF81100DE4A1268917CDD4A5268107827
:104BE00004AB0222FBF765FF20B14FF0FF3007B0A6
:104BF000BDE8F08FC820FBF7E1FB00208DF8100026
:104C0000D34A1268D17BD24A5268107804AB012291
:104C1000FBF74FFF10B14FF0FF30E8E7CC4A1268C6
:104C20005179CB4A5268107804AB0122FBF741FF5F
:104C300010B14FF0FF30DAE7C54A1268917CC44AE0
:104C40005268107804AB0122FBF733FF10B14FF02C
:104C5000FF30CCE7BE4A1268D17DBD4A5268107859
:104C600004AB0122FBF725FF10B14FF0FF30BEE788
:104C7000B74A12681179B64A5268107804AB01221B
:104C8000FBF717FF10B14FF0FF30B0E70C208DF8A5
:104C90001000AF4A12681179AD4A5268107804AB1F
:104CA0000122FBF706FF10B14FF0FF309FE70F2006
:104CB000FBF784FBA648806A407A8DF81000A44A6E
:104CC00012689178A24A5268107804AB0122FBF76F
:104CD000F0FE10B14FF0FF3089E79D48806A007AFE
:104CE0008DF810009A4A12685178994A52681078E3
:104CF00004AB0122FBF7DDFE10B14FF0FF3076E789
:104D0000B9F1000F07D09248806A807A40F0E00045
:104D10008DF8100004E08E48806A807A8DF81000CB
:104D20008B4A126891798A4A5268107804AB012242
:104D3000FBF7BFFE10B14FF0FF3058E7B9F1000F9D
:104D400007D08348806AC07A40F0E0008DF81000F8
:104D500003E07E48C07A8DF810007D4A1268D17950
:104D60007B4A5268107804AB0122FBF7A2FE10B117
:104D70004FF0FF303BE7B9F1000F02D0C820FBF73E
:104D80001DFB40208DF81000714A12681179704A9D
:104D90005268107804AB0122FBF78BFE10B14FF084
:104DA000FF3024E778208DF81000694A12685179A5
:104DB000674A5268107804AB0122FBF77AFE10B103
:104DC0004FF0FF3013E761498889FBF7F7FA0020BD
:104DD0008DF810005E4A126851795D4A5268107869
:104DE00004AB0122FBF765FE10B14FF0FF30FEE689
:104DF000574A1268917A564A5268107804AB0222D8
:104E0000FBF7B9FE10B14FF0FF30F0E69DF811004E
:104E10009DF8101040EA012B0C209BFBF0F0C6B26D
:104E20000020A86068602860A06060602060824602
:104E300065E0474A1268D17A454A5268107804AB57
:104E40000C22FBF798FE10B14FF0FF30CFE69DF833
:104E500011009DF8101040EA012000B2ADF80800E2
:104E60009DF813009DF8121040EA012000B2ADF841
:104E70000A009DF815009DF8141040EA012000B2C8
:104E8000ADF80C00BDF90810206808442060BDF999
:104E90000A10606808446060BDF90C10A0680844FE
:104EA000A0609DF817009DF8161040EA012000B29E
:104EB000ADF800009DF819009DF8181040EA012097
:104EC00000B2ADF802009DF81B009DF81A1040EAF0
:104ED000012000B2ADF80400BDF9001028680844B4
:104EE0002860BDF90210686808446860BDF90410C4
:104EF000A8680844A8600AF1010000F0FF0AB24562
:104F000097DB1248D0F800C02868C117090441EAAD
:104F10001041070462460023384601F06CFF324618
:104F20000023CDE9020101F066FF28600748D0F8B0
:104F300000C06868C117090441EA104107046246CD
:104F40000023384606E0000054E3853F149500082E
:104F5000BC00002001F04FFF32460023CDE90201E2
:104F600001F049FF6860FE48D0F800C0A868C1178A
:104F7000090441EA1041070462460023384601F063
:104F80003AFF32460023CDE9020101F034FFA86068
:104F9000F348D0F804C02168C817000440EA11485B
:104FA0000F04624600233846414601F024FF324692
:104FB0000023CDE9020101F01EFF2060E848D0F88F
:104FC00004C06068C117090441EA10410704624641
:104FD0000023384601F00FFF32460023CDE90201DD
:104FE00001F009FF6060DE48D0F804C0A068C11776
:104FF000090441EA1041070462460023384601F0E3
:10500000FAFE32460023CDE9020101F0F4FEA06071
:10501000A068002804DDA068A0F58030A06003E04F
:10502000A06800F58030A0600020E0E538B50446B7
:10503000CC4890F82400A04201D1002038BD24B310
:10504000C84890F8250010B94FF0FF30F6E700206F
:10505000FEF75EFB0020FEF77DFCC249C88CFEF720
:10506000DCFE00200090BF49496808786B460122A9
:105070002321FBF71EFD0121BA4880F824100120EE
:10508000FEF746FBFEF70AFD13E00020FEF740FBAB
:10509000B448007C0090B349496808786B46012207
:1050A0002321FBF706FD0021AE4880F82410FEF70F
:1050B000F5FC0020C2E72DE9F04F8DB083460F4686
:1050C00002200C90A74890F8240020B10020FFF7A0
:1050D000ADFF012600E0002603A8FFF7E2F905A8CE
:1050E000FFF7FFF901A8FFF720FA02A8FFF742FA3D
:1050F0009C4890F80AA004A8FFF796FA002407E05D
:10510000002239465846FFF759FD00B902E0641CF9
:10511000022CF5DB00BF022C01D1002528E0002481
:1051200007E0012206A909A8FFF748FD00B902E03F
:10513000641C022CF5DB00BF022C01D1002517E016
:1051400006A93846FFF75CFC00F0FF0809A958469D
:10515000FFF7A8FC00F0FF090025B9F1000F01D10D
:1051600045F00105B8F1000F01D145F0020500BF7F
:10517000FF207C490872FF217A484172C1724FF6C4
:10518000FF71C181FF218172017401210173BDF89A
:105190000C00FEF7D0FE9DF81400FEF78AFEBDF865
:1051A0000400FEF78EFDBDF80800FEF736FE5046FF
:1051B000FEF76BFB9DF81000FEF74EFD16B10120C7
:1051C000FFF734FF28460DB0BDE8F08FF8B5044670
:1051D0000D46164616B94FF0FF30F8BD6148807A8B
:1051E00010B94FF0FF30F8E720128DF80000E0B260
:1051F0008DF801009DF8010028445A494968498901
:10520000884202DD4FF0FF30E7E7564A1268117E10
:10521000544A526810786B460222FBF74AFC10B1E0
:105220004FF0FF30D9E7EAB24E4B1B68597D4D4B2A
:105230005B6818783346FBF73CFC10B14FF0FF3049
:10524000CBE70020C9E7F8B504460D46164616B967
:105250004FF0FF30F8BD4348807A10B94FF0FF306F
:10526000F8E720128DF80000E0B28DF801009DF8FB
:10527000010028443B4949684989884202DD4FF0D2
:10528000FF30E7E7374A1268117E364A52681078D5
:105290006B460222FBF70DFC10B14FF0FF30D9E74F
:1052A000EAB2304B1B68597D2E4B5B681878334649
:1052B000FBF761FC10B14FF0FF30CBE70020C9E7EE
:1052C0002DE9F04385B005460E469046994625489F
:1052D00090F8250020B14FF0FF3005B0BDE8F08315
:1052E00016B94FF0FF30F8E7002423E0281B102800
:1052F00001DD102000E0281B87B232193946204614
:10530000FFF764FF10B14FF0FF30E6E701AA39461E
:105310002046FFF798FF10B14FF0FF30DDE730195E
:105320003A4601A901F008FE10B16FF00100D4E780
:10533000E01984B2AC42D9DB4FEA28208DF8000096
:1053400008F0FF008DF80100064A1268917E054AB8
:10535000526810786B460222FBF7ABFB38B103E0D2
:1053600014950008BC0000204FF0FF30B5E7012184
:105370008A4880F82510A0F826900020ADE7014665
:10538000864890F8240008700020704702464FF0CD
:10539000FF30704701464FF0FF307047F8B50546C3
:1053A0000F461446002C70D0B5F5FF5F01DDFF26D7
:1053B00005E0202D01DA012601E0C5F3471607B903
:1053C0000127282C02DD4FF0FF30F8BD7348407DE7
:1053D00028BB724890F8240038B10020FFF726FE61
:1053E00001216E4880F8201003E000216B4880F80E
:1053F00020106A481630FFF754F868481830FFF755
:1054000070F866481A30FFF790F864481C30FFF7D0
:10541000B1F86248817A81771F30FFF705F90020E3
:10542000FEF776F90020FEF78BFC00208DF80000D7
:105430005A4A12689178594A526810786B4601228C
:10544000FBF737FB10B14FF0FF30BEE740208DF87F
:105450000000524A1268D17B504A526810786B465D
:105460000122FBF726FB00B165E08DF800608DF8A6
:1054700001704A4A1268117A484A526810786B469D
:105480000222FBF716FB08B155E047E00520FAF7CA
:1054900095FF4248407A072101EBC000C0B28DF869
:1054A00000003E4A1268D1793C4A526810786B4637
:1054B0000122FBF7FEFA00B13DE020208DF800004C
:1054C000012C03D100208DF801000EE0052C03DC37
:1054D00001208DF8010008E0142C03DC02208DF877
:1054E000010002E003208DF801009DF80100072172
:1054F00001EB8010C0B28DF80100284A1268917C3F
:10550000264A526810786B460222FBF7D2FA00B1A5
:1055100011E0012121484175002056E71F4A16324B
:10552000002103E0505C00B105E0491C0C29F9D3CF
:105530004FF0FF3049E7FF2018490872FF21174854
:105540004172C1724FF6FF71C181FF2181720174F6
:10555000012101730146887FFEF797F90F49C88A38
:10556000FEF7E9FC0D49087EFEF7A3FC0B49488BCA
:10557000FEF7A7FB0949888BFEF74FFC0749C87F58
:10558000FEF76AFB054890F8200010B10120FFF7F4
:105590004DFD002101484175002016E7BC000020A8
:1055A00010B5C8234FF48062F74940F6F630FFF794
:1055B00087FE10BD10B586B00446F4A000680390C5
:1055C000F3A000680290F3A000680190F2A00068C8
:1055D000009004F0030003A9085C8DF8140003A8F0
:1055E000C4F3C101405C8DF8150003A8C4F3811118
:1055F000405C8DF8160004F0030002A9085C8DF8E9
:10560000100002A8C4F3C101405C8DF8110002A88B
:10561000C4F38111405C8DF8120005AA032140F209
:105620002640FFF7D3FD18B14FF0FF3006B010BD94
:1056300004AA032140F22A40FFF7C8FD10B14FF041
:10564000FF30F3E7019805900098049004F00400FF
:1056500058B19DF8140040F001008DF814009DF839
:10566000100040F001008DF8100004F0200058B147
:105670009DF8150040F001008DF815009DF811000F
:1056800040F001008DF8110004F4807058B19DF8CD
:10569000160040F001008DF816009DF8120040F051
:1056A00001008DF8120005AA03214FF48860FFF76E
:1056B0008DFD10B14FF0FF30B8E704AA032140F28E
:1056C0003140FFF783FD10B14FF0FF30AEE7B34834
:1056D00004810020AAE71FB50446B048007A00F014
:1056E000030054F820000190AC48007A00F0040058
:1056F00010B1019840420190A848007AC0F3C1005F
:1057000054F820000290A548007A00F0200010B163
:10571000029840420290A148007AC0F3811054F8E8
:10572000200003909D48008900F4807010B1039818
:10573000404203909A49019880FB0101800F40EAA2
:10574000810001909649029880FB0110820042EA94
:10575000917002909249039880FB0110820042EA06
:10576000917003900198000E8DF800000198000CD4
:105770008DF801000198000A8DF802000198C0B26E
:105780008DF803006A4604214FF47470FFF71EFD84
:1057900018B14FF0FF3004B010BD0298000E8DF824
:1057A00000000298000C8DF801000298000A8DF8A4
:1057B00002000298C0B28DF803006A4604214FF43B
:1057C0007570FFF703FD10B14FF0FF30E3E703986A
:1057D000000E8DF800000398000C8DF8010003986E
:1057E000000A8DF802000398C0B28DF803006A46E3
:1057F00004214FF47670FFF7E9FCCCE770B588B070
:10580000064601A8FEF7E9FEBDF804000021C90321
:1058100041EA5045C4036148007A00F0030056F89D
:10582000200005905D48007A00F0040010B1059852
:10583000404205905948007AC0F3C10056F8200054
:1058400006905648007A00F0200010B106984042B9
:1058500006905248007AC0F3811056F82000079055
:105860004E48008900F4807010B1079840420790BC
:105870000598C117A0FB042301FB043100FB0510B0
:10588000810041EA927005900698C117A0FB04239D
:1058900001FB043100FB0510810041EA9270069083
:1058A0000798C117A0FB042301FB043100FB05107E
:1058B000810041EA927007900598000E8DF808006B
:1058C0000598000C8DF809000598000A8DF80A006B
:1058D0000598C0B28DF80B000698000E8DF80C00EC
:1058E0000698000C8DF80D000698000A8DF80E0041
:1058F0000698C0B28DF80F000798000E8DF81000C2
:105900000798000C8DF811000798000A8DF8120016
:105910000798C0B28DF8130002AA0C214FF425702D
:10592000FFF754FC08B070BD30B585B004461DA229
:1059300007CA02AB07C3C82C03DD4FF0FF3005B028
:1059400030BDC82090FBF4F0401E85B2280A8DF8C7
:105950000000E8B28DF801006A46022140F21620EC
:10596000FFF734FC10B14FF0FF30E8E702AA0C213A
:1059700040F6C120FFF72AFC10B14FF0FF30DEE700
:10598000064884810020DAE73C9500084CCD6C0085
:105990000CC92C0036567600264666007805002095
:1059A00009E3CA02FEF2ABC4AAF1DFDFBBAFDFDF5F
:1059B0000146FC4880890880002070472DE9FC479B
:1059C00006460F4606F0070010B1B7F5C86F03DDB5
:1059D0004FF0FF30BDE8FC87384602F017FE8146E5
:1059E000F14902F0C9FC80466846FEF77AFD9DF851
:1059F0000000022806D0042816D0082826D0102837
:105A000048D135E04FF08D41404602F047FE8146D7
:105A100002F0C4FD84B2E549404602F03FFE8146F3
:105A200002F0BCFD85B238E04FF08C41404602F0F8
:105A300035FE814602F0B2FD84B2DD49404602F0F7
:105A40002DFE814602F0AAFD85B226E04FF08B4183
:105A5000404602F023FE814602F0A0FD84B2D54903
:105A6000404602F01BFE814602F098FD85B214E02C
:105A70004FF08A41404602F011FE814602F08EFD51
:105A800084B2CD49404602F009FE814602F086FD0F
:105A900085B202E04FF0FF309CE700BF20128DF886
:105AA0000400E0B28DF8050028128DF80600E8B277
:105AB0008DF8070006F00100A0B101AA02214FF401
:105AC000EA70FFF783FB10B14FF0FF3082E70DF172
:105AD000060202214FF49270FFF778FB10B14FF0ED
